{
  "abi": [
    {
      "inputs": [
        {
          "internalType": "address",
          "name": "initialOwner",
          "type": "address"
        }
      ],
      "stateMutability": "nonpayable",
      "type": "constructor"
    },
    {
      "anonymous": false,
      "inputs": [
        {
          "indexed": true,
          "internalType": "address",
          "name": "owner",
          "type": "address"
        },
        {
          "indexed": true,
          "internalType": "address",
          "name": "spender",
          "type": "address"
        },
        {
          "indexed": false,
          "internalType": "uint256",
          "name": "amount",
          "type": "uint256"
        }
      ],
      "name": "Approval",
      "type": "event"
    },
    {
      "anonymous": false,
      "inputs": [
        {
          "indexed": true,
          "internalType": "address",
          "name": "user",
          "type": "address"
        },
        {
          "indexed": true,
          "internalType": "address",
          "name": "newOwner",
          "type": "address"
        }
      ],
      "name": "OwnershipTransferred",
      "type": "event"
    },
    {
      "anonymous": false,
      "inputs": [
        {
          "indexed": true,
          "internalType": "address",
          "name": "from",
          "type": "address"
        },
        {
          "indexed": true,
          "internalType": "address",
          "name": "to",
          "type": "address"
        },
        {
          "indexed": false,
          "internalType": "uint256",
          "name": "amount",
          "type": "uint256"
        }
      ],
      "name": "Transfer",
      "type": "event"
    },
    {
      "inputs": [],
      "name": "DOMAIN_SEPARATOR",
      "outputs": [
        {
          "internalType": "bytes32",
          "name": "",
          "type": "bytes32"
        }
      ],
      "stateMutability": "view",
      "type": "function"
    },
    {
      "inputs": [
        {
          "internalType": "address",
          "name": "",
          "type": "address"
        },
        {
          "internalType": "address",
          "name": "",
          "type": "address"
        }
      ],
      "name": "allowance",
      "outputs": [
        {
          "internalType": "uint256",
          "name": "",
          "type": "uint256"
        }
      ],
      "stateMutability": "view",
      "type": "function"
    },
    {
      "inputs": [
        {
          "internalType": "address",
          "name": "spender",
          "type": "address"
        },
        {
          "internalType": "uint256",
          "name": "amount",
          "type": "uint256"
        }
      ],
      "name": "approve",
      "outputs": [
        {
          "internalType": "bool",
          "name": "",
          "type": "bool"
        }
      ],
      "stateMutability": "nonpayable",
      "type": "function"
    },
    {
      "inputs": [
        {
          "internalType": "address",
          "name": "",
          "type": "address"
        }
      ],
      "name": "balanceOf",
      "outputs": [
        {
          "internalType": "uint256",
          "name": "",
          "type": "uint256"
        }
      ],
      "stateMutability": "view",
      "type": "function"
    },
    {
      "inputs": [
        {
          "internalType": "address",
          "name": "account",
          "type": "address"
        },
        {
          "internalType": "uint256",
          "name": "amount",
          "type": "uint256"
        }
      ],
      "name": "burn",
      "outputs": [],
      "stateMutability": "nonpayable",
      "type": "function"
    },
    {
      "inputs": [],
      "name": "decimals",
      "outputs": [
        {
          "internalType": "uint8",
          "name": "",
          "type": "uint8"
        }
      ],
      "stateMutability": "view",
      "type": "function"
    },
    {
      "inputs": [
        {
          "internalType": "address",
          "name": "account",
          "type": "address"
        },
        {
          "internalType": "uint256",
          "name": "amount",
          "type": "uint256"
        }
      ],
      "name": "mint",
      "outputs": [],
      "stateMutability": "nonpayable",
      "type": "function"
    },
    {
      "inputs": [],
      "name": "name",
      "outputs": [
        {
          "internalType": "string",
          "name": "",
          "type": "string"
        }
      ],
      "stateMutability": "view",
      "type": "function"
    },
    {
      "inputs": [
        {
          "internalType": "address",
          "name": "",
          "type": "address"
        }
      ],
      "name": "nonces",
      "outputs": [
        {
          "internalType": "uint256",
          "name": "",
          "type": "uint256"
        }
      ],
      "stateMutability": "view",
      "type": "function"
    },
    {
      "inputs": [],
      "name": "owner",
      "outputs": [
        {
          "internalType": "address",
          "name": "",
          "type": "address"
        }
      ],
      "stateMutability": "view",
      "type": "function"
    },
    {
      "inputs": [
        {
          "internalType": "address",
          "name": "owner",
          "type": "address"
        },
        {
          "internalType": "address",
          "name": "spender",
          "type": "address"
        },
        {
          "internalType": "uint256",
          "name": "value",
          "type": "uint256"
        },
        {
          "internalType": "uint256",
          "name": "deadline",
          "type": "uint256"
        },
        {
          "internalType": "uint8",
          "name": "v",
          "type": "uint8"
        },
        {
          "internalType": "bytes32",
          "name": "r",
          "type": "bytes32"
        },
        {
          "internalType": "bytes32",
          "name": "s",
          "type": "bytes32"
        }
      ],
      "name": "permit",
      "outputs": [],
      "stateMutability": "nonpayable",
      "type": "function"
    },
    {
      "inputs": [],
      "name": "symbol",
      "outputs": [
        {
          "internalType": "string",
          "name": "",
          "type": "string"
        }
      ],
      "stateMutability": "view",
      "type": "function"
    },
    {
      "inputs": [],
      "name": "totalSupply",
      "outputs": [
        {
          "internalType": "uint256",
          "name": "",
          "type": "uint256"
        }
      ],
      "stateMutability": "view",
      "type": "function"
    },
    {
      "inputs": [
        {
          "internalType": "address",
          "name": "to",
          "type": "address"
        },
        {
          "internalType": "uint256",
          "name": "amount",
          "type": "uint256"
        }
      ],
      "name": "transfer",
      "outputs": [
        {
          "internalType": "bool",
          "name": "",
          "type": "bool"
        }
      ],
      "stateMutability": "nonpayable",
      "type": "function"
    },
    {
      "inputs": [
        {
          "internalType": "address",
          "name": "from",
          "type": "address"
        },
        {
          "internalType": "address",
          "name": "to",
          "type": "address"
        },
        {
          "internalType": "uint256",
          "name": "amount",
          "type": "uint256"
        }
      ],
      "name": "transferFrom",
      "outputs": [
        {
          "internalType": "bool",
          "name": "",
          "type": "bool"
        }
      ],
      "stateMutability": "nonpayable",
      "type": "function"
    },
    {
      "inputs": [
        {
          "internalType": "address",
          "name": "newOwner",
          "type": "address"
        }
      ],
      "name": "transferOwnership",
      "outputs": [],
      "stateMutability": "nonpayable",
      "type": "function"
    }
  ],
  "bytecode": {
    "object": "0x60e06040523480156200001157600080fd5b50604051620010f9380380620010f98339810160408190526200003491620001a2565b604080518082018252600e81526d25a2a49029ba30b13632b1b7b4b760911b6020808301919091528251808401845260038152624b454960e81b91810191909152600080546001600160a01b0319166001600160a01b0386169081178255935192939192601292869290917f8be0079c531659141344cd1fd0a4f28419497f9722a3daafe3b4186f6b6457e0908290a3506001620000d3848262000279565b506002620000e2838262000279565b5060ff81166080524660a052620000f862000106565b60c05250620003c392505050565b60007f8b73c3c69bb8fe3d512ecc4cf759cc79239f7b179b0ffacaa9a75d522b39400f60016040516200013a919062000345565b6040805191829003822060208301939093528101919091527fc89efdaa54c0f20c7adf612882df0950f5a951637e0307cdcb4c672f298b8bc660608201524660808201523060a082015260c00160405160208183030381529060405280519060200120905090565b600060208284031215620001b557600080fd5b81516001600160a01b0381168114620001cd57600080fd5b9392505050565b634e487b7160e01b600052604160045260246000fd5b600181811c90821680620001ff57607f821691505b6020821081036200022057634e487b7160e01b600052602260045260246000fd5b50919050565b601f8211156200027457600081815260208120601f850160051c810160208610156200024f5750805b601f850160051c820191505b8181101562000270578281556001016200025b565b5050505b505050565b81516001600160401b03811115620002955762000295620001d4565b620002ad81620002a68454620001ea565b8462000226565b602080601f831160018114620002e55760008415620002cc5750858301515b600019600386901b1c1916600185901b17855562000270565b600085815260208120601f198616915b828110156200031657888601518255948401946001909101908401620002f5565b5085821015620003355787850151600019600388901b60f8161c191681555b5050505050600190811b01905550565b60008083546200035581620001ea565b600182811680156200037057600181146200038657620003b7565b60ff1984168752821515830287019450620003b7565b8760005260208060002060005b85811015620003ae5781548a82015290840190820162000393565b50505082870194505b50929695505050505050565b60805160a05160c051610d06620003f360003960006104c40152600061048f015260006101750152610d066000f3fe608060405234801561001057600080fd5b50600436106101005760003560e01c80637ecebe0011610097578063a9059cbb11610066578063a9059cbb1461024c578063d505accf1461025f578063dd62ed3e14610272578063f2fde38b1461029d57600080fd5b80637ecebe00146101e65780638da5cb5b1461020657806395d89b41146102315780639dc29fac1461023957600080fd5b8063313ce567116100d3578063313ce567146101705780633644e515146101a957806340c10f19146101b157806370a08231146101c657600080fd5b806306fdde0314610105578063095ea7b31461012357806318160ddd1461014657806323b872dd1461015d575b600080fd5b61010d6102b0565b60405161011a91906109dd565b60405180910390f35b610136610131366004610a47565b61033e565b604051901515815260200161011a565b61014f60035481565b60405190815260200161011a565b61013661016b366004610a71565b6103ab565b6101977f000000000000000000000000000000000000000000000000000000000000000081565b60405160ff909116815260200161011a565b61014f61048b565b6101c46101bf366004610a47565b6104e6565b005b61014f6101d4366004610aad565b60046020526000908152604090205481565b61014f6101f4366004610aad565b60066020526000908152604090205481565b600054610219906001600160a01b031681565b6040516001600160a01b03909116815260200161011a565b61010d610527565b6101c4610247366004610a47565b610534565b61013661025a366004610a47565b610568565b6101c461026d366004610acf565b6105ce565b61014f610280366004610b42565b600560209081526000928352604080842090915290825290205481565b6101c46102ab366004610aad565b610812565b600180546102bd90610b75565b80601f01602080910402602001604051908101604052809291908181526020018280546102e990610b75565b80156103365780601f1061030b57610100808354040283529160200191610336565b820191906000526020600020905b81548152906001019060200180831161031957829003601f168201915b505050505081565b3360008181526005602090815260408083206001600160a01b038716808552925280832085905551919290917f8c5be1e5ebec7d5bd14f71427d1e84f3dd0314c0f7b2291e5b200ac8c7c3b925906103999086815260200190565b60405180910390a35060015b92915050565b6001600160a01b03831660009081526005602090815260408083203384529091528120546000198114610407576103e28382610bc5565b6001600160a01b03861660009081526005602090815260408083203384529091529020555b6001600160a01b0385166000908152600460205260408120805485929061042f908490610bc5565b90915550506001600160a01b0380851660008181526004602052604090819020805487019055519091871690600080516020610cb1833981519152906104789087815260200190565b60405180910390a3506001949350505050565b60007f000000000000000000000000000000000000000000000000000000000000000046146104c1576104bc610887565b905090565b507f000000000000000000000000000000000000000000000000000000000000000090565b6000546001600160a01b031633146105195760405162461bcd60e51b815260040161051090610bd8565b60405180910390fd5b6105238282610921565b5050565b600280546102bd90610b75565b6000546001600160a01b0316331461055e5760405162461bcd60e51b815260040161051090610bd8565b610523828261097b565b33600090815260046020526040812080548391908390610589908490610bc5565b90915550506001600160a01b03831660008181526004602052604090819020805485019055513390600080516020610cb1833981519152906103999086815260200190565b4284101561061e5760405162461bcd60e51b815260206004820152601760248201527f5045524d49545f444541444c494e455f455850495245440000000000000000006044820152606401610510565b6000600161062a61048b565b6001600160a01b038a811660008181526006602090815260409182902080546001810190915582517f6e71edae12b1b97f4d1f60370fef10105fa2faae0126114a169c64845d6126c98184015280840194909452938d166060840152608083018c905260a083019390935260c08083018b90528151808403909101815260e08301909152805192019190912061190160f01b6101008301526101028201929092526101228101919091526101420160408051601f198184030181528282528051602091820120600084529083018083525260ff871690820152606081018590526080810184905260a0016020604051602081039080840390855afa158015610736573d6000803e3d6000fd5b5050604051601f1901519150506001600160a01b0381161580159061076c5750876001600160a01b0316816001600160a01b0316145b6107a95760405162461bcd60e51b815260206004820152600e60248201526d24a72b20a624a22fa9a4a3a722a960911b6044820152606401610510565b6001600160a01b0390811660009081526005602090815260408083208a8516808552908352928190208990555188815291928a16917f8c5be1e5ebec7d5bd14f71427d1e84f3dd0314c0f7b2291e5b200ac8c7c3b925910160405180910390a350505050505050565b6000546001600160a01b0316331461083c5760405162461bcd60e51b815260040161051090610bd8565b600080546001600160a01b0319166001600160a01b0383169081178255604051909133917f8be0079c531659141344cd1fd0a4f28419497f9722a3daafe3b4186f6b6457e09190a350565b60007f8b73c3c69bb8fe3d512ecc4cf759cc79239f7b179b0ffacaa9a75d522b39400f60016040516108b99190610bfe565b6040805191829003822060208301939093528101919091527fc89efdaa54c0f20c7adf612882df0950f5a951637e0307cdcb4c672f298b8bc660608201524660808201523060a082015260c00160405160208183030381529060405280519060200120905090565b80600360008282546109339190610c9d565b90915550506001600160a01b038216600081815260046020908152604080832080548601905551848152600080516020610cb183398151915291015b60405180910390a35050565b6001600160a01b038216600090815260046020526040812080548392906109a3908490610bc5565b90915550506003805482900390556040518181526000906001600160a01b03841690600080516020610cb18339815191529060200161096f565b600060208083528351808285015260005b81811015610a0a578581018301518582016040015282016109ee565b506000604082860101526040601f19601f8301168501019250505092915050565b80356001600160a01b0381168114610a4257600080fd5b919050565b60008060408385031215610a5a57600080fd5b610a6383610a2b565b946020939093013593505050565b600080600060608486031215610a8657600080fd5b610a8f84610a2b565b9250610a9d60208501610a2b565b9150604084013590509250925092565b600060208284031215610abf57600080fd5b610ac882610a2b565b9392505050565b600080600080600080600060e0888a031215610aea57600080fd5b610af388610a2b565b9650610b0160208901610a2b565b95506040880135945060608801359350608088013560ff81168114610b2557600080fd5b9699959850939692959460a0840135945060c09093013592915050565b60008060408385031215610b5557600080fd5b610b5e83610a2b565b9150610b6c60208401610a2b565b90509250929050565b600181811c90821680610b8957607f821691505b602082108103610ba957634e487b7160e01b600052602260045260246000fd5b50919050565b634e487b7160e01b600052601160045260246000fd5b818103818111156103a5576103a5610baf565b6020808252600c908201526b15539055551213d49256915160a21b604082015260600190565b600080835481600182811c915080831680610c1a57607f831692505b60208084108203610c3957634e487b7160e01b86526022600452602486fd5b818015610c4d5760018114610c6257610c8f565b60ff1986168952841515850289019650610c8f565b60008a81526020902060005b86811015610c875781548b820152908501908301610c6e565b505084890196505b509498975050505050505050565b808201808211156103a5576103a5610baf56feddf252ad1be2c89b69c2b068fc378daa952ba7f163c4a11628f55a4df523b3efa26469706673582212208b005190790a178bc136dff01ebabc187cb4886c946f4db7d45c5c4efacdae9a64736f6c63430008150033",
    "linkReferences": {}
  },
  "methodIdentifiers": {
    "DOMAIN_SEPARATOR()": "3644e515",
    "allowance(address,address)": "dd62ed3e",
    "approve(address,uint256)": "095ea7b3",
    "balanceOf(address)": "70a08231",
    "burn(address,uint256)": "9dc29fac",
    "decimals()": "313ce567",
    "mint(address,uint256)": "40c10f19",
    "name()": "06fdde03",
    "nonces(address)": "7ecebe00",
    "owner()": "8da5cb5b",
    "permit(address,address,uint256,uint256,uint8,bytes32,bytes32)": "d505accf",
    "symbol()": "95d89b41",
    "totalSupply()": "18160ddd",
    "transfer(address,uint256)": "a9059cbb",
    "transferFrom(address,address,uint256)": "23b872dd",
    "transferOwnership(address)": "f2fde38b"
  },
  "id": 46
}