{
  "abi": [
    {
      "inputs": [
        {
          "internalType": "address",
          "name": "stablecoin",
          "type": "address"
        }
      ],
      "name": "getYieldHandler",
      "outputs": [
        {
          "internalType": "address",
          "name": "",
          "type": "address"
        }
      ],
      "stateMutability": "view",
      "type": "function"
    },
    {
      "inputs": [
        {
          "internalType": "address",
          "name": "stablecoin",
          "type": "address"
        },
        {
          "internalType": "address",
          "name": "handler",
          "type": "address"
        }
      ],
      "name": "setYieldHandler",
      "outputs": [],
      "stateMutability": "nonpayable",
      "type": "function"
    },
    {
      "inputs": [
        {
          "internalType": "address",
          "name": "",
          "type": "address"
        }
      ],
      "name": "yieldHandlers",
      "outputs": [
        {
          "internalType": "address",
          "name": "",
          "type": "address"
        }
      ],
      "stateMutability": "view",
      "type": "function"
    }
  ],
  "bytecode": {
    "object": "0x608060405234801561001057600080fd5b5061019c806100206000396000f3fe608060405234801561001057600080fd5b50600436106100415760003560e01c806344d28c75146100465780635f8d671c14610084578063f47a14fe146100cc575b600080fd5b610082610054366004610111565b6001600160a01b03918216600090815260208190526040902080546001600160a01b03191691909216179055565b005b6100b0610092366004610144565b6001600160a01b039081166000908152602081905260409020541690565b6040516001600160a01b03909116815260200160405180910390f35b6100b06100da366004610144565b6000602081905290815260409020546001600160a01b031681565b80356001600160a01b038116811461010c57600080fd5b919050565b6000806040838503121561012457600080fd5b61012d836100f5565b915061013b602084016100f5565b90509250929050565b60006020828403121561015657600080fd5b61015f826100f5565b939250505056fea2646970667358221220422c148233daa982d15dcd00cdee76e372fc881ce5b63cfadd801bc96c89b25064736f6c63430008150033",
    "linkReferences": {}
  },
  "methodIdentifiers": {
    "getYieldHandler(address)": "5f8d671c",
    "setYieldHandler(address,address)": "44d28c75",
    "yieldHandlers(address)": "f47a14fe"
  },
  "id": 23
}