{
  "abi": [
    {
      "inputs": [
        {
          "internalType": "address",
          "name": "_owner",
          "type": "address"
        },
        {
          "internalType": "address",
          "name": "_xUSDAddress",
          "type": "address"
        }
      ],
      "stateMutability": "nonpayable",
      "type": "constructor"
    },
    {
      "anonymous": false,
      "inputs": [
        {
          "indexed": true,
          "internalType": "address",
          "name": "user",
          "type": "address"
        },
        {
          "indexed": true,
          "internalType": "address",
          "name": "newOwner",
          "type": "address"
        }
      ],
      "name": "OwnershipTransferred",
      "type": "event"
    },
    {
      "inputs": [
        {
          "internalType": "uint256",
          "name": "_amount",
          "type": "uint256"
        },
        {
          "internalType": "address",
          "name": "_token",
          "type": "address"
        }
      ],
      "name": "burnAndRedeem",
      "outputs": [],
      "stateMutability": "nonpayable",
      "type": "function"
    },
    {
      "inputs": [],
      "name": "contractPaused",
      "outputs": [
        {
          "internalType": "bool",
          "name": "",
          "type": "bool"
        }
      ],
      "stateMutability": "view",
      "type": "function"
    },
    {
      "inputs": [
        {
          "internalType": "address",
          "name": "_token",
          "type": "address"
        },
        {
          "internalType": "uint256",
          "name": "_amount",
          "type": "uint256"
        }
      ],
      "name": "depositAndMint",
      "outputs": [],
      "stateMutability": "nonpayable",
      "type": "function"
    },
    {
      "inputs": [],
      "name": "owner",
      "outputs": [
        {
          "internalType": "address",
          "name": "",
          "type": "address"
        }
      ],
      "stateMutability": "view",
      "type": "function"
    },
    {
      "inputs": [
        {
          "internalType": "bool",
          "name": "_paused",
          "type": "bool"
        }
      ],
      "name": "pauseContract",
      "outputs": [],
      "stateMutability": "nonpayable",
      "type": "function"
    },
    {
      "inputs": [],
      "name": "reserveController",
      "outputs": [
        {
          "internalType": "contract ReserveController",
          "name": "",
          "type": "address"
        }
      ],
      "stateMutability": "view",
      "type": "function"
    },
    {
      "inputs": [
        {
          "internalType": "address",
          "name": "_contract",
          "type": "address"
        }
      ],
      "name": "setReserveController",
      "outputs": [],
      "stateMutability": "nonpayable",
      "type": "function"
    },
    {
      "inputs": [],
      "name": "totalReserves",
      "outputs": [
        {
          "internalType": "uint256",
          "name": "",
          "type": "uint256"
        }
      ],
      "stateMutability": "view",
      "type": "function"
    },
    {
      "inputs": [
        {
          "internalType": "address",
          "name": "newOwner",
          "type": "address"
        }
      ],
      "name": "transferOwnership",
      "outputs": [],
      "stateMutability": "nonpayable",
      "type": "function"
    },
    {
      "inputs": [],
      "name": "xUSDAddress",
      "outputs": [
        {
          "internalType": "address",
          "name": "",
          "type": "address"
        }
      ],
      "stateMutability": "view",
      "type": "function"
    }
  ],
  "bytecode": {
    "object": "0x608060405234801561001057600080fd5b50604051610e2e380380610e2e83398101604081905261002f916100cc565b600080546001600160a01b0319166001600160a01b03841690811782556040518492907f8be0079c531659141344cd1fd0a4f28419497f9722a3daafe3b4186f6b6457e0908290a350600480546001600160a01b039092166001600160a01b031990921682179055600280546001600160a81b0319169091179055506100ff565b80516001600160a01b03811681146100c757600080fd5b919050565b600080604083850312156100df57600080fd5b6100e8836100b0565b91506100f6602084016100b0565b90509250929050565b610d208061010e6000396000f3fe608060405234801561001057600080fd5b506004361061009e5760003560e01c80638f840ddd116100665780638f840ddd14610132578063c03e76a814610149578063d3148fb61461015c578063e272b8921461016f578063f2fde38b1461018257600080fd5b806348b8691c146100a35780634ade3712146100b8578063896609bc146100cb5780638a67456a146100fb5780638da5cb5b1461011f575b600080fd5b6100b66100b1366004610ab5565b610195565b005b6100b66100c6366004610ae5565b6106f4565b6004546100de906001600160a01b031681565b6040516001600160a01b0390911681526020015b60405180910390f35b60025461010f90600160a01b900460ff1681565b60405190151581526020016100f2565b6000546100de906001600160a01b031681565b61013b60035481565b6040519081526020016100f2565b6001546100de906001600160a01b031681565b6100b661016a366004610b09565b610740565b6100b661017d366004610b43565b6109e0565b6100b6610190366004610ae5565b610a28565b600160009054906101000a90046001600160a01b03166001600160a01b03166318e44e966040518163ffffffff1660e01b8152600401602060405180830381865afa1580156101e8573d6000803e3d6000fd5b505050506040513d601f19601f8201168201806040525081019061020c9190610b60565b15156001146102595760405162461bcd60e51b8152602060048201526014602482015273149959195b5c1d1a5bdb9cc8191a5cd8589b195960621b60448201526064015b60405180910390fd5b6004546001600160a01b038281169116146102b65760405162461bcd60e51b815260206004820152601a60248201527f596f752063616e742072656465656d207468617420746f6b656e0000000000006044820152606401610250565b600254604051632770a7eb60e21b8152336004820152602481018490526001600160a01b0390911690639dc29fac90604401600060405180830381600087803b15801561030257600080fd5b505af1158015610316573d6000803e3d6000fd5b505050506000600160009054906101000a90046001600160a01b03166001600160a01b031663587a39656040518163ffffffff1660e01b8152600401602060405180830381865afa15801561036f573d6000803e3d6000fd5b505050506040513d601f19601f820116820180604052508101906103939190610b7d565b905060008167ffffffffffffffff8111156103b0576103b0610b96565b6040519080825280602002602001820160405280156103d9578160200160208202803683370190505b5060015460405163da568fa560e01b8152600481018790526001600160a01b03868116602483015292935091169063da568fa590604401600060405180830381865afa15801561042d573d6000803e3d6000fd5b505050506040513d6000823e601f3d908101601f191682016040526104559190810190610bac565b905060005b600160009054906101000a90046001600160a01b03166001600160a01b031663587a39656040518163ffffffff1660e01b8152600401602060405180830381865afa1580156104ad573d6000803e3d6000fd5b505050506040513d601f19601f820116820180604052508101906104d19190610b7d565b8110156106ed5760015460405163571951b960e01b8152600481018390526001600160a01b039091169063571951b990602401602060405180830381865afa158015610521573d6000803e3d6000fd5b505050506040513d601f19601f820116820180604052508101906105459190610c6a565b6001600160a01b031663a9059cbb3384848151811061056657610566610c87565b60200260200101516040518363ffffffff1660e01b815260040161059f9291906001600160a01b03929092168252602082015260400190565b6020604051808303816000875af11580156105be573d6000803e3d6000fd5b505050506040513d601f19601f820116820180604052508101906105e29190610b60565b5060015460405163571951b960e01b8152600481018390526001600160a01b0390911690632d54f40490829063571951b990602401602060405180830381865afa158015610634573d6000803e3d6000fd5b505050506040513d601f19601f820116820180604052508101906106589190610c6a565b84848151811061066a5761066a610c87565b60209081029190910101516040516001600160e01b031960e085901b1681526001600160a01b039092166004830152602482015260006044820152606401600060405180830381600087803b1580156106c257600080fd5b505af11580156106d6573d6000803e3d6000fd5b5050505080806106e590610c9d565b91505061045a565b5050505050565b6000546001600160a01b0316331461071e5760405162461bcd60e51b815260040161025090610cc4565b600180546001600160a01b0319166001600160a01b0392909216919091179055565b600081116107905760405162461bcd60e51b815260206004820152601d60248201527f416d6f756e74206d7573742062652067726561746572207468616e20300000006044820152606401610250565b600254600160a01b900460ff16156107dd5760405162461bcd60e51b815260206004820152601060248201526f14de5cdd195b481a5cc81a185b1d195960821b6044820152606401610250565b60015460405163ae68263d60e01b81526001600160a01b038481166004830152602482018490529091169063ae68263d90604401602060405180830381865afa15801561082e573d6000803e3d6000fd5b505050506040513d601f19601f820116820180604052508101906108529190610b60565b15156001146108925760405162461bcd60e51b815260206004820152600c60248201526b10d85b9d0819195c1bdcda5d60a21b6044820152606401610250565b6040516323b872dd60e01b8152336004820152306024820152604481018290526001600160a01b038316906323b872dd906064016020604051808303816000875af11580156108e5573d6000803e3d6000fd5b505050506040513d601f19601f820116820180604052508101906109099190610b60565b506002546040516340c10f1960e01b8152336004820152602481018390526001600160a01b03909116906340c10f1990604401600060405180830381600087803b15801561095657600080fd5b505af115801561096a573d6000803e3d6000fd5b505060018054604051630b553d0160e21b81526001600160a01b03878116600483015260248201879052604482019390935291169250632d54f4049150606401600060405180830381600087803b1580156109c457600080fd5b505af11580156109d8573d6000803e3d6000fd5b505050505050565b6000546001600160a01b03163314610a0a5760405162461bcd60e51b815260040161025090610cc4565b60028054911515600160a01b0260ff60a01b19909216919091179055565b6000546001600160a01b03163314610a525760405162461bcd60e51b815260040161025090610cc4565b600080546001600160a01b0319166001600160a01b0383169081178255604051909133917f8be0079c531659141344cd1fd0a4f28419497f9722a3daafe3b4186f6b6457e09190a350565b6001600160a01b0381168114610ab257600080fd5b50565b60008060408385031215610ac857600080fd5b823591506020830135610ada81610a9d565b809150509250929050565b600060208284031215610af757600080fd5b8135610b0281610a9d565b9392505050565b60008060408385031215610b1c57600080fd5b8235610b2781610a9d565b946020939093013593505050565b8015158114610ab257600080fd5b600060208284031215610b5557600080fd5b8135610b0281610b35565b600060208284031215610b7257600080fd5b8151610b0281610b35565b600060208284031215610b8f57600080fd5b5051919050565b634e487b7160e01b600052604160045260246000fd5b60006020808385031215610bbf57600080fd5b825167ffffffffffffffff80821115610bd757600080fd5b818501915085601f830112610beb57600080fd5b815181811115610bfd57610bfd610b96565b8060051b604051601f19603f83011681018181108582111715610c2257610c22610b96565b604052918252848201925083810185019188831115610c4057600080fd5b938501935b82851015610c5e57845184529385019392850192610c45565b98975050505050505050565b600060208284031215610c7c57600080fd5b8151610b0281610a9d565b634e487b7160e01b600052603260045260246000fd5b600060018201610cbd57634e487b7160e01b600052601160045260246000fd5b5060010190565b6020808252600c908201526b15539055551213d49256915160a21b60408201526060019056fea264697066735822122003d41dd5187d5db646db2b78034baf4a48b5e9d120ae966575e51ba4885b094c64736f6c63430008140033",
    "linkReferences": {}
  },
  "methodIdentifiers": {
    "burnAndRedeem(uint256,address)": "48b8691c",
    "contractPaused()": "8a67456a",
    "depositAndMint(address,uint256)": "d3148fb6",
    "owner()": "8da5cb5b",
    "pauseContract(bool)": "e272b892",
    "reserveController()": "c03e76a8",
    "setReserveController(address)": "4ade3712",
    "totalReserves()": "8f840ddd",
    "transferOwnership(address)": "f2fde38b",
    "xUSDAddress()": "896609bc"
  },
  "id": 37
}