{
  "abi": [
    {
      "inputs": [
        {
          "internalType": "uint256",
          "name": "_excessAmount",
          "type": "uint256"
        },
        {
          "internalType": "uint256",
          "name": "_percentage",
          "type": "uint256"
        }
      ],
      "name": "calculateUserExcess",
      "outputs": [
        {
          "internalType": "uint256",
          "name": "",
          "type": "uint256"
        }
      ],
      "stateMutability": "pure",
      "type": "function"
    },
    {
      "inputs": [
        {
          "internalType": "address",
          "name": "_token",
          "type": "address"
        },
        {
          "internalType": "uint256",
          "name": "_amount",
          "type": "uint256"
        }
      ],
      "name": "depositERC20",
      "outputs": [],
      "stateMutability": "nonpayable",
      "type": "function"
    },
    {
      "inputs": [],
      "name": "depositETH",
      "outputs": [],
      "stateMutability": "payable",
      "type": "function"
    },
    {
      "inputs": [],
      "name": "depositedDAI",
      "outputs": [
        {
          "internalType": "uint256",
          "name": "",
          "type": "uint256"
        }
      ],
      "stateMutability": "view",
      "type": "function"
    },
    {
      "inputs": [],
      "name": "depositedEUSD",
      "outputs": [
        {
          "internalType": "uint256",
          "name": "",
          "type": "uint256"
        }
      ],
      "stateMutability": "view",
      "type": "function"
    },
    {
      "inputs": [],
      "name": "depositedEther",
      "outputs": [
        {
          "internalType": "uint256",
          "name": "",
          "type": "uint256"
        }
      ],
      "stateMutability": "view",
      "type": "function"
    },
    {
      "inputs": [],
      "name": "depositedUSDC",
      "outputs": [
        {
          "internalType": "uint256",
          "name": "",
          "type": "uint256"
        }
      ],
      "stateMutability": "view",
      "type": "function"
    },
    {
      "inputs": [],
      "name": "getSaleEndBlock",
      "outputs": [
        {
          "internalType": "uint256",
          "name": "",
          "type": "uint256"
        }
      ],
      "stateMutability": "view",
      "type": "function"
    },
    {
      "inputs": [],
      "name": "saleDuration",
      "outputs": [
        {
          "internalType": "uint256",
          "name": "",
          "type": "uint256"
        }
      ],
      "stateMutability": "view",
      "type": "function"
    },
    {
      "inputs": [],
      "name": "saleERCSoftCap",
      "outputs": [
        {
          "internalType": "uint256",
          "name": "",
          "type": "uint256"
        }
      ],
      "stateMutability": "view",
      "type": "function"
    },
    {
      "inputs": [],
      "name": "saleETHSoftCap",
      "outputs": [
        {
          "internalType": "uint256",
          "name": "",
          "type": "uint256"
        }
      ],
      "stateMutability": "view",
      "type": "function"
    },
    {
      "inputs": [],
      "name": "salePaused",
      "outputs": [
        {
          "internalType": "bool",
          "name": "",
          "type": "bool"
        }
      ],
      "stateMutability": "view",
      "type": "function"
    },
    {
      "inputs": [],
      "name": "saleStart",
      "outputs": [
        {
          "internalType": "uint256",
          "name": "",
          "type": "uint256"
        }
      ],
      "stateMutability": "view",
      "type": "function"
    },
    {
      "inputs": [],
      "name": "saleStarted",
      "outputs": [
        {
          "internalType": "bool",
          "name": "",
          "type": "bool"
        }
      ],
      "stateMutability": "view",
      "type": "function"
    },
    {
      "inputs": [],
      "name": "startSale",
      "outputs": [],
      "stateMutability": "nonpayable",
      "type": "function"
    },
    {
      "inputs": [
        {
          "internalType": "address",
          "name": "",
          "type": "address"
        }
      ],
      "name": "userDepositedDAI",
      "outputs": [
        {
          "internalType": "uint256",
          "name": "",
          "type": "uint256"
        }
      ],
      "stateMutability": "view",
      "type": "function"
    },
    {
      "inputs": [
        {
          "internalType": "address",
          "name": "",
          "type": "address"
        }
      ],
      "name": "userDepositedETH",
      "outputs": [
        {
          "internalType": "uint256",
          "name": "",
          "type": "uint256"
        }
      ],
      "stateMutability": "view",
      "type": "function"
    },
    {
      "inputs": [
        {
          "internalType": "address",
          "name": "",
          "type": "address"
        }
      ],
      "name": "userDepositedEUSD",
      "outputs": [
        {
          "internalType": "uint256",
          "name": "",
          "type": "uint256"
        }
      ],
      "stateMutability": "view",
      "type": "function"
    },
    {
      "inputs": [
        {
          "internalType": "address",
          "name": "",
          "type": "address"
        }
      ],
      "name": "userDepositedUSDC",
      "outputs": [
        {
          "internalType": "uint256",
          "name": "",
          "type": "uint256"
        }
      ],
      "stateMutability": "view",
      "type": "function"
    },
    {
      "inputs": [],
      "name": "withdrawExcessERC20",
      "outputs": [],
      "stateMutability": "nonpayable",
      "type": "function"
    },
    {
      "inputs": [],
      "name": "withdrawExcessETH",
      "outputs": [],
      "stateMutability": "nonpayable",
      "type": "function"
    }
  ],
  "bytecode": {
    "object": "0x60806040526096600155600380546001600160a01b031990811673bb526c1f7a1e1730cee790dbe1026137b54c6c55179091556004805482167352410d0c2f01a9fa7b6dab445215187d30f22d5f17905560058054909116738ee9775ed9a87024953f7c0a15c6ca8a62d5114c179055655af3107a40006010556934f086f3b33b6840000060115534801561009357600080fd5b50611165806100a36000396000f3fe60806040526004361061012a5760003560e01c806397feb926116100ab578063c8210ab11161006f578063c8210ab1146102f7578063e97abc5914610324578063f6326fb314610339578063f6fdaa6214610341578063fecbf16114610357578063ffc77aec1461037757600080fd5b806397feb926146102685780639cebf9c51461028a578063ab0bcc411461029f578063b66a0e5d146102b5578063b97e7d6c146102ca57600080fd5b80635d08c1ae116100f25780635d08c1ae146101f2578063684d6ff9146102115780636d24054714610227578063821620541461023c5780638d103cde1461025257600080fd5b80633711d9fb1461012f57806347023b06146101585780635561a530146101855780635bf9dbe31461019b5780635c474f9e146101c8575b600080fd5b34801561013b57600080fd5b5061014560015481565b6040519081526020015b60405180910390f35b34801561016457600080fd5b5061014561017336600461102a565b60086020526000908152604090205481565b34801561019157600080fd5b50610145600f5481565b3480156101a757600080fd5b506101456101b636600461102a565b60096020526000908152604090205481565b3480156101d457600080fd5b506000546101e29060ff1681565b604051901515815260200161014f565b3480156101fe57600080fd5b506000546101e290610100900460ff1681565b34801561021d57600080fd5b5061014560115481565b34801561023357600080fd5b5061014561038d565b34801561024857600080fd5b50610145600d5481565b34801561025e57600080fd5b50610145600c5481565b34801561027457600080fd5b50610288610283366004611045565b6103a4565b005b34801561029657600080fd5b50610288610730565b3480156102ab57600080fd5b5061014560025481565b3480156102c157600080fd5b50610288610974565b3480156102d657600080fd5b506101456102e536600461102a565b60066020526000908152604090205481565b34801561030357600080fd5b5061014561031236600461102a565b60076020526000908152604090205481565b34801561033057600080fd5b50610288610992565b610288610e68565b34801561034d57600080fd5b5061014560105481565b34801561036357600080fd5b5061014561037236600461106f565b610fed565b34801561038357600080fd5b50610145600e5481565b600060015460025461039f91906110a7565b905090565b60005460ff1615156001146103fb5760405162461bcd60e51b815260206004820152601860248201527714d85b19481a185cc81b9bdd081cdd185c9d1959081e595d60421b60448201526064015b60405180910390fd5b60015460025461040b91906110a7565b421061044a5760405162461bcd60e51b815260206004820152600e60248201526d14d95b1b081a185cc8195b99195960921b60448201526064016103f2565b680d8d726b7177a8000081116104995760405162461bcd60e51b815260206004820152601460248201527304d696e696d756d206465706f7369743a203235360641b60448201526064016103f2565b6003546001600160a01b03838116911614806104c257506004546001600160a01b038381169116145b806104da57506005546001600160a01b038381169116145b1561072c576003546001600160a01b03908116908316036105b0576040516323b872dd60e01b8152336004820152306024820152604481018290526001600160a01b038316906323b872dd906064016020604051808303816000875af1158015610548573d6000803e3d6000fd5b505050506040513d601f19601f8201168201806040525081019061056c91906110ba565b50336000908152600860205260408120805483929061058c9084906110a7565b9250508190555080600d60008282546105a591906110a7565b9091555061072c9050565b6004546001600160a01b0390811690831603610676576040516323b872dd60e01b8152336004820152306024820152604481018290526001600160a01b038316906323b872dd906064016020604051808303816000875af1158015610619573d6000803e3d6000fd5b505050506040513d601f19601f8201168201806040525081019061063d91906110ba565b50336000908152600760205260408120805483929061065d9084906110a7565b9250508190555080600e60008282546105a591906110a7565b6040516323b872dd60e01b8152336004820152306024820152604481018290526001600160a01b038316906323b872dd906064016020604051808303816000875af11580156106c9573d6000803e3d6000fd5b505050506040513d601f19601f820116820180604052508101906106ed91906110ba565b50336000908152600960205260408120805483929061070d9084906110a7565b9250508190555080600f600082825461072691906110a7565b90915550505b5050565b60005460ff1615156001146107825760405162461bcd60e51b815260206004820152601860248201527714d95b1b081a185cc81b9bdd081cdd185c9d1959081e595d60421b60448201526064016103f2565b60015460025461079291906110a7565b42116107d95760405162461bcd60e51b815260206004820152601660248201527514d85b19481a185cc81b9bdd08195b991959081e595d60521b60448201526064016103f2565b601054600c541161082c5760405162461bcd60e51b815260206004820152601960248201527f4e6f206578636573732045544820746f2077697468647261770000000000000060448201526064016103f2565b3360009081526006602052604090205461087d5760405162461bcd60e51b81526020600482015260126024820152714e6f2045544820746f20776974686472617760701b60448201526064016103f2565b336000908152600a602052604090205460ff16156108d85760405162461bcd60e51b81526020600482015260186024820152774e6f7468696e67206c65667420746f20776974686472617760401b60448201526064016103f2565b6000601054600c546108ea91906110e3565b600c54336000908152600660205260408120549293509161090b91906110f6565b610916906064611118565b905060006109248383610fed565b604051909150339082156108fc029083906000818181858888f19350505050158015610954573d6000803e3d6000fd5b5050336000908152600a60205260409020805460ff191660011790555050565b60025460000361099057426002556000805460ff191660011790555b565b60005460ff1615156001146109e45760405162461bcd60e51b815260206004820152601860248201527714d95b1b081a185cc81b9bdd081cdd185c9d1959081e595d60421b60448201526064016103f2565b6001546002546109f491906110a7565b4211610a3b5760405162461bcd60e51b815260206004820152601660248201527514d85b19481a185cc81b9bdd08195b991959081e595d60521b60448201526064016103f2565b336000908152600b602052604090205460ff1615610a965760405162461bcd60e51b81526020600482015260186024820152774e6f7468696e67206c65667420746f20776974686472617760401b60448201526064016103f2565b3360009081526008602052604090205415610bd157601154600d5411610afe5760405162461bcd60e51b815260206004820152601a60248201527f4e6f20657863657373206555534420746f20776974686472617700000000000060448201526064016103f2565b6000601154600d54610b1091906110e3565b600d543360009081526008602052604081205492935091610b3191906110f6565b610b3c906064611118565b905060006064610b4c8385611118565b610b5691906110f6565b60035460405163a9059cbb60e01b8152336004820152602481018390529192506001600160a01b03169063a9059cbb906044016020604051808303816000875af1158015610ba8573d6000803e3d6000fd5b505050506040513d601f19601f82011682018060405250810190610bcc91906110ba565b505050505b3360009081526007602052604090205415610d1157601154600e5411610c395760405162461bcd60e51b815260206004820152601960248201527f4e6f206578636573732044414920746f2077697468647261770000000000000060448201526064016103f2565b6000601154600e54610c4b91906110e3565b600e543360009081526007602052604081205492935091610c6c91906110f6565b610c77906064611118565b905060006064610c878385611118565b610c9191906110f6565b6004805460405163a9059cbb60e01b81523392810192909252602482018390529192506001600160a01b039091169063a9059cbb906044016020604051808303816000875af1158015610ce8573d6000803e3d6000fd5b505050506040513d601f19601f82011682018060405250810190610d0c91906110ba565b505050505b3360009081526009602052604090205415610e4c57601154600f5411610d795760405162461bcd60e51b815260206004820152601a60248201527f4e6f20657863657373205553444320746f20776974686472617700000000000060448201526064016103f2565b6000601154600f54610d8b91906110e3565b600f543360009081526009602052604081205492935091610dac91906110f6565b610db7906064611118565b905060006064610dc78385611118565b610dd191906110f6565b60055460405163a9059cbb60e01b8152336004820152602481018390529192506001600160a01b03169063a9059cbb906044016020604051808303816000875af1158015610e23573d6000803e3d6000fd5b505050506040513d601f19601f82011682018060405250810190610e4791906110ba565b505050505b336000908152600b60205260409020805460ff19166001179055565b60005460ff161515600114610eba5760405162461bcd60e51b815260206004820152601860248201527714d85b19481a185cc81b9bdd081cdd185c9d1959081e595d60421b60448201526064016103f2565b600154600254610eca91906110a7565b4210610f095760405162461bcd60e51b815260206004820152600e60248201526d14d95b1b081a185cc8195b99195960921b60448201526064016103f2565b60003411610f595760405162461bcd60e51b815260206004820152601d60248201527f616d6f756e74206d7573742062652067726561746572207468616e203000000060448201526064016103f2565b6509184e72a0003411610fae5760405162461bcd60e51b815260206004820152601860248201527f4d696e696d756d206465706f7369743a20302e3120455448000000000000000060448201526064016103f2565b3360009081526006602052604081208054349290610fcd9084906110a7565b9250508190555034600c6000828254610fe691906110a7565b9091555050565b60006064610ffb8385611118565b61100591906110f6565b90505b92915050565b80356001600160a01b038116811461102557600080fd5b919050565b60006020828403121561103c57600080fd5b6110058261100e565b6000806040838503121561105857600080fd5b6110618361100e565b946020939093013593505050565b6000806040838503121561108257600080fd5b50508035926020909101359150565b634e487b7160e01b600052601160045260246000fd5b8082018082111561100857611008611091565b6000602082840312156110cc57600080fd5b815180151581146110dc57600080fd5b9392505050565b8181038181111561100857611008611091565b60008261111357634e487b7160e01b600052601260045260246000fd5b500490565b80820281158282048414176110085761100861109156fea2646970667358221220db34f990436defd3e6031309ce0011997029f25857b9e1460f3249c700a5cab764736f6c63430008150033",
    "linkReferences": {}
  },
  "methodIdentifiers": {
    "calculateUserExcess(uint256,uint256)": "fecbf161",
    "depositERC20(address,uint256)": "97feb926",
    "depositETH()": "f6326fb3",
    "depositedDAI()": "ffc77aec",
    "depositedEUSD()": "82162054",
    "depositedEther()": "8d103cde",
    "depositedUSDC()": "5561a530",
    "getSaleEndBlock()": "6d240547",
    "saleDuration()": "3711d9fb",
    "saleERCSoftCap()": "684d6ff9",
    "saleETHSoftCap()": "f6fdaa62",
    "salePaused()": "5d08c1ae",
    "saleStart()": "ab0bcc41",
    "saleStarted()": "5c474f9e",
    "startSale()": "b66a0e5d",
    "userDepositedDAI(address)": "c8210ab1",
    "userDepositedETH(address)": "b97e7d6c",
    "userDepositedEUSD(address)": "47023b06",
    "userDepositedUSDC(address)": "5bf9dbe3",
    "withdrawExcessERC20()": "e97abc59",
    "withdrawExcessETH()": "9cebf9c5"
  },
  "id": 21
}