{
  "abi": [
    {
      "inputs": [],
      "name": "getAccumulatedYield",
      "outputs": [
        {
          "internalType": "uint256",
          "name": "",
          "type": "uint256"
        }
      ],
      "stateMutability": "pure",
      "type": "function"
    },
    {
      "inputs": [],
      "name": "getNumber",
      "outputs": [
        {
          "internalType": "uint256",
          "name": "",
          "type": "uint256"
        }
      ],
      "stateMutability": "view",
      "type": "function"
    },
    {
      "inputs": [],
      "name": "number",
      "outputs": [
        {
          "internalType": "uint256",
          "name": "",
          "type": "uint256"
        }
      ],
      "stateMutability": "view",
      "type": "function"
    },
    {
      "inputs": [
        {
          "internalType": "uint256",
          "name": "_number",
          "type": "uint256"
        }
      ],
      "name": "setNumber",
      "outputs": [],
      "stateMutability": "nonpayable",
      "type": "function"
    }
  ],
  "bytecode": {
    "object": "0x60806040526402543d772a60005534801561001957600080fd5b5060d4806100286000396000f3fe6080604052348015600f57600080fd5b506004361060465760003560e01c80633fb5c1cb14604b5780638381f58a14605d578063bbde8be0146077578063f2c9ecd814607f575b600080fd5b605b60563660046086565b600055565b005b606560005481565b60405190815260200160405180910390f35b623b1c516065565b6000546065565b600060208284031215609757600080fd5b503591905056fea26469706673582212204e9d6425321fd8647719bd98f69461d100bb09608c75aff4c0fb53175b337eac64736f6c63430008140033",
    "linkReferences": {}
  },
  "methodIdentifiers": {
    "getAccumulatedYield()": "bbde8be0",
    "getNumber()": "f2c9ecd8",
    "number()": "8381f58a",
    "setNumber(uint256)": "3fb5c1cb"
  },
  "id": 6
}