{
  "abi": [
    {
      "inputs": [],
      "name": "currentEpoch",
      "outputs": [
        {
          "internalType": "uint256",
          "name": "",
          "type": "uint256"
        }
      ],
      "stateMutability": "view",
      "type": "function"
    },
    {
      "inputs": [],
      "name": "epochDuration",
      "outputs": [
        {
          "internalType": "uint256",
          "name": "",
          "type": "uint256"
        }
      ],
      "stateMutability": "view",
      "type": "function"
    },
    {
      "inputs": [],
      "name": "pauseStaking",
      "outputs": [],
      "stateMutability": "nonpayable",
      "type": "function"
    },
    {
      "inputs": [
        {
          "internalType": "uint256",
          "name": "_amount",
          "type": "uint256"
        }
      ],
      "name": "stakeKEI",
      "outputs": [],
      "stateMutability": "nonpayable",
      "type": "function"
    },
    {
      "inputs": [
        {
          "internalType": "address",
          "name": "",
          "type": "address"
        }
      ],
      "name": "stakers",
      "outputs": [
        {
          "internalType": "uint256",
          "name": "stakeAmount",
          "type": "uint256"
        },
        {
          "internalType": "uint256",
          "name": "depositEpoch",
          "type": "uint256"
        }
      ],
      "stateMutability": "view",
      "type": "function"
    },
    {
      "inputs": [],
      "name": "stakingPaused",
      "outputs": [
        {
          "internalType": "bool",
          "name": "",
          "type": "bool"
        }
      ],
      "stateMutability": "view",
      "type": "function"
    },
    {
      "inputs": [],
      "name": "stakingStart",
      "outputs": [
        {
          "internalType": "uint256",
          "name": "",
          "type": "uint256"
        }
      ],
      "stateMutability": "view",
      "type": "function"
    },
    {
      "inputs": [],
      "name": "startStaking",
      "outputs": [],
      "stateMutability": "nonpayable",
      "type": "function"
    },
    {
      "inputs": [
        {
          "internalType": "uint256",
          "name": "",
          "type": "uint256"
        }
      ],
      "name": "totalPoolSizePerEpoch",
      "outputs": [
        {
          "internalType": "uint256",
          "name": "",
          "type": "uint256"
        }
      ],
      "stateMutability": "view",
      "type": "function"
    },
    {
      "inputs": [
        {
          "internalType": "uint256",
          "name": "",
          "type": "uint256"
        }
      ],
      "name": "totalYieldPerEpoch",
      "outputs": [
        {
          "internalType": "uint256",
          "name": "",
          "type": "uint256"
        }
      ],
      "stateMutability": "view",
      "type": "function"
    },
    {
      "inputs": [
        {
          "internalType": "uint256",
          "name": "_amount",
          "type": "uint256"
        },
        {
          "internalType": "bool",
          "name": "_forfeit",
          "type": "bool"
        }
      ],
      "name": "unstakeKEI",
      "outputs": [],
      "stateMutability": "nonpayable",
      "type": "function"
    }
  ],
  "bytecode": {
    "object": "0x6080604052600080546001600160a01b031990811673f43e6f98c9f89b032f369742a331911b4d2c4e651782556001805490911673d26800a483a3a7181464023ea19882d5e1c962f417905560035561012c60045534801561006057600080fd5b50610ae8806100706000396000f3fe608060405234801561001057600080fd5b50600436106100a95760003560e01c8063766718081161007157806376671808146101275780639168ae7214610130578063bbb781cc1461016c578063d771b0a614610189578063f999c50614610192578063fd24b5591461019a57600080fd5b806311d5911a146100ae5780631eb3f0bb146100e157806330f59760146101015780634ff0876a1461011657806371b0cbfa1461011f575b600080fd5b6100ce6100bc36600461095e565b60076020526000908152604090205481565b6040519081526020015b60405180910390f35b6100ce6100ef36600461095e565b60086020526000908152604090205481565b61011461010f36600461095e565b6101ad565b005b6100ce60045481565b6101146102fd565b6100ce60035481565b61015761013e366004610977565b6009602052600090815260409020805460019091015482565b604080519283526020830191909152016100d8565b6006546101799060ff1681565b60405190151581526020016100d8565b6100ce60025481565b61011461039a565b6101146101a83660046109b8565b6103bf565b60648110156102035760405162461bcd60e51b815260206004820152601a60248201527f4d696e696d756d206465706f73697420697320333030204b454900000000000060448201526064015b60405180910390fd5b33600090815260096020526040902061021a61068a565b805460000361022c5760035460018201555b8181600001600082825461024091906109fe565b925050819055508160086000600354600161025b91906109fe565b8152602001908152602001600020600082825461027891906109fe565b90915550506000546040516323b872dd60e01b8152336004820152306024820152604481018490526001600160a01b03909116906323b872dd906064016020604051808303816000875af11580156102d4573d6000803e3d6000fd5b505050506040513d601f19601f820116820180604052508101906102f89190610a17565b505050565b600160009054906101000a90046001600160a01b03166001600160a01b0316637b07882e6040518163ffffffff1660e01b81526004016020604051808303816000875af1158015610352573d6000803e3d6000fd5b505050506040513d601f19601f820116820180604052508101906103769190610a34565b6005554260025560038054600191906000906103939084906109fe565b9091555050565b60065460ff16156103b0576006805460ff191690555b6006805460ff19166001179055565b3360009081526009602052604090208261041b5760405162461bcd60e51b815260206004820152601d60248201527f416d6f756e74206d7573742062652067726561746572207468616e203000000060448201526064016101fa565b805483111561046c5760405162461bcd60e51b815260206004820152601960248201527f496e73756666696369656e74207374616b6520616d6f756e740000000000000060448201526064016101fa565b61047461068a565b600061047f336106ec565b905082806104935750610491816107b9565b155b1561055257838260000160008282546104ac9190610a4d565b9091555050600354600090815260086020526040812080548692906104d2908490610a4d565b909155505060005460405163a9059cbb60e01b8152336004820152602481018690526001600160a01b039091169063a9059cbb906044016020604051808303816000875af1158015610528573d6000803e3d6000fd5b505050506040513d601f19601f8201168201806040525081019061054c9190610a17565b50610684565b838260000160008282546105669190610a4d565b90915550506003546000908152600860205260408120805486929061058c908490610a4d565b90915550506000546040516340c10f1960e01b8152306004820152602481018390526001600160a01b03909116906340c10f1990604401600060405180830381600087803b1580156105dd57600080fd5b505af11580156105f1573d6000803e3d6000fd5b50506000546001600160a01b0316915063a9059cbb90503361061384886109fe565b6040516001600160e01b031960e085901b1681526001600160a01b03909216600483015260248201526044016020604051808303816000875af115801561065e573d6000803e3d6000fd5b505050506040513d601f19601f820116820180604052508101906106829190610a17565b505b50505050565b60006002544261069a9190610a4d565b90506000600454826106ac9190610a60565b6106b79060016109fe565b90506003548111156106e85760006106cd6108c4565b60038054600090815260076020526040902091909155829055505b5050565b6001600160a01b0381166000908152600960209081526040808320815180830190925280548252600101549181018290529082905b6003548110156107b157600081815260076020908152604080832054600890925290912054801561079c578451600090829061076590670de0b6b3a7640000610a82565b61076f9190610a60565b9050670de0b6b3a76400006107848285610a82565b61078e9190610a60565b61079890866109fe565b9450505b505080806107a990610a99565b915050610721565b509392505050565b6000808260008054906101000a90046001600160a01b03166001600160a01b03166318160ddd6040518163ffffffff1660e01b8152600401602060405180830381865afa15801561080e573d6000803e3d6000fd5b505050506040513d601f19601f820116820180604052508101906108329190610a34565b61083c91906109fe565b90506000600160009054906101000a90046001600160a01b03166001600160a01b031663242693d36040518163ffffffff1660e01b81526004016020604051808303816000875af1158015610895573d6000803e3d6000fd5b505050506040513d601f19601f820116820180604052508101906108b99190610a34565b909111159392505050565b600080600160009054906101000a90046001600160a01b03166001600160a01b0316637b07882e6040518163ffffffff1660e01b81526004016020604051808303816000875af115801561091c573d6000803e3d6000fd5b505050506040513d601f19601f820116820180604052508101906109409190610a34565b90506000600554826109529190610a4d565b60059290925550919050565b60006020828403121561097057600080fd5b5035919050565b60006020828403121561098957600080fd5b81356001600160a01b03811681146109a057600080fd5b9392505050565b80151581146109b557600080fd5b50565b600080604083850312156109cb57600080fd5b8235915060208301356109dd816109a7565b809150509250929050565b634e487b7160e01b600052601160045260246000fd5b80820180821115610a1157610a116109e8565b92915050565b600060208284031215610a2957600080fd5b81516109a0816109a7565b600060208284031215610a4657600080fd5b5051919050565b81810381811115610a1157610a116109e8565b600082610a7d57634e487b7160e01b600052601260045260246000fd5b500490565b8082028115828204841417610a1157610a116109e8565b600060018201610aab57610aab6109e8565b506001019056fea26469706673582212208c0dadd5320f4845b8284f38e806acb9de1e1456fda72b8a39e0c647dbc8830964736f6c63430008150033",
    "linkReferences": {}
  },
  "methodIdentifiers": {
    "currentEpoch()": "76671808",
    "epochDuration()": "4ff0876a",
    "pauseStaking()": "f999c506",
    "stakeKEI(uint256)": "30f59760",
    "stakers(address)": "9168ae72",
    "stakingPaused()": "bbb781cc",
    "stakingStart()": "d771b0a6",
    "startStaking()": "71b0cbfa",
    "totalPoolSizePerEpoch(uint256)": "1eb3f0bb",
    "totalYieldPerEpoch(uint256)": "11d5911a",
    "unstakeKEI(uint256,bool)": "fd24b559"
  },
  "id": 22
}