{
  "abi": [
    {
      "inputs": [
        {
          "internalType": "uint256",
          "name": "_amount",
          "type": "uint256"
        }
      ],
      "name": "depositDai",
      "outputs": [],
      "stateMutability": "nonpayable",
      "type": "function"
    },
    {
      "inputs": [],
      "name": "sDAIContract",
      "outputs": [
        {
          "internalType": "contract SavingsDai",
          "name": "",
          "type": "address"
        }
      ],
      "stateMutability": "view",
      "type": "function"
    },
    {
      "inputs": [
        {
          "internalType": "address",
          "name": "_contract",
          "type": "address"
        }
      ],
      "name": "setContract",
      "outputs": [],
      "stateMutability": "nonpayable",
      "type": "function"
    }
  ],
  "bytecode": {
    "object": "0x608060405234801561001057600080fd5b506101cb806100206000396000f3fe608060405234801561001057600080fd5b50600436106100415760003560e01c806335842f741461004657806375f890ab1461005b578063b08f28051461008b575b600080fd5b610059610054366004610133565b6100ba565b005b61005961006936600461014c565b600080546001600160a01b0319166001600160a01b0392909216919091179055565b60005461009e906001600160a01b031681565b6040516001600160a01b03909116815260200160405180910390f35b600054604051636e553f6560e01b8152600481018390523360248201526001600160a01b0390911690636e553f65906044016020604051808303816000875af115801561010b573d6000803e3d6000fd5b505050506040513d601f19601f8201168201806040525081019061012f919061017c565b5050565b60006020828403121561014557600080fd5b5035919050565b60006020828403121561015e57600080fd5b81356001600160a01b038116811461017557600080fd5b9392505050565b60006020828403121561018e57600080fd5b505191905056fea26469706673582212202ae09c609f832aaa16517ac30b0e459812d57b6a8f5a17b28ea6ef371a6c83a664736f6c63430008140033",
    "linkReferences": {}
  },
  "methodIdentifiers": {
    "depositDai(uint256)": "35842f74",
    "sDAIContract()": "b08f2805",
    "setContract(address)": "75f890ab"
  },
  "id": 16
}