{
  "abi": [
    {
      "inputs": [
        {
          "internalType": "address",
          "name": "initialOwner",
          "type": "address"
        }
      ],
      "stateMutability": "nonpayable",
      "type": "constructor"
    },
    {
      "anonymous": false,
      "inputs": [
        {
          "indexed": true,
          "internalType": "address",
          "name": "owner",
          "type": "address"
        },
        {
          "indexed": true,
          "internalType": "address",
          "name": "spender",
          "type": "address"
        },
        {
          "indexed": false,
          "internalType": "uint256",
          "name": "amount",
          "type": "uint256"
        }
      ],
      "name": "Approval",
      "type": "event"
    },
    {
      "anonymous": false,
      "inputs": [
        {
          "indexed": true,
          "internalType": "address",
          "name": "user",
          "type": "address"
        },
        {
          "indexed": true,
          "internalType": "address",
          "name": "newOwner",
          "type": "address"
        }
      ],
      "name": "OwnershipTransferred",
      "type": "event"
    },
    {
      "anonymous": false,
      "inputs": [
        {
          "indexed": true,
          "internalType": "address",
          "name": "from",
          "type": "address"
        },
        {
          "indexed": true,
          "internalType": "address",
          "name": "to",
          "type": "address"
        },
        {
          "indexed": false,
          "internalType": "uint256",
          "name": "amount",
          "type": "uint256"
        }
      ],
      "name": "Transfer",
      "type": "event"
    },
    {
      "inputs": [],
      "name": "DOMAIN_SEPARATOR",
      "outputs": [
        {
          "internalType": "bytes32",
          "name": "",
          "type": "bytes32"
        }
      ],
      "stateMutability": "view",
      "type": "function"
    },
    {
      "inputs": [
        {
          "internalType": "address",
          "name": "",
          "type": "address"
        },
        {
          "internalType": "address",
          "name": "",
          "type": "address"
        }
      ],
      "name": "allowance",
      "outputs": [
        {
          "internalType": "uint256",
          "name": "",
          "type": "uint256"
        }
      ],
      "stateMutability": "view",
      "type": "function"
    },
    {
      "inputs": [
        {
          "internalType": "address",
          "name": "spender",
          "type": "address"
        },
        {
          "internalType": "uint256",
          "name": "amount",
          "type": "uint256"
        }
      ],
      "name": "approve",
      "outputs": [
        {
          "internalType": "bool",
          "name": "",
          "type": "bool"
        }
      ],
      "stateMutability": "nonpayable",
      "type": "function"
    },
    {
      "inputs": [
        {
          "internalType": "address",
          "name": "",
          "type": "address"
        }
      ],
      "name": "balanceOf",
      "outputs": [
        {
          "internalType": "uint256",
          "name": "",
          "type": "uint256"
        }
      ],
      "stateMutability": "view",
      "type": "function"
    },
    {
      "inputs": [
        {
          "internalType": "address",
          "name": "account",
          "type": "address"
        },
        {
          "internalType": "uint256",
          "name": "amount",
          "type": "uint256"
        }
      ],
      "name": "burn",
      "outputs": [],
      "stateMutability": "nonpayable",
      "type": "function"
    },
    {
      "inputs": [],
      "name": "decimals",
      "outputs": [
        {
          "internalType": "uint8",
          "name": "",
          "type": "uint8"
        }
      ],
      "stateMutability": "view",
      "type": "function"
    },
    {
      "inputs": [
        {
          "internalType": "address",
          "name": "account",
          "type": "address"
        },
        {
          "internalType": "uint256",
          "name": "amount",
          "type": "uint256"
        }
      ],
      "name": "mint",
      "outputs": [],
      "stateMutability": "nonpayable",
      "type": "function"
    },
    {
      "inputs": [],
      "name": "name",
      "outputs": [
        {
          "internalType": "string",
          "name": "",
          "type": "string"
        }
      ],
      "stateMutability": "view",
      "type": "function"
    },
    {
      "inputs": [
        {
          "internalType": "address",
          "name": "",
          "type": "address"
        }
      ],
      "name": "nonces",
      "outputs": [
        {
          "internalType": "uint256",
          "name": "",
          "type": "uint256"
        }
      ],
      "stateMutability": "view",
      "type": "function"
    },
    {
      "inputs": [],
      "name": "owner",
      "outputs": [
        {
          "internalType": "address",
          "name": "",
          "type": "address"
        }
      ],
      "stateMutability": "view",
      "type": "function"
    },
    {
      "inputs": [
        {
          "internalType": "address",
          "name": "owner",
          "type": "address"
        },
        {
          "internalType": "address",
          "name": "spender",
          "type": "address"
        },
        {
          "internalType": "uint256",
          "name": "value",
          "type": "uint256"
        },
        {
          "internalType": "uint256",
          "name": "deadline",
          "type": "uint256"
        },
        {
          "internalType": "uint8",
          "name": "v",
          "type": "uint8"
        },
        {
          "internalType": "bytes32",
          "name": "r",
          "type": "bytes32"
        },
        {
          "internalType": "bytes32",
          "name": "s",
          "type": "bytes32"
        }
      ],
      "name": "permit",
      "outputs": [],
      "stateMutability": "nonpayable",
      "type": "function"
    },
    {
      "inputs": [],
      "name": "symbol",
      "outputs": [
        {
          "internalType": "string",
          "name": "",
          "type": "string"
        }
      ],
      "stateMutability": "view",
      "type": "function"
    },
    {
      "inputs": [],
      "name": "totalSupply",
      "outputs": [
        {
          "internalType": "uint256",
          "name": "",
          "type": "uint256"
        }
      ],
      "stateMutability": "view",
      "type": "function"
    },
    {
      "inputs": [
        {
          "internalType": "address",
          "name": "to",
          "type": "address"
        },
        {
          "internalType": "uint256",
          "name": "amount",
          "type": "uint256"
        }
      ],
      "name": "transfer",
      "outputs": [
        {
          "internalType": "bool",
          "name": "",
          "type": "bool"
        }
      ],
      "stateMutability": "nonpayable",
      "type": "function"
    },
    {
      "inputs": [
        {
          "internalType": "address",
          "name": "from",
          "type": "address"
        },
        {
          "internalType": "address",
          "name": "to",
          "type": "address"
        },
        {
          "internalType": "uint256",
          "name": "amount",
          "type": "uint256"
        }
      ],
      "name": "transferFrom",
      "outputs": [
        {
          "internalType": "bool",
          "name": "",
          "type": "bool"
        }
      ],
      "stateMutability": "nonpayable",
      "type": "function"
    },
    {
      "inputs": [
        {
          "internalType": "address",
          "name": "newOwner",
          "type": "address"
        }
      ],
      "name": "transferOwnership",
      "outputs": [],
      "stateMutability": "nonpayable",
      "type": "function"
    },
    {
      "inputs": [
        {
          "internalType": "address",
          "name": "toAddr",
          "type": "address"
        }
      ],
      "name": "withdrawStuckEth",
      "outputs": [],
      "stateMutability": "nonpayable",
      "type": "function"
    },
    {
      "inputs": [],
      "name": "withdrawStuckKEIKO",
      "outputs": [],
      "stateMutability": "nonpayable",
      "type": "function"
    },
    {
      "inputs": [
        {
          "internalType": "address",
          "name": "_token",
          "type": "address"
        },
        {
          "internalType": "address",
          "name": "_to",
          "type": "address"
        }
      ],
      "name": "withdrawStuckToken",
      "outputs": [],
      "stateMutability": "nonpayable",
      "type": "function"
    }
  ],
  "bytecode": {
    "object": "0x60e06040523480156200001157600080fd5b5060405162001499380380620014998339810160408190526200003491620001a2565b604080518082018252600e81526d25a2a49029ba30b13632b1b7b4b760911b6020808301919091528251808401845260038152624b454960e81b91810191909152600080546001600160a01b0319166001600160a01b0386169081178255935192939192601292869290917f8be0079c531659141344cd1fd0a4f28419497f9722a3daafe3b4186f6b6457e0908290a3506001620000d3848262000279565b506002620000e2838262000279565b5060ff81166080524660a052620000f862000106565b60c05250620003c392505050565b60007f8b73c3c69bb8fe3d512ecc4cf759cc79239f7b179b0ffacaa9a75d522b39400f60016040516200013a919062000345565b6040805191829003822060208301939093528101919091527fc89efdaa54c0f20c7adf612882df0950f5a951637e0307cdcb4c672f298b8bc660608201524660808201523060a082015260c00160405160208183030381529060405280519060200120905090565b600060208284031215620001b557600080fd5b81516001600160a01b0381168114620001cd57600080fd5b9392505050565b634e487b7160e01b600052604160045260246000fd5b600181811c90821680620001ff57607f821691505b6020821081036200022057634e487b7160e01b600052602260045260246000fd5b50919050565b601f8211156200027457600081815260208120601f850160051c810160208610156200024f5750805b601f850160051c820191505b8181101562000270578281556001016200025b565b5050505b505050565b81516001600160401b03811115620002955762000295620001d4565b620002ad81620002a68454620001ea565b8462000226565b602080601f831160018114620002e55760008415620002cc5750858301515b600019600386901b1c1916600185901b17855562000270565b600085815260208120601f198616915b828110156200031657888601518255948401946001909101908401620002f5565b5085821015620003355787850151600019600388901b60f8161c191681555b5050505050600190811b01905550565b60008083546200035581620001ea565b600182811680156200037057600181146200038657620003b7565b60ff1984168752821515830287019450620003b7565b8760005260208060002060005b85811015620003ae5781548a82015290840190820162000393565b50505082870194505b50929695505050505050565b60805160a05160c0516110a6620003f36000396000610513015260006104de0152600061019601526110a66000f3fe608060405234801561001057600080fd5b50600436106101215760003560e01c80637ecebe00116100ad578063a9059cbb11610071578063a9059cbb14610288578063bc205ad31461029b578063d505accf146102ae578063dd62ed3e146102c1578063f2fde38b146102ec57600080fd5b80637ecebe001461021a5780638da5cb5b1461023a578063931b52701461026557806395d89b411461026d5780639dc29fac1461027557600080fd5b8063313ce567116100f4578063313ce567146101915780633644e515146101ca57806340c10f19146101d257806370a08231146101e75780637ca8448a1461020757600080fd5b806306fdde0314610126578063095ea7b31461014457806318160ddd1461016757806323b872dd1461017e575b600080fd5b61012e6102ff565b60405161013b9190610d42565b60405180910390f35b610157610152366004610dac565b61038d565b604051901515815260200161013b565b61017060035481565b60405190815260200161013b565b61015761018c366004610dd6565b6103fa565b6101b87f000000000000000000000000000000000000000000000000000000000000000081565b60405160ff909116815260200161013b565b6101706104da565b6101e56101e0366004610dac565b610535565b005b6101706101f5366004610e12565b60046020526000908152604090205481565b6101e5610215366004610e12565b610576565b610170610228366004610e12565b60066020526000908152604090205481565b60005461024d906001600160a01b031681565b6040516001600160a01b03909116815260200161013b565b6101e5610600565b61012e610724565b6101e5610283366004610dac565b610731565b610157610296366004610dac565b610765565b6101e56102a9366004610e34565b6107cb565b6101e56102bc366004610e67565b610933565b6101706102cf366004610e34565b600560209081526000928352604080842090915290825290205481565b6101e56102fa366004610e12565b610b77565b6001805461030c90610eda565b80601f016020809104026020016040519081016040528092919081815260200182805461033890610eda565b80156103855780601f1061035a57610100808354040283529160200191610385565b820191906000526020600020905b81548152906001019060200180831161036857829003601f168201915b505050505081565b3360008181526005602090815260408083206001600160a01b038716808552925280832085905551919290917f8c5be1e5ebec7d5bd14f71427d1e84f3dd0314c0f7b2291e5b200ac8c7c3b925906103e89086815260200190565b60405180910390a35060015b92915050565b6001600160a01b03831660009081526005602090815260408083203384529091528120546000198114610456576104318382610f2a565b6001600160a01b03861660009081526005602090815260408083203384529091529020555b6001600160a01b0385166000908152600460205260408120805485929061047e908490610f2a565b90915550506001600160a01b0380851660008181526004602052604090819020805487019055519091871690600080516020611051833981519152906104c79087815260200190565b60405180910390a3506001949350505050565b60007f000000000000000000000000000000000000000000000000000000000000000046146105105761050b610bec565b905090565b507f000000000000000000000000000000000000000000000000000000000000000090565b6000546001600160a01b031633146105685760405162461bcd60e51b815260040161055f90610f3d565b60405180910390fd5b6105728282610c86565b5050565b6000546001600160a01b031633146105a05760405162461bcd60e51b815260040161055f90610f3d565b6000816001600160a01b03164760405160006040518083038185875af1925050503d80600081146105ed576040519150601f19603f3d011682016040523d82523d6000602084013e6105f2565b606091505b505090508061057257600080fd5b6000546001600160a01b0316331461062a5760405162461bcd60e51b815260040161055f90610f3d565b6040516370a0823160e01b815230600482018190526000916370a0823190602401602060405180830381865afa158015610668573d6000803e3d6000fd5b505050506040513d601f19601f8201168201806040525081019061068c9190610f63565b60405163a9059cbb60e01b815233600482015260248101829052909150309063a9059cbb906044016020604051808303816000875af11580156106d3573d6000803e3d6000fd5b505050506040513d601f19601f820116820180604052508101906106f79190610f7c565b5060405133904780156108fc02916000818181858888f19350505050158015610572573d6000803e3d6000fd5b6002805461030c90610eda565b6000546001600160a01b0316331461075b5760405162461bcd60e51b815260040161055f90610f3d565b6105728282610ce0565b33600090815260046020526040812080548391908390610786908490610f2a565b90915550506001600160a01b03831660008181526004602052604090819020805485019055513390600080516020611051833981519152906103e89086815260200190565b6000546001600160a01b031633146107f55760405162461bcd60e51b815260040161055f90610f3d565b6001600160a01b03821661084b5760405162461bcd60e51b815260206004820152601a60248201527f5f746f6b656e20616464726573732063616e6e6f742062652030000000000000604482015260640161055f565b6040516370a0823160e01b81523060048201526000906001600160a01b038416906370a0823190602401602060405180830381865afa158015610892573d6000803e3d6000fd5b505050506040513d601f19601f820116820180604052508101906108b69190610f63565b60405163a9059cbb60e01b81526001600160a01b038481166004830152602482018390529192509084169063a9059cbb906044016020604051808303816000875af1158015610909573d6000803e3d6000fd5b505050506040513d601f19601f8201168201806040525081019061092d9190610f7c565b50505050565b428410156109835760405162461bcd60e51b815260206004820152601760248201527f5045524d49545f444541444c494e455f45585049524544000000000000000000604482015260640161055f565b6000600161098f6104da565b6001600160a01b038a811660008181526006602090815260409182902080546001810190915582517f6e71edae12b1b97f4d1f60370fef10105fa2faae0126114a169c64845d6126c98184015280840194909452938d166060840152608083018c905260a083019390935260c08083018b90528151808403909101815260e08301909152805192019190912061190160f01b6101008301526101028201929092526101228101919091526101420160408051601f198184030181528282528051602091820120600084529083018083525260ff871690820152606081018590526080810184905260a0016020604051602081039080840390855afa158015610a9b573d6000803e3d6000fd5b5050604051601f1901519150506001600160a01b03811615801590610ad15750876001600160a01b0316816001600160a01b0316145b610b0e5760405162461bcd60e51b815260206004820152600e60248201526d24a72b20a624a22fa9a4a3a722a960911b604482015260640161055f565b6001600160a01b0390811660009081526005602090815260408083208a8516808552908352928190208990555188815291928a16917f8c5be1e5ebec7d5bd14f71427d1e84f3dd0314c0f7b2291e5b200ac8c7c3b925910160405180910390a350505050505050565b6000546001600160a01b03163314610ba15760405162461bcd60e51b815260040161055f90610f3d565b600080546001600160a01b0319166001600160a01b0383169081178255604051909133917f8be0079c531659141344cd1fd0a4f28419497f9722a3daafe3b4186f6b6457e09190a350565b60007f8b73c3c69bb8fe3d512ecc4cf759cc79239f7b179b0ffacaa9a75d522b39400f6001604051610c1e9190610f9e565b6040805191829003822060208301939093528101919091527fc89efdaa54c0f20c7adf612882df0950f5a951637e0307cdcb4c672f298b8bc660608201524660808201523060a082015260c00160405160208183030381529060405280519060200120905090565b8060036000828254610c98919061103d565b90915550506001600160a01b03821660008181526004602090815260408083208054860190555184815260008051602061105183398151915291015b60405180910390a35050565b6001600160a01b03821660009081526004602052604081208054839290610d08908490610f2a565b90915550506003805482900390556040518181526000906001600160a01b0384169060008051602061105183398151915290602001610cd4565b600060208083528351808285015260005b81811015610d6f57858101830151858201604001528201610d53565b506000604082860101526040601f19601f8301168501019250505092915050565b80356001600160a01b0381168114610da757600080fd5b919050565b60008060408385031215610dbf57600080fd5b610dc883610d90565b946020939093013593505050565b600080600060608486031215610deb57600080fd5b610df484610d90565b9250610e0260208501610d90565b9150604084013590509250925092565b600060208284031215610e2457600080fd5b610e2d82610d90565b9392505050565b60008060408385031215610e4757600080fd5b610e5083610d90565b9150610e5e60208401610d90565b90509250929050565b600080600080600080600060e0888a031215610e8257600080fd5b610e8b88610d90565b9650610e9960208901610d90565b95506040880135945060608801359350608088013560ff81168114610ebd57600080fd5b9699959850939692959460a0840135945060c09093013592915050565b600181811c90821680610eee57607f821691505b602082108103610f0e57634e487b7160e01b600052602260045260246000fd5b50919050565b634e487b7160e01b600052601160045260246000fd5b818103818111156103f4576103f4610f14565b6020808252600c908201526b15539055551213d49256915160a21b604082015260600190565b600060208284031215610f7557600080fd5b5051919050565b600060208284031215610f8e57600080fd5b81518015158114610e2d57600080fd5b600080835481600182811c915080831680610fba57607f831692505b60208084108203610fd957634e487b7160e01b86526022600452602486fd5b818015610fed57600181146110025761102f565b60ff198616895284151585028901965061102f565b60008a81526020902060005b868110156110275781548b82015290850190830161100e565b505084890196505b509498975050505050505050565b808201808211156103f4576103f4610f1456feddf252ad1be2c89b69c2b068fc378daa952ba7f163c4a11628f55a4df523b3efa2646970667358221220f44a6652ecf18ee81f9bfac3d6d5488b5e96b74f90d69705c8129eb48a3f1bf964736f6c63430008150033",
    "linkReferences": {}
  },
  "methodIdentifiers": {
    "DOMAIN_SEPARATOR()": "3644e515",
    "allowance(address,address)": "dd62ed3e",
    "approve(address,uint256)": "095ea7b3",
    "balanceOf(address)": "70a08231",
    "burn(address,uint256)": "9dc29fac",
    "decimals()": "313ce567",
    "mint(address,uint256)": "40c10f19",
    "name()": "06fdde03",
    "nonces(address)": "7ecebe00",
    "owner()": "8da5cb5b",
    "permit(address,address,uint256,uint256,uint8,bytes32,bytes32)": "d505accf",
    "symbol()": "95d89b41",
    "totalSupply()": "18160ddd",
    "transfer(address,uint256)": "a9059cbb",
    "transferFrom(address,address,uint256)": "23b872dd",
    "transferOwnership(address)": "f2fde38b",
    "withdrawStuckEth(address)": "7ca8448a",
    "withdrawStuckKEIKO()": "931b5270",
    "withdrawStuckToken(address,address)": "bc205ad3"
  },
  "id": 17
}