{
  "abi": [
    {
      "inputs": [
        {
          "internalType": "address",
          "name": "_router",
          "type": "address"
        }
      ],
      "stateMutability": "nonpayable",
      "type": "constructor"
    },
    {
      "anonymous": false,
      "inputs": [
        {
          "indexed": true,
          "internalType": "address",
          "name": "fromAsset",
          "type": "address"
        },
        {
          "indexed": true,
          "internalType": "address",
          "name": "toAsset",
          "type": "address"
        },
        {
          "indexed": false,
          "internalType": "uint256",
          "name": "fromAssetAmount",
          "type": "uint256"
        },
        {
          "indexed": false,
          "internalType": "uint256",
          "name": "toAssetAmount",
          "type": "uint256"
        }
      ],
      "name": "Swapped",
      "type": "event"
    },
    {
      "inputs": [],
      "name": "router",
      "outputs": [
        {
          "internalType": "contract IAggregationRouterV4",
          "name": "",
          "type": "address"
        }
      ],
      "stateMutability": "view",
      "type": "function"
    },
    {
      "inputs": [
        {
          "components": [
            {
              "internalType": "address",
              "name": "fromAsset",
              "type": "address"
            },
            {
              "internalType": "uint256",
              "name": "fromAssetAmount",
              "type": "uint256"
            },
            {
              "internalType": "address",
              "name": "toAsset",
              "type": "address"
            },
            {
              "internalType": "uint256",
              "name": "minToAssetAmount",
              "type": "uint256"
            },
            {
              "internalType": "bytes",
              "name": "data",
              "type": "bytes"
            }
          ],
          "internalType": "struct DexSwapData",
          "name": "_swap",
          "type": "tuple"
        }
      ],
      "name": "swap",
      "outputs": [
        {
          "internalType": "uint256",
          "name": "toAssetAmount",
          "type": "uint256"
        }
      ],
      "stateMutability": "nonpayable",
      "type": "function"
    }
  ],
  "bytecode": {
    "object": "0x60a060405234801561001057600080fd5b506040516107b63803806107b683398101604081905261002f91610040565b6001600160a01b0316608052610070565b60006020828403121561005257600080fd5b81516001600160a01b038116811461006957600080fd5b9392505050565b60805161071e61009860003960008181606601528181610163015261025f015261071e6000f3fe608060405234801561001057600080fd5b50600436106100365760003560e01c806308c82ba41461003b578063f887ea4014610061575b600080fd5b61004e6100493660046103fb565b6100a0565b6040519081526020015b60405180910390f35b6100887f000000000000000000000000000000000000000000000000000000000000000081565b6040516001600160a01b039091168152602001610058565b60008060008084608001518060200190518101906100be919061050c565b875160208901516040516323b872dd60e01b8152336004820152306024820152604481019190915293965091945092506001600160a01b0316906323b872dd906064016020604051808303816000875af1158015610120573d6000803e3d6000fd5b505050506040513d601f19601f8201168201806040525081019061014491906105ac565b508451602086015160405163095ea7b360e01b81526001600160a01b037f000000000000000000000000000000000000000000000000000000000000000081166004830152602482019290925291169063095ea7b3906044016020604051808303816000875af11580156101bc573d6000803e3d6000fd5b505050506040513d601f19601f820116820180604052508101906101e091906105ac565b50604080516101008101825286516001600160a01b0390811682528783015181166020808401919091528582168385015233606080850191909152818a0151608085015289015160a0840152600060c0840152835180850185526002815261060f60f31b9181019190915260e08301529151623e012960e91b815285927f00000000000000000000000000000000000000000000000000000000000000001690637c0252009061029890859085908890600401610601565b60408051808303816000875af11580156102b6573d6000803e3d6000fd5b505050506040513d601f19601f820116820180604052508101906102da91906106c4565b508096505086604001516001600160a01b031687600001516001600160a01b03167fa078c4190abe07940190effc1846be0ccf03ad6007bc9e93f9697d0b460befbb896020015189604051610339929190918252602082015260400190565b60405180910390a35050505050919050565b634e487b7160e01b600052604160045260246000fd5b60405160a0810167ffffffffffffffff811182821017156103845761038461034b565b60405290565b604051601f8201601f1916810167ffffffffffffffff811182821017156103b3576103b361034b565b604052919050565b6001600160a01b03811681146103d057600080fd5b50565b600067ffffffffffffffff8211156103ed576103ed61034b565b50601f01601f191660200190565b6000602080838503121561040e57600080fd5b823567ffffffffffffffff8082111561042657600080fd5b9084019060a0828703121561043a57600080fd5b610442610361565b823561044d816103bb565b815282840135848201526040830135610465816103bb565b60408201526060838101359082015260808301358281111561048657600080fd5b80840193505086601f84011261049b57600080fd5b823591506104b06104ab836103d3565b61038a565b82815287858486010111156104c457600080fd5b82858501868301376000858483010152806080830152508094505050505092915050565b60005b838110156105035781810151838201526020016104eb565b50506000910152565b60008060006060848603121561052157600080fd5b835161052c816103bb565b602085015190935061053d816103bb565b604085015190925067ffffffffffffffff81111561055a57600080fd5b8401601f8101861361056b57600080fd5b80516105796104ab826103d3565b81815287602083850101111561058e57600080fd5b61059f8260208301602086016104e8565b8093505050509250925092565b6000602082840312156105be57600080fd5b815180151581146105ce57600080fd5b9392505050565b600081518084526105ed8160208601602086016104e8565b601f01601f19169290920160200192915050565b6001600160a01b0384811682526060602080840182905285519092169083015283015160009061063c60808401826001600160a01b03169052565b5060408401516001600160a01b03811660a08401525060608401516001600160a01b03811660c084015250608084015160e083015260a0840151610100818185015260c086015161012085015260e0860151915080610140850152506106a66101608401826105d5565b905082810360408401526106ba81856105d5565b9695505050505050565b600080604083850312156106d757600080fd5b50508051602090910151909290915056fea264697066735822122014ac2678a1231b7380b0eb7bcf5a5f5e15ee756b1ff82bddc976e77cace96dbd64736f6c63430008140033",
    "linkReferences": {}
  },
  "methodIdentifiers": {
    "router()": "f887ea40",
    "swap((address,uint256,address,uint256,bytes))": "08c82ba4"
  },
  "id": 23
}