{
  "abi": [
    {
      "inputs": [
        {
          "internalType": "address",
          "name": "_owner",
          "type": "address"
        },
        {
          "internalType": "address",
          "name": "_KEIAddress",
          "type": "address"
        }
      ],
      "stateMutability": "nonpayable",
      "type": "constructor"
    },
    {
      "anonymous": false,
      "inputs": [
        {
          "indexed": true,
          "internalType": "address",
          "name": "user",
          "type": "address"
        },
        {
          "indexed": true,
          "internalType": "address",
          "name": "newOwner",
          "type": "address"
        }
      ],
      "name": "OwnershipTransferred",
      "type": "event"
    },
    {
      "inputs": [],
      "name": "KEIAddress",
      "outputs": [
        {
          "internalType": "address",
          "name": "",
          "type": "address"
        }
      ],
      "stateMutability": "view",
      "type": "function"
    },
    {
      "inputs": [
        {
          "internalType": "address",
          "name": "_stablecoin",
          "type": "address"
        },
        {
          "internalType": "uint256",
          "name": "_amount",
          "type": "uint256"
        }
      ],
      "name": "addReserves",
      "outputs": [],
      "stateMutability": "nonpayable",
      "type": "function"
    },
    {
      "inputs": [
        {
          "internalType": "address",
          "name": "_token",
          "type": "address"
        }
      ],
      "name": "addStablecoin",
      "outputs": [],
      "stateMutability": "nonpayable",
      "type": "function"
    },
    {
      "inputs": [],
      "name": "calculateAccruedYield",
      "outputs": [
        {
          "internalType": "uint256",
          "name": "",
          "type": "uint256"
        }
      ],
      "stateMutability": "nonpayable",
      "type": "function"
    },
    {
      "inputs": [],
      "name": "contractPaused",
      "outputs": [
        {
          "internalType": "bool",
          "name": "",
          "type": "bool"
        }
      ],
      "stateMutability": "view",
      "type": "function"
    },
    {
      "inputs": [],
      "name": "daiHandler",
      "outputs": [
        {
          "internalType": "contract DAIHandler",
          "name": "",
          "type": "address"
        }
      ],
      "stateMutability": "view",
      "type": "function"
    },
    {
      "inputs": [
        {
          "internalType": "address",
          "name": "",
          "type": "address"
        }
      ],
      "name": "deployedTokens",
      "outputs": [
        {
          "internalType": "uint256",
          "name": "",
          "type": "uint256"
        }
      ],
      "stateMutability": "view",
      "type": "function"
    },
    {
      "inputs": [
        {
          "internalType": "address",
          "name": "_token",
          "type": "address"
        },
        {
          "internalType": "uint256",
          "name": "_amount",
          "type": "uint256"
        }
      ],
      "name": "depositAndMint",
      "outputs": [],
      "stateMutability": "nonpayable",
      "type": "function"
    },
    {
      "inputs": [
        {
          "internalType": "address",
          "name": "stablecoin",
          "type": "address"
        },
        {
          "internalType": "uint256",
          "name": "amount",
          "type": "uint256"
        }
      ],
      "name": "depositReserves",
      "outputs": [],
      "stateMutability": "nonpayable",
      "type": "function"
    },
    {
      "inputs": [
        {
          "internalType": "address",
          "name": "_stablecoin",
          "type": "address"
        }
      ],
      "name": "getStablecoinReserve",
      "outputs": [
        {
          "internalType": "uint256",
          "name": "",
          "type": "uint256"
        }
      ],
      "stateMutability": "view",
      "type": "function"
    },
    {
      "inputs": [],
      "name": "getSupportedStablecoins",
      "outputs": [
        {
          "internalType": "address[]",
          "name": "",
          "type": "address[]"
        }
      ],
      "stateMutability": "view",
      "type": "function"
    },
    {
      "inputs": [],
      "name": "getTotalReserves",
      "outputs": [
        {
          "internalType": "uint256",
          "name": "",
          "type": "uint256"
        }
      ],
      "stateMutability": "nonpayable",
      "type": "function"
    },
    {
      "inputs": [],
      "name": "getTotalUserDeposits",
      "outputs": [
        {
          "internalType": "uint256",
          "name": "",
          "type": "uint256"
        }
      ],
      "stateMutability": "view",
      "type": "function"
    },
    {
      "inputs": [
        {
          "internalType": "address",
          "name": "_token",
          "type": "address"
        }
      ],
      "name": "isWhitelisted",
      "outputs": [
        {
          "internalType": "bool",
          "name": "",
          "type": "bool"
        }
      ],
      "stateMutability": "view",
      "type": "function"
    },
    {
      "inputs": [],
      "name": "owner",
      "outputs": [
        {
          "internalType": "address",
          "name": "",
          "type": "address"
        }
      ],
      "stateMutability": "view",
      "type": "function"
    },
    {
      "inputs": [
        {
          "internalType": "bool",
          "name": "_paused",
          "type": "bool"
        }
      ],
      "name": "pauseContract",
      "outputs": [],
      "stateMutability": "nonpayable",
      "type": "function"
    },
    {
      "inputs": [],
      "name": "registry",
      "outputs": [
        {
          "internalType": "contract YieldHandlerRegistry",
          "name": "",
          "type": "address"
        }
      ],
      "stateMutability": "view",
      "type": "function"
    },
    {
      "inputs": [
        {
          "internalType": "address",
          "name": "_stablecoin",
          "type": "address"
        },
        {
          "internalType": "uint256",
          "name": "_amount",
          "type": "uint256"
        }
      ],
      "name": "removeReserves",
      "outputs": [],
      "stateMutability": "nonpayable",
      "type": "function"
    },
    {
      "inputs": [
        {
          "internalType": "uint256",
          "name": "index",
          "type": "uint256"
        }
      ],
      "name": "removeStablecoin",
      "outputs": [],
      "stateMutability": "nonpayable",
      "type": "function"
    },
    {
      "inputs": [],
      "name": "reserveController",
      "outputs": [
        {
          "internalType": "contract ReserveController",
          "name": "",
          "type": "address"
        }
      ],
      "stateMutability": "view",
      "type": "function"
    },
    {
      "inputs": [
        {
          "internalType": "address",
          "name": "_contract",
          "type": "address"
        }
      ],
      "name": "setRegistry",
      "outputs": [],
      "stateMutability": "nonpayable",
      "type": "function"
    },
    {
      "inputs": [
        {
          "internalType": "address",
          "name": "_contract",
          "type": "address"
        }
      ],
      "name": "setReserveController",
      "outputs": [],
      "stateMutability": "nonpayable",
      "type": "function"
    },
    {
      "inputs": [
        {
          "internalType": "address",
          "name": "",
          "type": "address"
        }
      ],
      "name": "stablecoinReserves",
      "outputs": [
        {
          "internalType": "uint256",
          "name": "",
          "type": "uint256"
        }
      ],
      "stateMutability": "view",
      "type": "function"
    },
    {
      "inputs": [
        {
          "internalType": "uint256",
          "name": "",
          "type": "uint256"
        }
      ],
      "name": "supportedStablecoins",
      "outputs": [
        {
          "internalType": "address",
          "name": "",
          "type": "address"
        }
      ],
      "stateMutability": "view",
      "type": "function"
    },
    {
      "inputs": [],
      "name": "totalUserDeposits",
      "outputs": [
        {
          "internalType": "uint256",
          "name": "",
          "type": "uint256"
        }
      ],
      "stateMutability": "view",
      "type": "function"
    },
    {
      "inputs": [
        {
          "internalType": "address",
          "name": "newOwner",
          "type": "address"
        }
      ],
      "name": "transferOwnership",
      "outputs": [],
      "stateMutability": "nonpayable",
      "type": "function"
    },
    {
      "inputs": [],
      "name": "usdcHandler",
      "outputs": [
        {
          "internalType": "contract USDCHandler",
          "name": "",
          "type": "address"
        }
      ],
      "stateMutability": "view",
      "type": "function"
    },
    {
      "inputs": [
        {
          "internalType": "address",
          "name": "",
          "type": "address"
        }
      ],
      "name": "whitelistedStablecoins",
      "outputs": [
        {
          "internalType": "bool",
          "name": "",
          "type": "bool"
        }
      ],
      "stateMutability": "view",
      "type": "function"
    }
  ],
  "bytecode": {
    "object": "0x608060405234801561001057600080fd5b5060405161133038038061133083398101604081905261002f916100ce565b600080546001600160a01b0319166001600160a01b03841690811782556040518492907f8be0079c531659141344cd1fd0a4f28419497f9722a3daafe3b4186f6b6457e0908290a350600b80546001600160a01b039092166001600160a01b0319928316811790915560058054909216179055506009805460ff19169055610101565b80516001600160a01b03811681146100c957600080fd5b919050565b600080604083850312156100e157600080fd5b6100ea836100b2565b91506100f8602084016100b2565b90509250929050565b611220806101106000396000f3fe608060405234801561001057600080fd5b50600436106101c45760003560e01c80638a67456a116100f9578063cfed19f711610097578063d3148fb611610071578063d3148fb61461045d578063e272b89214610470578063f2fde38b14610483578063fc99bd9a1461049657600080fd5b8063cfed19f714610401578063d195d7e51461042a578063d2b262c51461044a57600080fd5b806399929a13116100d357806399929a13146103a3578063a1303616146103b6578063a91ee0dc146103be578063c03e76a8146103ee57600080fd5b80638a67456a146103635780638da5cb5b1461037057806393d0aead1461038357600080fd5b806358c905ae116101665780637843bc78116101405780637843bc781461032a5780637b07882e146103335780637b1039991461033b5780637c6f73eb1461034e57600080fd5b806358c905ae146102f15780635966e733146103045780635f4cbedb1461031757600080fd5b80633af32abf116101a25780633af32abf1461028d578063463d2b4f146102a05780634ade3712146102cb578063571951b9146102de57600080fd5b80630418945a146101c9578063166b48191461023f578063242693d314610277575b600080fd5b61023d6101d7366004610fd7565b6001600160a01b03166000818152600760205260408120805460ff191660019081179091556006805491820181559091527ff652222313e28459528d920b65115c16c04f3efc82aaedc97be59f3f377c0d3f0180546001600160a01b0319169091179055565b005b61026261024d366004610fd7565b60076020526000908152604090205460ff1681565b60405190151581526020015b60405180910390f35b61027f6104a9565b60405190815260200161026e565b61026261029b366004610fd7565b6106a0565b6004546102b3906001600160a01b031681565b6040516001600160a01b03909116815260200161026e565b61023d6102d9366004610fd7565b6106d5565b6102b36102ec366004610ff4565b61072a565b61023d6102ff366004610ff4565b610754565b61023d61031236600461100d565b6108c7565b61023d61032536600461100d565b610a9a565b61027f600a5481565b61027f610ae4565b6002546102b3906001600160a01b031681565b610356610b08565b60405161026e9190611039565b6009546102629060ff1681565b6000546102b3906001600160a01b031681565b61027f610391366004610fd7565b600c6020526000908152604090205481565b6003546102b3906001600160a01b031681565b600a5461027f565b61023d6103cc366004610fd7565b600280546001600160a01b0319166001600160a01b0392909216919091179055565b6001546102b3906001600160a01b031681565b61027f61040f366004610fd7565b6001600160a01b031660009081526008602052604090205490565b61027f610438366004610fd7565b60086020526000908152604090205481565b600b546102b3906001600160a01b031681565b61023d61046b36600461100d565b610b6a565b61023d61047e366004611094565b610ecf565b61023d610491366004610fd7565b610f0c565b61023d6104a436600461100d565b610f81565b600080805b6006548110156105e657600254600680546000926001600160a01b031691635f8d671c91859081106104e2576104e26110b1565b60009182526020909120015460405160e083901b6001600160e01b03191681526001600160a01b039091166004820152602401602060405180830381865afa158015610532573d6000803e3d6000fd5b505050506040513d601f19601f8201168201806040525081019061055691906110c7565b60405163f8b2cb4f60e01b815230600482015290915081906001600160a01b0382169063f8b2cb4f906024016020604051808303816000875af11580156105a1573d6000803e3d6000fd5b505050506040513d601f19601f820116820180604052508101906105c591906110e4565b6105cf9085611113565b9350505080806105de9061112c565b9150506104ae565b5060005b60065481101561069a5760068181548110610607576106076110b1565b6000918252602090912001546040516370a0823160e01b81523060048201526001600160a01b03909116906370a0823190602401602060405180830381865afa158015610658573d6000803e3d6000fd5b505050506040513d601f19601f8201168201806040525081019061067c91906110e4565b6106869083611113565b9150806106928161112c565b9150506105ea565b50919050565b6001600160a01b03811660009081526007602052604081205460ff1615156001036106cd57506001919050565b506000919050565b6000546001600160a01b031633146107085760405162461bcd60e51b81526004016106ff90611145565b60405180910390fd5b600180546001600160a01b0319166001600160a01b0392909216919091179055565b6006818154811061073a57600080fd5b6000918252602090912001546001600160a01b0316905081565b600654811061079b5760405162461bcd60e51b8152602060048201526013602482015272496e646578206f7574206f6620626f756e647360681b60448201526064016106ff565b6006546107aa9060019061116b565b81036108395760068054806107c1576107c161117e565b6001900381819060005260206000200160006101000a8154906001600160a01b030219169055905560006007600060068481548110610802576108026110b1565b6000918252602080832091909101546001600160a01b031683528201929092526040019020805460ff191691151591909117905550565b600680546108499060019061116b565b81548110610859576108596110b1565b600091825260209091200154600680546001600160a01b039092169183908110610885576108856110b1565b9060005260206000200160006101000a8154816001600160a01b0302191690836001600160a01b0316021790555060068054806107c1576107c161117e565b50565b6002546040516317e359c760e21b81526001600160a01b0384811660048301526000921690635f8d671c90602401602060405180830381865afa158015610912573d6000803e3d6000fd5b505050506040513d601f19601f8201168201806040525081019061093691906110c7565b90506001600160a01b0381166109825760405162461bcd60e51b815260206004820152601160248201527012185b991b195c881b9bdd08199bdd5b99607a1b60448201526064016106ff565b60405163095ea7b360e01b81526001600160a01b0382811660048301526024820184905284169063095ea7b3906044016020604051808303816000875af11580156109d1573d6000803e3d6000fd5b505050506040513d601f19601f820116820180604052508101906109f59190611194565b610a325760405162461bcd60e51b815260206004820152600e60248201526d105c1c1c9bdd994819985a5b195960921b60448201526064016106ff565b6040516311f9fbc960e21b81523060048201526024810183905281906001600160a01b038216906347e7ef2490604401600060405180830381600087803b158015610a7c57600080fd5b505af1158015610a90573d6000803e3d6000fd5b5050505050505050565b6001600160a01b03821660009081526008602052604081208054839290610ac290849061116b565b9250508190555080600a6000828254610adb919061116b565b90915550505050565b600080610aef6104a9565b90506000600a5482610b01919061116b565b9392505050565b60606006805480602002602001604051908101604052809291908181526020018280548015610b6057602002820191906000526020600020905b81546001600160a01b03168152600190910190602001808311610b42575b5050505050905090565b610b73826106a0565b1515600114610bc45760405162461bcd60e51b815260206004820152601960248201527f537461626c65636f696e206e6f7420737570706f727465642e0000000000000060448201526064016106ff565b60008111610c145760405162461bcd60e51b815260206004820152601d60248201527f416d6f756e74206d7573742062652067726561746572207468616e203000000060448201526064016106ff565b60095460ff1615610c595760405162461bcd60e51b815260206004820152600f60248201526e141c9bdd1bd8dbdb081c185d5cd959608a1b60448201526064016106ff565b6040516323b872dd60e01b8152336004820152306024820152604481018290526001600160a01b038316906323b872dd906064016020604051808303816000875af1158015610cac573d6000803e3d6000fd5b505050506040513d601f19601f82011682018060405250810190610cd09190611194565b50600160009054906101000a90046001600160a01b03166001600160a01b0316639b4a0f616040518163ffffffff1660e01b8152600401602060405180830381865afa158015610d24573d6000803e3d6000fd5b505050506040513d601f19601f82011682018060405250810190610d489190611194565b15610e5d57600154604051630770368760e21b81526001600160a01b038481166004830152602482018490526000921690631dc0da1c90604401602060405180830381865afa158015610d9f573d6000803e3d6000fd5b505050506040513d601f19601f82011682018060405250810190610dc391906110e4565b90506000612710610dd4838261116b565b610dde90856111b1565b610de891906111c8565b6005546040516340c10f1960e01b8152336004820152602481018390529192506001600160a01b0316906340c10f1990604401600060405180830381600087803b158015610e3557600080fd5b505af1158015610e49573d6000803e3d6000fd5b50505050610e578482610f81565b50505050565b6005546040516340c10f1960e01b8152336004820152602481018390526001600160a01b03909116906340c10f1990604401600060405180830381600087803b158015610ea957600080fd5b505af1158015610ebd573d6000803e3d6000fd5b50505050610ecb8282610f81565b5050565b6000546001600160a01b03163314610ef95760405162461bcd60e51b81526004016106ff90611145565b6009805460ff1916911515919091179055565b6000546001600160a01b03163314610f365760405162461bcd60e51b81526004016106ff90611145565b600080546001600160a01b0319166001600160a01b0383169081178255604051909133917f8be0079c531659141344cd1fd0a4f28419497f9722a3daafe3b4186f6b6457e09190a350565b6001600160a01b03821660009081526008602052604081208054839290610fa9908490611113565b9250508190555080600a6000828254610adb9190611113565b6001600160a01b03811681146108c457600080fd5b600060208284031215610fe957600080fd5b8135610b0181610fc2565b60006020828403121561100657600080fd5b5035919050565b6000806040838503121561102057600080fd5b823561102b81610fc2565b946020939093013593505050565b6020808252825182820181905260009190848201906040850190845b8181101561107a5783516001600160a01b031683529284019291840191600101611055565b50909695505050505050565b80151581146108c457600080fd5b6000602082840312156110a657600080fd5b8135610b0181611086565b634e487b7160e01b600052603260045260246000fd5b6000602082840312156110d957600080fd5b8151610b0181610fc2565b6000602082840312156110f657600080fd5b5051919050565b634e487b7160e01b600052601160045260246000fd5b80820180821115611126576111266110fd565b92915050565b60006001820161113e5761113e6110fd565b5060010190565b6020808252600c908201526b15539055551213d49256915160a21b604082015260600190565b81810381811115611126576111266110fd565b634e487b7160e01b600052603160045260246000fd5b6000602082840312156111a657600080fd5b8151610b0181611086565b8082028115828204841417611126576111266110fd565b6000826111e557634e487b7160e01b600052601260045260246000fd5b50049056fea2646970667358221220ab047213ae1a0e90e669070f57e104860937a8c362e2e196aacd101dfcbefd1764736f6c63430008150033",
    "linkReferences": {}
  },
  "methodIdentifiers": {
    "KEIAddress()": "d2b262c5",
    "addReserves(address,uint256)": "fc99bd9a",
    "addStablecoin(address)": "0418945a",
    "calculateAccruedYield()": "7b07882e",
    "contractPaused()": "8a67456a",
    "daiHandler()": "463d2b4f",
    "deployedTokens(address)": "93d0aead",
    "depositAndMint(address,uint256)": "d3148fb6",
    "depositReserves(address,uint256)": "5966e733",
    "getStablecoinReserve(address)": "cfed19f7",
    "getSupportedStablecoins()": "7c6f73eb",
    "getTotalReserves()": "242693d3",
    "getTotalUserDeposits()": "a1303616",
    "isWhitelisted(address)": "3af32abf",
    "owner()": "8da5cb5b",
    "pauseContract(bool)": "e272b892",
    "registry()": "7b103999",
    "removeReserves(address,uint256)": "5f4cbedb",
    "removeStablecoin(uint256)": "58c905ae",
    "reserveController()": "c03e76a8",
    "setRegistry(address)": "a91ee0dc",
    "setReserveController(address)": "4ade3712",
    "stablecoinReserves(address)": "d195d7e5",
    "supportedStablecoins(uint256)": "571951b9",
    "totalUserDeposits()": "7843bc78",
    "transferOwnership(address)": "f2fde38b",
    "usdcHandler()": "99929a13",
    "whitelistedStablecoins(address)": "166b4819"
  },
  "id": 19
}