{
  "abi": [
    {
      "inputs": [
        {
          "internalType": "address",
          "name": "_owner",
          "type": "address"
        },
        {
          "internalType": "address",
          "name": "_KEIMgr",
          "type": "address"
        }
      ],
      "stateMutability": "nonpayable",
      "type": "constructor"
    },
    {
      "anonymous": false,
      "inputs": [
        {
          "indexed": true,
          "internalType": "address",
          "name": "user",
          "type": "address"
        },
        {
          "indexed": true,
          "internalType": "address",
          "name": "newOwner",
          "type": "address"
        }
      ],
      "name": "OwnershipTransferred",
      "type": "event"
    },
    {
      "inputs": [
        {
          "internalType": "bool",
          "name": "_enabled",
          "type": "bool"
        }
      ],
      "name": "allowRedemptions",
      "outputs": [],
      "stateMutability": "nonpayable",
      "type": "function"
    },
    {
      "inputs": [],
      "name": "allowedDeviation",
      "outputs": [
        {
          "internalType": "uint8",
          "name": "",
          "type": "uint8"
        }
      ],
      "stateMutability": "view",
      "type": "function"
    },
    {
      "inputs": [
        {
          "internalType": "address",
          "name": "_stablecoin",
          "type": "address"
        },
        {
          "internalType": "uint256",
          "name": "depositAmount",
          "type": "uint256"
        }
      ],
      "name": "calculatePenalty",
      "outputs": [
        {
          "internalType": "uint256",
          "name": "",
          "type": "uint256"
        }
      ],
      "stateMutability": "view",
      "type": "function"
    },
    {
      "inputs": [
        {
          "internalType": "address",
          "name": "_stablecoin",
          "type": "address"
        }
      ],
      "name": "calculatePercentage",
      "outputs": [
        {
          "internalType": "uint256",
          "name": "",
          "type": "uint256"
        }
      ],
      "stateMutability": "view",
      "type": "function"
    },
    {
      "inputs": [
        {
          "internalType": "bool",
          "name": "_switch",
          "type": "bool"
        }
      ],
      "name": "enablePenalty",
      "outputs": [],
      "stateMutability": "nonpayable",
      "type": "function"
    },
    {
      "inputs": [],
      "name": "isPenaltyEnabled",
      "outputs": [
        {
          "internalType": "bool",
          "name": "",
          "type": "bool"
        }
      ],
      "stateMutability": "view",
      "type": "function"
    },
    {
      "inputs": [
        {
          "internalType": "address",
          "name": "_stablecoin",
          "type": "address"
        },
        {
          "internalType": "uint256",
          "name": "totalReserves",
          "type": "uint256"
        }
      ],
      "name": "maxDepositWithoutPenalty",
      "outputs": [
        {
          "internalType": "uint256",
          "name": "",
          "type": "uint256"
        }
      ],
      "stateMutability": "view",
      "type": "function"
    },
    {
      "inputs": [],
      "name": "owner",
      "outputs": [
        {
          "internalType": "address",
          "name": "",
          "type": "address"
        }
      ],
      "stateMutability": "view",
      "type": "function"
    },
    {
      "inputs": [],
      "name": "penaltyEnabled",
      "outputs": [
        {
          "internalType": "bool",
          "name": "",
          "type": "bool"
        }
      ],
      "stateMutability": "view",
      "type": "function"
    },
    {
      "inputs": [],
      "name": "redemptionsAllowed",
      "outputs": [
        {
          "internalType": "bool",
          "name": "",
          "type": "bool"
        }
      ],
      "stateMutability": "view",
      "type": "function"
    },
    {
      "inputs": [
        {
          "internalType": "uint8",
          "name": "_deviation",
          "type": "uint8"
        }
      ],
      "name": "setMaxDeviation",
      "outputs": [],
      "stateMutability": "nonpayable",
      "type": "function"
    },
    {
      "inputs": [
        {
          "internalType": "uint256",
          "name": "_a",
          "type": "uint256"
        },
        {
          "internalType": "uint256",
          "name": "_b",
          "type": "uint256"
        },
        {
          "internalType": "uint256",
          "name": "_maxPenalty",
          "type": "uint256"
        }
      ],
      "name": "setPenaltyParameters",
      "outputs": [],
      "stateMutability": "nonpayable",
      "type": "function"
    },
    {
      "inputs": [
        {
          "internalType": "address",
          "name": "_stablecoin",
          "type": "address"
        },
        {
          "internalType": "uint8",
          "name": "_weight",
          "type": "uint8"
        }
      ],
      "name": "setWeight",
      "outputs": [],
      "stateMutability": "nonpayable",
      "type": "function"
    },
    {
      "inputs": [
        {
          "internalType": "address",
          "name": "",
          "type": "address"
        }
      ],
      "name": "stablecoinWeights",
      "outputs": [
        {
          "internalType": "uint8",
          "name": "",
          "type": "uint8"
        }
      ],
      "stateMutability": "view",
      "type": "function"
    },
    {
      "inputs": [
        {
          "internalType": "address",
          "name": "newOwner",
          "type": "address"
        }
      ],
      "name": "transferOwnership",
      "outputs": [],
      "stateMutability": "nonpayable",
      "type": "function"
    }
  ],
  "bytecode": {
    "object": "0x60806040526123286002556105dc60035560fa6004556005805461ffff191660011781556007805460ff1916909117905534801561003c57600080fd5b50604051610be0380380610be083398101604081905261005b916100e6565b600080546001600160a01b0319166001600160a01b03841690811782556040518492907f8be0079c531659141344cd1fd0a4f28419497f9722a3daafe3b4186f6b6457e0908290a350600180546001600160a01b0319166001600160a01b039290921691909117905550610119565b80516001600160a01b03811681146100e157600080fd5b919050565b600080604083850312156100f957600080fd5b610102836100ca565b9150610110602084016100ca565b90509250929050565b610ab8806101286000396000f3fe608060405234801561001057600080fd5b50600436106100f55760003560e01c8063556a2c5f11610097578063c2e718d011610066578063c2e718d014610233578063c8c8d49b1461025b578063e2affde51461027e578063f2fde38b146102a257600080fd5b8063556a2c5f146101db5780637afa1f80146101ed5780638da5cb5b146102005780639b4a0f611461022b57600080fd5b8063224fada6116100d3578063224fada61461015c578063275469db1461016f57806336b994a11461018d57806350e03af3146101a057600080fd5b806305b182ea146100fa57806318e44e961461011e5780631dc0da1c1461013b575b600080fd5b6007546101079060ff1681565b60405160ff90911681526020015b60405180910390f35b60055461012b9060ff1681565b6040519015158152602001610115565b61014e6101493660046107ec565b6102b5565b604051908152602001610115565b61014e61016a3660046107ec565b6104a6565b61018b61017d366004610816565b600392909255600455600255565b005b61018b61019b366004610842565b6105a5565b61018b6101ae366004610875565b6001600160a01b03919091166000908152600660205260409020805460ff191660ff909216919091179055565b60055461012b90610100900460ff1681565b61014e6101fb3660046108a8565b610606565b600054610213906001600160a01b031681565b6040516001600160a01b039091168152602001610115565b61012b61071d565b61018b610241366004610842565b600580549115156101000261ff0019909216919091179055565b6101076102693660046108a8565b60066020526000908152604090205460ff1681565b61018b61028c3660046108c3565b6007805460ff191660ff92909216919091179055565b61018b6102b03660046108a8565b61073c565b60015460405163cfed19f760e01b81526001600160a01b038481166004830152600092839291169063cfed19f790602401602060405180830381865afa158015610303573d6000803e3d6000fd5b505050506040513d601f19601f8201168201806040525081019061032791906108de565b90506000610335848361090d565b90506000600160009054906101000a90046001600160a01b03166001600160a01b031663a13036166040518163ffffffff1660e01b8152600401602060405180830381865afa15801561038c573d6000803e3d6000fd5b505050506040513d601f19601f820116820180604052508101906103b091906108de565b90506000816103c0856064610920565b6103ca9190610937565b90506000826103da856064610920565b6103e49190610937565b9050600082821115610401576103fa8383610959565b905061040e565b61040b8284610959565b90505b60075461041f9060ff16606461096c565b60ff16811161043757600096505050505050506104a0565b60006064826004546104499190610920565b610454600285610a73565b6003546104619190610920565b61046b919061090d565b6104759190610937565b9050600254811115610492576002549750505050505050506104a0565b96506104a095505050505050565b92915050565b60015460405163cfed19f760e01b81526001600160a01b038481166004830152600092839291169063cfed19f790602401602060405180830381865afa1580156104f4573d6000803e3d6000fd5b505050506040513d601f19601f8201168201806040525081019061051891906108de565b6001600160a01b03851660009081526006602052604081205491925060ff9091169081900361054c576000925050506104a0565b60075460009061055f9060ff168361090d565b90506000606461056f8784610920565b6105799190610937565b9050838111156105985761058d8482610959565b9450505050506104a0565b60009450505050506104a0565b6000546001600160a01b031633146105f35760405162461bcd60e51b815260206004820152600c60248201526b15539055551213d49256915160a21b60448201526064015b60405180910390fd5b6005805460ff1916911515919091179055565b600080600160009054906101000a90046001600160a01b03166001600160a01b031663a13036166040518163ffffffff1660e01b8152600401602060405180830381865afa15801561065c573d6000803e3d6000fd5b505050506040513d601f19601f8201168201806040525081019061068091906108de565b9050806000036106935750600092915050565b60015460405163cfed19f760e01b81526001600160a01b0385811660048301528392169063cfed19f790602401602060405180830381865afa1580156106dd573d6000803e3d6000fd5b505050506040513d601f19601f8201168201806040525081019061070191906108de565b61070c906064610920565b6107169190610937565b9392505050565b600554600090610100900460ff16156107365750600190565b50600090565b6000546001600160a01b031633146107855760405162461bcd60e51b815260206004820152600c60248201526b15539055551213d49256915160a21b60448201526064016105ea565b600080546001600160a01b0319166001600160a01b0383169081178255604051909133917f8be0079c531659141344cd1fd0a4f28419497f9722a3daafe3b4186f6b6457e09190a350565b80356001600160a01b03811681146107e757600080fd5b919050565b600080604083850312156107ff57600080fd5b610808836107d0565b946020939093013593505050565b60008060006060848603121561082b57600080fd5b505081359360208301359350604090920135919050565b60006020828403121561085457600080fd5b8135801515811461071657600080fd5b803560ff811681146107e757600080fd5b6000806040838503121561088857600080fd5b610891836107d0565b915061089f60208401610864565b90509250929050565b6000602082840312156108ba57600080fd5b610716826107d0565b6000602082840312156108d557600080fd5b61071682610864565b6000602082840312156108f057600080fd5b5051919050565b634e487b7160e01b600052601160045260246000fd5b808201808211156104a0576104a06108f7565b80820281158282048414176104a0576104a06108f7565b60008261095457634e487b7160e01b600052601260045260246000fd5b500490565b818103818111156104a0576104a06108f7565b60ff8181168382160290811690818114610988576109886108f7565b5092915050565b600181815b808511156109ca5781600019048211156109b0576109b06108f7565b808516156109bd57918102915b93841c9390800290610994565b509250929050565b6000826109e1575060016104a0565b816109ee575060006104a0565b8160018114610a045760028114610a0e57610a2a565b60019150506104a0565b60ff841115610a1f57610a1f6108f7565b50506001821b6104a0565b5060208310610133831016604e8410600b8410161715610a4d575081810a6104a0565b610a57838361098f565b8060001904821115610a6b57610a6b6108f7565b029392505050565b600061071660ff8416836109d256fea26469706673582212203f4808ffbc90c2f140832fba09712d5ad9ae884004c930e2aae17491a94a20cf64736f6c63430008150033",
    "linkReferences": {}
  },
  "methodIdentifiers": {
    "allowRedemptions(bool)": "36b994a1",
    "allowedDeviation()": "05b182ea",
    "calculatePenalty(address,uint256)": "1dc0da1c",
    "calculatePercentage(address)": "7afa1f80",
    "enablePenalty(bool)": "c2e718d0",
    "isPenaltyEnabled()": "9b4a0f61",
    "maxDepositWithoutPenalty(address,uint256)": "224fada6",
    "owner()": "8da5cb5b",
    "penaltyEnabled()": "556a2c5f",
    "redemptionsAllowed()": "18e44e96",
    "setMaxDeviation(uint8)": "e2affde5",
    "setPenaltyParameters(uint256,uint256,uint256)": "275469db",
    "setWeight(address,uint8)": "50e03af3",
    "stablecoinWeights(address)": "c8c8d49b",
    "transferOwnership(address)": "f2fde38b"
  },
  "id": 20
}