{
  "abi": [
    {
      "inputs": [],
      "name": "DSR_MANAGER",
      "outputs": [
        {
          "internalType": "contract IDSRManager",
          "name": "",
          "type": "address"
        }
      ],
      "stateMutability": "view",
      "type": "function"
    },
    {
      "inputs": [],
      "name": "currentEpochYield",
      "outputs": [
        {
          "internalType": "uint256",
          "name": "",
          "type": "uint256"
        }
      ],
      "stateMutability": "view",
      "type": "function"
    },
    {
      "inputs": [
        {
          "internalType": "address",
          "name": "_from",
          "type": "address"
        },
        {
          "internalType": "uint256",
          "name": "_amount",
          "type": "uint256"
        }
      ],
      "name": "deposit",
      "outputs": [],
      "stateMutability": "nonpayable",
      "type": "function"
    },
    {
      "inputs": [],
      "name": "deposited",
      "outputs": [
        {
          "internalType": "uint256",
          "name": "",
          "type": "uint256"
        }
      ],
      "stateMutability": "view",
      "type": "function"
    },
    {
      "inputs": [
        {
          "internalType": "address",
          "name": "_address",
          "type": "address"
        }
      ],
      "name": "getBalance",
      "outputs": [
        {
          "internalType": "uint256",
          "name": "",
          "type": "uint256"
        }
      ],
      "stateMutability": "nonpayable",
      "type": "function"
    },
    {
      "inputs": [
        {
          "internalType": "address",
          "name": "_from",
          "type": "address"
        },
        {
          "internalType": "uint256",
          "name": "_amount",
          "type": "uint256"
        }
      ],
      "name": "withdraw",
      "outputs": [],
      "stateMutability": "nonpayable",
      "type": "function"
    }
  ],
  "bytecode": {
    "object": "0x608060405234801561001057600080fd5b50610454806100206000396000f3fe608060405234801561001057600080fd5b50600436106100625760003560e01c806313202c1b1461006757806347e7ef2414610083578063dc42e46314610098578063eef49ee3146100cb578063f3fef3a3146100d4578063f8b2cb4f146100e7575b600080fd5b61007060015481565b6040519081526020015b60405180910390f35b61009661009136600461039e565b6100fa565b005b6100b373373238337bfe1146fb49989fc222523f83081ddb81565b6040516001600160a01b03909116815260200161007a565b61007060005481565b6100966100e236600461039e565b6102a6565b6100706100f53660046103c8565b6102f8565b6040516323b872dd60e01b815273d513e4537510c75e24f941f159b7cafa74e7b3b9600482015230602482015260448101829052735f6ae08b8aeb7078cf2f96afb089d7c9f51da47d906323b872dd906064016020604051808303816000875af115801561016c573d6000803e3d6000fd5b505050506040513d601f19601f8201168201806040525081019061019091906103e3565b5060405163095ea7b360e01b815273373238337bfe1146fb49989fc222523f83081ddb600482015260248101829052735f6ae08b8aeb7078cf2f96afb089d7c9f51da47d9063095ea7b3906044016020604051808303816000875af11580156101fd573d6000803e3d6000fd5b505050506040513d601f19601f8201168201806040525081019061022191906103e3565b50604051633b4da69f60e01b815273d513e4537510c75e24f941f159b7cafa74e7b3b960048201526024810182905273373238337bfe1146fb49989fc222523f83081ddb90633b4da69f906044015b600060405180830381600087803b15801561028a57600080fd5b505af115801561029e573d6000803e3d6000fd5b505050505050565b60405163ef693bed60e01b815273d513e4537510c75e24f941f159b7cafa74e7b3b960048201526024810182905273373238337bfe1146fb49989fc222523f83081ddb9063ef693bed90604401610270565b60405163d7f7098f60e01b81526001600160a01b0382166004820152600090819073373238337bfe1146fb49989fc222523f83081ddb9063d7f7098f906024016020604051808303816000875af1158015610357573d6000803e3d6000fd5b505050506040513d601f19601f8201168201806040525081019061037b9190610405565b9392505050565b80356001600160a01b038116811461039957600080fd5b919050565b600080604083850312156103b157600080fd5b6103ba83610382565b946020939093013593505050565b6000602082840312156103da57600080fd5b61037b82610382565b6000602082840312156103f557600080fd5b8151801515811461037b57600080fd5b60006020828403121561041757600080fd5b505191905056fea26469706673582212205cacf66cf037270e1194e77b23007fc4df3060bf1bb79e233e17516bb8a7a16364736f6c63430008150033",
    "linkReferences": {}
  },
  "methodIdentifiers": {
    "DSR_MANAGER()": "dc42e463",
    "currentEpochYield()": "13202c1b",
    "deposit(address,uint256)": "47e7ef24",
    "deposited()": "eef49ee3",
    "getBalance(address)": "f8b2cb4f",
    "withdraw(address,uint256)": "f3fef3a3"
  },
  "id": 47
}