{
  "abi": [
    {
      "inputs": [
        {
          "internalType": "uint256",
          "name": "_amount",
          "type": "uint256"
        }
      ],
      "name": "depositUSDC",
      "outputs": [],
      "stateMutability": "nonpayable",
      "type": "function"
    }
  ],
  "bytecode": {
    "object": "0x608060405234801561001057600080fd5b506102f5806100206000396000f3fe608060405234801561001057600080fd5b506004361061002b5760003560e01c8063f688bcfb14610030575b600080fd5b61004361003e366004610254565b610045565b005b6040516323b872dd60e01b81523360048201523060248201526044810182905273d513e4537510c75e24f941f159b7cafa74e7b3b9906323b872dd906064016020604051808303816000875af11580156100a3573d6000803e3d6000fd5b505050506040513d601f19601f820116820180604052508101906100c7919061026d565b50600073d64dde119f11c88850fd596be11ce398cc5893e690506000816001600160a01b031663026b1d5f6040518163ffffffff1660e01b8152600401602060405180830381865afa158015610121573d6000803e3d6000fd5b505050506040513d601f19601f820116820180604052508101906101459190610296565b60405163095ea7b360e01b81526001600160a01b03821660048201526024810185905290915073d513e4537510c75e24f941f159b7cafa74e7b3b99063095ea7b3906044016020604051808303816000875af11580156101a9573d6000803e3d6000fd5b505050506040513d601f19601f820116820180604052508101906101cd919061026d565b5060405163e8eda9df60e01b815273d513e4537510c75e24f941f159b7cafa74e7b3b9600482015260248101849052306044820152600060648201526001600160a01b0382169063e8eda9df90608401600060405180830381600087803b15801561023757600080fd5b505af115801561024b573d6000803e3d6000fd5b50505050505050565b60006020828403121561026657600080fd5b5035919050565b60006020828403121561027f57600080fd5b8151801515811461028f57600080fd5b9392505050565b6000602082840312156102a857600080fd5b81516001600160a01b038116811461028f57600080fdfea264697066735822122022bc862576e399e90362b0c0f032a2a4bd65fd935ad410b6366c90979c8eb39064736f6c63430008140033",
    "linkReferences": {}
  },
  "methodIdentifiers": {
    "depositUSDC(uint256)": "f688bcfb"
  },
  "id": 5
}