{
  "abi": [
    {
      "inputs": [],
      "name": "deployedTokens",
      "outputs": [
        {
          "internalType": "uint256",
          "name": "",
          "type": "uint256"
        }
      ],
      "stateMutability": "view",
      "type": "function"
    },
    {
      "inputs": [
        {
          "internalType": "address",
          "name": "_from",
          "type": "address"
        },
        {
          "internalType": "uint256",
          "name": "_amount",
          "type": "uint256"
        }
      ],
      "name": "deposit",
      "outputs": [],
      "stateMutability": "nonpayable",
      "type": "function"
    },
    {
      "inputs": [
        {
          "internalType": "address",
          "name": "_address",
          "type": "address"
        }
      ],
      "name": "getBalance",
      "outputs": [
        {
          "internalType": "uint256",
          "name": "",
          "type": "uint256"
        }
      ],
      "stateMutability": "view",
      "type": "function"
    },
    {
      "inputs": [
        {
          "internalType": "address",
          "name": "_from",
          "type": "address"
        },
        {
          "internalType": "uint256",
          "name": "_amount",
          "type": "uint256"
        }
      ],
      "name": "withdraw",
      "outputs": [],
      "stateMutability": "nonpayable",
      "type": "function"
    }
  ],
  "bytecode": {
    "object": "0x60806040819052600180546001600160a01b031990811673d64dde119f11c88850fd596be11ce398cc5893e690811790925560028054909116737e4025a4e9ae4e7eca533cdff1ba269edd31146f17905563026b1d5f60e01b82529063026b1d5f90608490602090600481865afa15801561007e573d6000803e3d6000fd5b505050506040513d601f19601f820116820180604052508101906100a291906100d4565b600380546001600160a01b0319166001600160a01b03929092169190911790553480156100ce57600080fd5b50610104565b6000602082840312156100e657600080fd5b81516001600160a01b03811681146100fd57600080fd5b9392505050565b61079c806101136000396000f3fe608060405234801561001057600080fd5b506004361061004c5760003560e01c806347e7ef24146100515780636cd47f3314610066578063f3fef3a314610081578063f8b2cb4f14610094575b600080fd5b61006461005f3660046105c7565b6100a7565b005b61006f60005481565b60405190815260200160405180910390f35b61006461008f3660046105c7565b61027b565b61006f6100a23660046105f1565b610451565b6040516323b872dd60e01b815273d26800a483a3a7181464023ea19882d5e1c962f460048201523060248201526044810182905273d513e4537510c75e24f941f159b7cafa74e7b3b9906323b872dd906064016020604051808303816000875af1158015610119573d6000803e3d6000fd5b505050506040513d601f19601f8201168201806040525081019061013d9190610613565b5060035460405163095ea7b360e01b81526001600160a01b0390911660048201526024810182905273d513e4537510c75e24f941f159b7cafa74e7b3b99063095ea7b3906044016020604051808303816000875af11580156101a3573d6000803e3d6000fd5b505050506040513d601f19601f820116820180604052508101906101c79190610613565b5060035460405163e8eda9df60e01b815273d513e4537510c75e24f941f159b7cafa74e7b3b960048201526024810183905273d26800a483a3a7181464023ea19882d5e1c962f46044820152600060648201526001600160a01b039091169063e8eda9df90608401600060405180830381600087803b15801561024957600080fd5b505af115801561025d573d6000803e3d6000fd5b5050505080600080828254610272919061064b565b90915550505050565b6040516323b872dd60e01b815273d26800a483a3a7181464023ea19882d5e1c962f460048201523060248201526044810182905273c68ee187eb44227dceab89ce789193027887a30d906323b872dd906064016020604051808303816000875af11580156102ed573d6000803e3d6000fd5b505050506040513d601f19601f820116820180604052508101906103119190610613565b5060035460405163095ea7b360e01b81526001600160a01b0390911660048201526024810182905273c68ee187eb44227dceab89ce789193027887a30d9063095ea7b3906044016020604051808303816000875af1158015610377573d6000803e3d6000fd5b505050506040513d601f19601f8201168201806040525081019061039b9190610613565b50600354604051631a4ca37b60e21b815273d513e4537510c75e24f941f159b7cafa74e7b3b960048201526024810183905273d26800a483a3a7181464023ea19882d5e1c962f460448201526001600160a01b03909116906369328dec906064016020604051808303816000875af115801561041b573d6000803e3d6000fd5b505050506040513d601f19601f8201168201806040525081019061043f9190610664565b5080600080828254610272919061067d565b6040516370a0823160e01b81526001600160a01b038216600482015260009073c68ee187eb44227dceab89ce789193027887a30d90829082906370a0823190602401602060405180830381865afa1580156104b0573d6000803e3d6000fd5b505050506040513d601f19601f820116820180604052508101906104d49190610664565b6002546040516335ea6a7560e01b815273d513e4537510c75e24f941f159b7cafa74e7b3b960048201529192506000916001600160a01b03909116906335ea6a759060240161018060405180830381865afa158015610537573d6000803e3d6000fd5b505050506040513d601f19601f8201168201806040525081019061055b9190610690565b5050995050505050505050505060006b033b2e3c9fd0803ce80000008284610583919061072d565b61058d9190610744565b6000805491925061059e828461067d565b5091979650505050505050565b80356001600160a01b03811681146105c257600080fd5b919050565b600080604083850312156105da57600080fd5b6105e3836105ab565b946020939093013593505050565b60006020828403121561060357600080fd5b61060c826105ab565b9392505050565b60006020828403121561062557600080fd5b8151801515811461060c57600080fd5b634e487b7160e01b600052601160045260246000fd5b8082018082111561065e5761065e610635565b92915050565b60006020828403121561067657600080fd5b5051919050565b8181038181111561065e5761065e610635565b6000806000806000806000806000806000806101808d8f0312156106b357600080fd5b8c519b5060208d01519a5060408d0151995060608d0151985060808d0151975060a08d0151965060c08d0151955060e08d015194506101008d015193506101208d015192506101408d015191506101608d015164ffffffffff8116811461071957600080fd5b809150509295989b509295989b509295989b565b808202811582820484141761065e5761065e610635565b60008261076157634e487b7160e01b600052601260045260246000fd5b50049056fea2646970667358221220fe28c7c77ec9226413c382389ff8ab68b9dbfbbef7d7598dd4c0caf14e03047364736f6c63430008150033",
    "linkReferences": {}
  },
  "methodIdentifiers": {
    "deployedTokens()": "6cd47f33",
    "deposit(address,uint256)": "47e7ef24",
    "getBalance(address)": "f8b2cb4f",
    "withdraw(address,uint256)": "f3fef3a3"
  },
  "id": 49
}