{
  "abi": [
    {
      "inputs": [],
      "stateMutability": "nonpayable",
      "type": "constructor"
    },
    {
      "anonymous": false,
      "inputs": [
        {
          "indexed": true,
          "internalType": "address",
          "name": "owner",
          "type": "address"
        },
        {
          "indexed": true,
          "internalType": "address",
          "name": "spender",
          "type": "address"
        },
        {
          "indexed": false,
          "internalType": "uint256",
          "name": "value",
          "type": "uint256"
        }
      ],
      "name": "Approval",
      "type": "event"
    },
    {
      "anonymous": false,
      "inputs": [
        {
          "indexed": true,
          "internalType": "address",
          "name": "account",
          "type": "address"
        },
        {
          "indexed": false,
          "internalType": "bool",
          "name": "isExcluded",
          "type": "bool"
        }
      ],
      "name": "ExcludeFromFees",
      "type": "event"
    },
    {
      "anonymous": false,
      "inputs": [
        {
          "indexed": true,
          "internalType": "address",
          "name": "previousOwner",
          "type": "address"
        },
        {
          "indexed": true,
          "internalType": "address",
          "name": "newOwner",
          "type": "address"
        }
      ],
      "name": "OwnershipTransferred",
      "type": "event"
    },
    {
      "anonymous": false,
      "inputs": [
        {
          "indexed": true,
          "internalType": "address",
          "name": "pair",
          "type": "address"
        },
        {
          "indexed": true,
          "internalType": "bool",
          "name": "value",
          "type": "bool"
        }
      ],
      "name": "SetAutomatedMarketMakerPair",
      "type": "event"
    },
    {
      "anonymous": false,
      "inputs": [
        {
          "indexed": false,
          "internalType": "uint256",
          "name": "tokensSwapped",
          "type": "uint256"
        },
        {
          "indexed": false,
          "internalType": "uint256",
          "name": "ethReceived",
          "type": "uint256"
        },
        {
          "indexed": false,
          "internalType": "uint256",
          "name": "tokensIntoLiquidity",
          "type": "uint256"
        }
      ],
      "name": "SwapAndLiquify",
      "type": "event"
    },
    {
      "anonymous": false,
      "inputs": [
        {
          "indexed": true,
          "internalType": "address",
          "name": "from",
          "type": "address"
        },
        {
          "indexed": true,
          "internalType": "address",
          "name": "to",
          "type": "address"
        },
        {
          "indexed": false,
          "internalType": "uint256",
          "name": "value",
          "type": "uint256"
        }
      ],
      "name": "Transfer",
      "type": "event"
    },
    {
      "anonymous": false,
      "inputs": [
        {
          "indexed": true,
          "internalType": "address",
          "name": "newAddress",
          "type": "address"
        },
        {
          "indexed": true,
          "internalType": "address",
          "name": "oldAddress",
          "type": "address"
        }
      ],
      "name": "UpdateUniswapV2Router",
      "type": "event"
    },
    {
      "anonymous": false,
      "inputs": [
        {
          "indexed": true,
          "internalType": "address",
          "name": "newWallet",
          "type": "address"
        },
        {
          "indexed": true,
          "internalType": "address",
          "name": "oldWallet",
          "type": "address"
        }
      ],
      "name": "revShareWalletUpdated",
      "type": "event"
    },
    {
      "anonymous": false,
      "inputs": [
        {
          "indexed": true,
          "internalType": "address",
          "name": "newWallet",
          "type": "address"
        },
        {
          "indexed": true,
          "internalType": "address",
          "name": "oldWallet",
          "type": "address"
        }
      ],
      "name": "teamWalletUpdated",
      "type": "event"
    },
    {
      "inputs": [
        {
          "internalType": "address",
          "name": "",
          "type": "address"
        }
      ],
      "name": "_isExcludedMaxTransactionAmount",
      "outputs": [
        {
          "internalType": "bool",
          "name": "",
          "type": "bool"
        }
      ],
      "stateMutability": "view",
      "type": "function"
    },
    {
      "inputs": [
        {
          "internalType": "address",
          "name": "owner",
          "type": "address"
        },
        {
          "internalType": "address",
          "name": "spender",
          "type": "address"
        }
      ],
      "name": "allowance",
      "outputs": [
        {
          "internalType": "uint256",
          "name": "",
          "type": "uint256"
        }
      ],
      "stateMutability": "view",
      "type": "function"
    },
    {
      "inputs": [
        {
          "internalType": "address",
          "name": "spender",
          "type": "address"
        },
        {
          "internalType": "uint256",
          "name": "amount",
          "type": "uint256"
        }
      ],
      "name": "approve",
      "outputs": [
        {
          "internalType": "bool",
          "name": "",
          "type": "bool"
        }
      ],
      "stateMutability": "nonpayable",
      "type": "function"
    },
    {
      "inputs": [
        {
          "internalType": "address",
          "name": "",
          "type": "address"
        }
      ],
      "name": "automatedMarketMakerPairs",
      "outputs": [
        {
          "internalType": "bool",
          "name": "",
          "type": "bool"
        }
      ],
      "stateMutability": "view",
      "type": "function"
    },
    {
      "inputs": [
        {
          "internalType": "address",
          "name": "account",
          "type": "address"
        }
      ],
      "name": "balanceOf",
      "outputs": [
        {
          "internalType": "uint256",
          "name": "",
          "type": "uint256"
        }
      ],
      "stateMutability": "view",
      "type": "function"
    },
    {
      "inputs": [
        {
          "internalType": "address",
          "name": "_addr",
          "type": "address"
        }
      ],
      "name": "blacklist",
      "outputs": [],
      "stateMutability": "nonpayable",
      "type": "function"
    },
    {
      "inputs": [
        {
          "internalType": "address",
          "name": "lpAddress",
          "type": "address"
        }
      ],
      "name": "blacklistLiquidityPool",
      "outputs": [],
      "stateMutability": "nonpayable",
      "type": "function"
    },
    {
      "inputs": [],
      "name": "blacklistRenounced",
      "outputs": [
        {
          "internalType": "bool",
          "name": "",
          "type": "bool"
        }
      ],
      "stateMutability": "view",
      "type": "function"
    },
    {
      "inputs": [],
      "name": "buyLiquidityFee",
      "outputs": [
        {
          "internalType": "uint256",
          "name": "",
          "type": "uint256"
        }
      ],
      "stateMutability": "view",
      "type": "function"
    },
    {
      "inputs": [],
      "name": "buyRevShareFee",
      "outputs": [
        {
          "internalType": "uint256",
          "name": "",
          "type": "uint256"
        }
      ],
      "stateMutability": "view",
      "type": "function"
    },
    {
      "inputs": [],
      "name": "buyTeamFee",
      "outputs": [
        {
          "internalType": "uint256",
          "name": "",
          "type": "uint256"
        }
      ],
      "stateMutability": "view",
      "type": "function"
    },
    {
      "inputs": [],
      "name": "buyTotalFees",
      "outputs": [
        {
          "internalType": "uint256",
          "name": "",
          "type": "uint256"
        }
      ],
      "stateMutability": "view",
      "type": "function"
    },
    {
      "inputs": [],
      "name": "deadAddress",
      "outputs": [
        {
          "internalType": "address",
          "name": "",
          "type": "address"
        }
      ],
      "stateMutability": "view",
      "type": "function"
    },
    {
      "inputs": [],
      "name": "decimals",
      "outputs": [
        {
          "internalType": "uint8",
          "name": "",
          "type": "uint8"
        }
      ],
      "stateMutability": "view",
      "type": "function"
    },
    {
      "inputs": [
        {
          "internalType": "address",
          "name": "spender",
          "type": "address"
        },
        {
          "internalType": "uint256",
          "name": "subtractedValue",
          "type": "uint256"
        }
      ],
      "name": "decreaseAllowance",
      "outputs": [
        {
          "internalType": "bool",
          "name": "",
          "type": "bool"
        }
      ],
      "stateMutability": "nonpayable",
      "type": "function"
    },
    {
      "inputs": [],
      "name": "enableTrading",
      "outputs": [],
      "stateMutability": "nonpayable",
      "type": "function"
    },
    {
      "inputs": [
        {
          "internalType": "address",
          "name": "account",
          "type": "address"
        },
        {
          "internalType": "bool",
          "name": "excluded",
          "type": "bool"
        }
      ],
      "name": "excludeFromFees",
      "outputs": [],
      "stateMutability": "nonpayable",
      "type": "function"
    },
    {
      "inputs": [
        {
          "internalType": "address",
          "name": "updAds",
          "type": "address"
        },
        {
          "internalType": "bool",
          "name": "isEx",
          "type": "bool"
        }
      ],
      "name": "excludeFromMaxTransaction",
      "outputs": [],
      "stateMutability": "nonpayable",
      "type": "function"
    },
    {
      "inputs": [
        {
          "internalType": "address",
          "name": "spender",
          "type": "address"
        },
        {
          "internalType": "uint256",
          "name": "addedValue",
          "type": "uint256"
        }
      ],
      "name": "increaseAllowance",
      "outputs": [
        {
          "internalType": "bool",
          "name": "",
          "type": "bool"
        }
      ],
      "stateMutability": "nonpayable",
      "type": "function"
    },
    {
      "inputs": [
        {
          "internalType": "address",
          "name": "account",
          "type": "address"
        }
      ],
      "name": "isBlacklisted",
      "outputs": [
        {
          "internalType": "bool",
          "name": "",
          "type": "bool"
        }
      ],
      "stateMutability": "view",
      "type": "function"
    },
    {
      "inputs": [
        {
          "internalType": "address",
          "name": "account",
          "type": "address"
        }
      ],
      "name": "isExcludedFromFees",
      "outputs": [
        {
          "internalType": "bool",
          "name": "",
          "type": "bool"
        }
      ],
      "stateMutability": "view",
      "type": "function"
    },
    {
      "inputs": [],
      "name": "limitsInEffect",
      "outputs": [
        {
          "internalType": "bool",
          "name": "",
          "type": "bool"
        }
      ],
      "stateMutability": "view",
      "type": "function"
    },
    {
      "inputs": [],
      "name": "maxTransactionAmount",
      "outputs": [
        {
          "internalType": "uint256",
          "name": "",
          "type": "uint256"
        }
      ],
      "stateMutability": "view",
      "type": "function"
    },
    {
      "inputs": [],
      "name": "maxWallet",
      "outputs": [
        {
          "internalType": "uint256",
          "name": "",
          "type": "uint256"
        }
      ],
      "stateMutability": "view",
      "type": "function"
    },
    {
      "inputs": [],
      "name": "name",
      "outputs": [
        {
          "internalType": "string",
          "name": "",
          "type": "string"
        }
      ],
      "stateMutability": "view",
      "type": "function"
    },
    {
      "inputs": [],
      "name": "owner",
      "outputs": [
        {
          "internalType": "address",
          "name": "",
          "type": "address"
        }
      ],
      "stateMutability": "view",
      "type": "function"
    },
    {
      "inputs": [],
      "name": "preMigrationPhase",
      "outputs": [
        {
          "internalType": "bool",
          "name": "",
          "type": "bool"
        }
      ],
      "stateMutability": "view",
      "type": "function"
    },
    {
      "inputs": [
        {
          "internalType": "address",
          "name": "",
          "type": "address"
        }
      ],
      "name": "preMigrationTransferrable",
      "outputs": [
        {
          "internalType": "bool",
          "name": "",
          "type": "bool"
        }
      ],
      "stateMutability": "view",
      "type": "function"
    },
    {
      "inputs": [],
      "name": "removeLimits",
      "outputs": [
        {
          "internalType": "bool",
          "name": "",
          "type": "bool"
        }
      ],
      "stateMutability": "nonpayable",
      "type": "function"
    },
    {
      "inputs": [],
      "name": "renounceBlacklist",
      "outputs": [],
      "stateMutability": "nonpayable",
      "type": "function"
    },
    {
      "inputs": [],
      "name": "renounceOwnership",
      "outputs": [],
      "stateMutability": "nonpayable",
      "type": "function"
    },
    {
      "inputs": [],
      "name": "revShareWallet",
      "outputs": [
        {
          "internalType": "address",
          "name": "",
          "type": "address"
        }
      ],
      "stateMutability": "view",
      "type": "function"
    },
    {
      "inputs": [],
      "name": "sellLiquidityFee",
      "outputs": [
        {
          "internalType": "uint256",
          "name": "",
          "type": "uint256"
        }
      ],
      "stateMutability": "view",
      "type": "function"
    },
    {
      "inputs": [],
      "name": "sellRevShareFee",
      "outputs": [
        {
          "internalType": "uint256",
          "name": "",
          "type": "uint256"
        }
      ],
      "stateMutability": "view",
      "type": "function"
    },
    {
      "inputs": [],
      "name": "sellTeamFee",
      "outputs": [
        {
          "internalType": "uint256",
          "name": "",
          "type": "uint256"
        }
      ],
      "stateMutability": "view",
      "type": "function"
    },
    {
      "inputs": [],
      "name": "sellTotalFees",
      "outputs": [
        {
          "internalType": "uint256",
          "name": "",
          "type": "uint256"
        }
      ],
      "stateMutability": "view",
      "type": "function"
    },
    {
      "inputs": [
        {
          "internalType": "address",
          "name": "pair",
          "type": "address"
        },
        {
          "internalType": "bool",
          "name": "value",
          "type": "bool"
        }
      ],
      "name": "setAutomatedMarketMakerPair",
      "outputs": [],
      "stateMutability": "nonpayable",
      "type": "function"
    },
    {
      "inputs": [
        {
          "internalType": "address",
          "name": "_addr",
          "type": "address"
        },
        {
          "internalType": "bool",
          "name": "isAuthorized",
          "type": "bool"
        }
      ],
      "name": "setPreMigrationTransferable",
      "outputs": [],
      "stateMutability": "nonpayable",
      "type": "function"
    },
    {
      "inputs": [],
      "name": "swapEnabled",
      "outputs": [
        {
          "internalType": "bool",
          "name": "",
          "type": "bool"
        }
      ],
      "stateMutability": "view",
      "type": "function"
    },
    {
      "inputs": [],
      "name": "swapTokensAtAmount",
      "outputs": [
        {
          "internalType": "uint256",
          "name": "",
          "type": "uint256"
        }
      ],
      "stateMutability": "view",
      "type": "function"
    },
    {
      "inputs": [],
      "name": "symbol",
      "outputs": [
        {
          "internalType": "string",
          "name": "",
          "type": "string"
        }
      ],
      "stateMutability": "view",
      "type": "function"
    },
    {
      "inputs": [],
      "name": "teamWallet",
      "outputs": [
        {
          "internalType": "address",
          "name": "",
          "type": "address"
        }
      ],
      "stateMutability": "view",
      "type": "function"
    },
    {
      "inputs": [],
      "name": "tokensForLiquidity",
      "outputs": [
        {
          "internalType": "uint256",
          "name": "",
          "type": "uint256"
        }
      ],
      "stateMutability": "view",
      "type": "function"
    },
    {
      "inputs": [],
      "name": "tokensForRevShare",
      "outputs": [
        {
          "internalType": "uint256",
          "name": "",
          "type": "uint256"
        }
      ],
      "stateMutability": "view",
      "type": "function"
    },
    {
      "inputs": [],
      "name": "tokensForTeam",
      "outputs": [
        {
          "internalType": "uint256",
          "name": "",
          "type": "uint256"
        }
      ],
      "stateMutability": "view",
      "type": "function"
    },
    {
      "inputs": [],
      "name": "totalSupply",
      "outputs": [
        {
          "internalType": "uint256",
          "name": "",
          "type": "uint256"
        }
      ],
      "stateMutability": "view",
      "type": "function"
    },
    {
      "inputs": [],
      "name": "tradingActive",
      "outputs": [
        {
          "internalType": "bool",
          "name": "",
          "type": "bool"
        }
      ],
      "stateMutability": "view",
      "type": "function"
    },
    {
      "inputs": [
        {
          "internalType": "address",
          "name": "recipient",
          "type": "address"
        },
        {
          "internalType": "uint256",
          "name": "amount",
          "type": "uint256"
        }
      ],
      "name": "transfer",
      "outputs": [
        {
          "internalType": "bool",
          "name": "",
          "type": "bool"
        }
      ],
      "stateMutability": "nonpayable",
      "type": "function"
    },
    {
      "inputs": [
        {
          "internalType": "address",
          "name": "sender",
          "type": "address"
        },
        {
          "internalType": "address",
          "name": "recipient",
          "type": "address"
        },
        {
          "internalType": "uint256",
          "name": "amount",
          "type": "uint256"
        }
      ],
      "name": "transferFrom",
      "outputs": [
        {
          "internalType": "bool",
          "name": "",
          "type": "bool"
        }
      ],
      "stateMutability": "nonpayable",
      "type": "function"
    },
    {
      "inputs": [
        {
          "internalType": "address",
          "name": "newOwner",
          "type": "address"
        }
      ],
      "name": "transferOwnership",
      "outputs": [],
      "stateMutability": "nonpayable",
      "type": "function"
    },
    {
      "inputs": [
        {
          "internalType": "address",
          "name": "_addr",
          "type": "address"
        }
      ],
      "name": "unblacklist",
      "outputs": [],
      "stateMutability": "nonpayable",
      "type": "function"
    },
    {
      "inputs": [],
      "name": "uniswapV2Pair",
      "outputs": [
        {
          "internalType": "address",
          "name": "",
          "type": "address"
        }
      ],
      "stateMutability": "view",
      "type": "function"
    },
    {
      "inputs": [],
      "name": "uniswapV2Router",
      "outputs": [
        {
          "internalType": "contract IUniswapV2Router02",
          "name": "",
          "type": "address"
        }
      ],
      "stateMutability": "view",
      "type": "function"
    },
    {
      "inputs": [
        {
          "internalType": "uint256",
          "name": "_revShareFee",
          "type": "uint256"
        },
        {
          "internalType": "uint256",
          "name": "_liquidityFee",
          "type": "uint256"
        },
        {
          "internalType": "uint256",
          "name": "_teamFee",
          "type": "uint256"
        }
      ],
      "name": "updateBuyFees",
      "outputs": [],
      "stateMutability": "nonpayable",
      "type": "function"
    },
    {
      "inputs": [
        {
          "internalType": "uint256",
          "name": "newNum",
          "type": "uint256"
        }
      ],
      "name": "updateMaxTxnAmount",
      "outputs": [],
      "stateMutability": "nonpayable",
      "type": "function"
    },
    {
      "inputs": [
        {
          "internalType": "uint256",
          "name": "newNum",
          "type": "uint256"
        }
      ],
      "name": "updateMaxWalletAmount",
      "outputs": [],
      "stateMutability": "nonpayable",
      "type": "function"
    },
    {
      "inputs": [
        {
          "internalType": "address",
          "name": "newRevShareWallet",
          "type": "address"
        }
      ],
      "name": "updateRevShareWallet",
      "outputs": [],
      "stateMutability": "nonpayable",
      "type": "function"
    },
    {
      "inputs": [
        {
          "internalType": "uint256",
          "name": "_revShareFee",
          "type": "uint256"
        },
        {
          "internalType": "uint256",
          "name": "_liquidityFee",
          "type": "uint256"
        },
        {
          "internalType": "uint256",
          "name": "_teamFee",
          "type": "uint256"
        }
      ],
      "name": "updateSellFees",
      "outputs": [],
      "stateMutability": "nonpayable",
      "type": "function"
    },
    {
      "inputs": [
        {
          "internalType": "bool",
          "name": "enabled",
          "type": "bool"
        }
      ],
      "name": "updateSwapEnabled",
      "outputs": [],
      "stateMutability": "nonpayable",
      "type": "function"
    },
    {
      "inputs": [
        {
          "internalType": "uint256",
          "name": "newAmount",
          "type": "uint256"
        }
      ],
      "name": "updateSwapTokensAtAmount",
      "outputs": [
        {
          "internalType": "bool",
          "name": "",
          "type": "bool"
        }
      ],
      "stateMutability": "nonpayable",
      "type": "function"
    },
    {
      "inputs": [
        {
          "internalType": "address",
          "name": "newWallet",
          "type": "address"
        }
      ],
      "name": "updateTeamWallet",
      "outputs": [],
      "stateMutability": "nonpayable",
      "type": "function"
    },
    {
      "inputs": [
        {
          "internalType": "address",
          "name": "toAddr",
          "type": "address"
        }
      ],
      "name": "withdrawStuckEth",
      "outputs": [],
      "stateMutability": "nonpayable",
      "type": "function"
    },
    {
      "inputs": [
        {
          "internalType": "address",
          "name": "_token",
          "type": "address"
        },
        {
          "internalType": "address",
          "name": "_to",
          "type": "address"
        }
      ],
      "name": "withdrawStuckToken",
      "outputs": [],
      "stateMutability": "nonpayable",
      "type": "function"
    },
    {
      "inputs": [],
      "name": "withdrawStuckUnibot",
      "outputs": [],
      "stateMutability": "nonpayable",
      "type": "function"
    },
    {
      "stateMutability": "payable",
      "type": "receive"
    }
  ],
  "bytecode": {
    "object": "0x60c0604052600b805463ffffffff19166001908117909155601b805460ff191690911790553480156200003157600080fd5b5060405180604001604052806006815260200165155b9a589bdd60d21b815250604051806040016040528060068152602001651553925093d560d21b815250816003908162000081919062000762565b50600462000090828262000762565b505050620000ad620000a76200040660201b60201c565b6200040a565b737a250d5630b4cf539739df2c5dacb4c659f2488d620000cf8160016200045c565b6001600160a01b03811660808190526040805163c45a015560e01b8152905163c45a0155916004808201926020929091908290030181865afa1580156200011a573d6000803e3d6000fd5b505050506040513d601f19601f820116820180604052508101906200014091906200082e565b6001600160a01b031663c9c6539630836001600160a01b031663ad5c46486040518163ffffffff1660e01b8152600401602060405180830381865afa1580156200018e573d6000803e3d6000fd5b505050506040513d601f19601f82011682018060405250810190620001b491906200082e565b6040516001600160e01b031960e085901b1681526001600160a01b039283166004820152911660248201526044016020604051808303816000875af115801562000202573d6000803e3d6000fd5b505050506040513d601f19601f820116820180604052508101906200022891906200082e565b6001600160a01b031660a0819052620002439060016200045c565b60a05162000253906001620004d6565b69021e19e0c9bab24000006008819055600a55600260018180828169d3c21bcecceda10000006127106200028982600562000876565b62000295919062000896565b600955600e879055600f869055601085905584620002b48789620008b9565b620002c09190620008b9565b600d5560128490556013839055601482905581620002df8486620008b9565b620002eb9190620008b9565b601155600680546001600160a01b031916733fc3549272a5ac9902f20c94bd68ee344ec94dc2179055620003276005546001600160a01b031690565b600780546001600160a01b0319166001600160a01b0392831617905560055462000354911660016200052a565b620003613060016200052a565b6200037061dead60016200052a565b6200038f620003876005546001600160a01b031690565b60016200045c565b6200039c3060016200045c565b620003ab61dead60016200045c565b6001601c6000620003c46005546001600160a01b031690565b6001600160a01b031681526020810191909152604001600020805460ff1916911515919091179055620003f83382620005d4565b5050505050505050620008cf565b3390565b600580546001600160a01b038381166001600160a01b0319831681179093556040519116919082907f8be0079c531659141344cd1fd0a4f28419497f9722a3daafe3b4186f6b6457e090600090a35050565b6005546001600160a01b03163314620004ab5760405162461bcd60e51b8152602060048201819052602482015260008051602062003a8183398151915260448201526064015b60405180910390fd5b6001600160a01b03919091166000908152601960205260409020805460ff1916911515919091179055565b6001600160a01b0382166000818152601a6020526040808220805460ff191685151590811790915590519092917fffa9187bf1f18bf477bd0ea1bcbb64e93b6a98132473929edfce215cd9b16fab91a35050565b6005546001600160a01b03163314620005755760405162461bcd60e51b8152602060048201819052602482015260008051602062003a818339815191526044820152606401620004a2565b6001600160a01b038216600081815260186020908152604091829020805460ff191685151590811790915591519182527f9d8f7706ea1113d1a167b526eca956215946dd36cc7df39eb16180222d8b5df7910160405180910390a25050565b6001600160a01b0382166200062c5760405162461bcd60e51b815260206004820152601f60248201527f45524332303a206d696e7420746f20746865207a65726f2061646472657373006044820152606401620004a2565b8060026000828254620006409190620008b9565b90915550506001600160a01b038216600090815260208190526040812080548392906200066f908490620008b9565b90915550506040518181526001600160a01b038316906000907fddf252ad1be2c89b69c2b068fc378daa952ba7f163c4a11628f55a4df523b3ef9060200160405180910390a35050565b505050565b634e487b7160e01b600052604160045260246000fd5b600181811c90821680620006e957607f821691505b6020821081036200070a57634e487b7160e01b600052602260045260246000fd5b50919050565b601f821115620006b957600081815260208120601f850160051c81016020861015620007395750805b601f850160051c820191505b818110156200075a5782815560010162000745565b505050505050565b81516001600160401b038111156200077e576200077e620006be565b62000796816200078f8454620006d4565b8462000710565b602080601f831160018114620007ce5760008415620007b55750858301515b600019600386901b1c1916600185901b1785556200075a565b600085815260208120601f198616915b82811015620007ff57888601518255948401946001909101908401620007de565b50858210156200081e5787850151600019600388901b60f8161c191681555b5050505050600190811b01905550565b6000602082840312156200084157600080fd5b81516001600160a01b03811681146200085957600080fd5b9392505050565b634e487b7160e01b600052601160045260246000fd5b808202811582820484141762000890576200089062000860565b92915050565b600082620008b457634e487b7160e01b600052601260045260246000fd5b500490565b8082018082111562000890576200089062000860565b60805160a05161315b6200092660003960008181610606015281816113300152611ab50152600081816104ae01528181612a7e01528181612b3701528181612b7301528181612bed0152612c14015261315b6000f3fe6080604052600436106103c75760003560e01c80637cb332bb116101f2578063c17b5b8c1161010d578063e2f45605116100a0578063f8b45b051161006f578063f8b45b0514610b62578063f9f92be414610ae0578063fde83a3414610b78578063fe575a8714610b8e57600080fd5b8063e2f4560514610b00578063f11a24d314610b16578063f2fde38b14610b2c578063f637434214610b4c57600080fd5b8063d729715f116100dc578063d729715f14610a6e578063d85ba06314610a84578063dd62ed3e14610a9a578063e19b282314610ae057600080fd5b8063c17b5b8c146109f8578063c18bc19514610a18578063c8c8ebe414610a38578063d257b34f14610a4e57600080fd5b8063a457c2d711610185578063b62496f511610154578063b62496f514610969578063bbc0c74214610999578063bc205ad3146109b8578063c0246668146109d857600080fd5b8063a457c2d7146108e9578063a9059cbb14610909578063aa0e438814610929578063adee28ff1461094957600080fd5b8063924de9b7116101c1578063924de9b71461087e57806395d89b411461089e5780639a7a23d6146108b35780639c2e4ac6146108d357600080fd5b80637cb332bb1461080b5780638095d5641461082b5780638a8c523c1461084b5780638da5cb5b1461086057600080fd5b806349bd5a5e116102e25780636ddd1713116102755780637571336a116102445780637571336a1461078b57806375e3661e146107ab578063782c4e99146107cb5780637ca8448a146107eb57600080fd5b80636ddd17131461070b57806370a082311461072b578063715018a614610761578063751039fc1461077657600080fd5b806359927044116102b157806359927044146106ab5780635ea92ddd146106cb5780635f189361146106e05780636a486a8e146106f557600080fd5b806349bd5a5e146105f45780634a62bb65146106285780634e29e523146106425780634fbee1931461067257600080fd5b80631a8145bb1161035a57806327c8f8351161032957806327c8f83514610581578063313ce5671461059757806339509351146105b35780633dc599ff146105d357600080fd5b80631a8145bb14610513578063203e727e1461052957806323b872dd1461054b57806324b9f3c11461056b57600080fd5b8063156c2f3511610396578063156c2f35146104785780631694505e1461049c57806318160ddd146104e857806319eab042146104fd57600080fd5b806306fdde03146103d3578063095ea7b3146103fe5780630e922ca71461042e57806310d5de531461044857600080fd5b366103ce57005b600080fd5b3480156103df57600080fd5b506103e8610bc7565b6040516103f59190612ced565b60405180910390f35b34801561040a57600080fd5b5061041e610419366004612d50565b610c59565b60405190151581526020016103f5565b34801561043a57600080fd5b50601b5461041e9060ff1681565b34801561045457600080fd5b5061041e610463366004612d7c565b60196020526000908152604090205460ff1681565b34801561048457600080fd5b5061048e600e5481565b6040519081526020016103f5565b3480156104a857600080fd5b506104d07f000000000000000000000000000000000000000000000000000000000000000081565b6040516001600160a01b0390911681526020016103f5565b3480156104f457600080fd5b5060025461048e565b34801561050957600080fd5b5061048e60125481565b34801561051f57600080fd5b5061048e60165481565b34801561053557600080fd5b50610549610544366004612d99565b610c70565b005b34801561055757600080fd5b5061041e610566366004612db2565b610d56565b34801561057757600080fd5b5061048e60155481565b34801561058d57600080fd5b506104d061dead81565b3480156105a357600080fd5b50604051601281526020016103f5565b3480156105bf57600080fd5b5061041e6105ce366004612d50565b610e00565b3480156105df57600080fd5b50600b5461041e906301000000900460ff1681565b34801561060057600080fd5b506104d07f000000000000000000000000000000000000000000000000000000000000000081565b34801561063457600080fd5b50600b5461041e9060ff1681565b34801561064e57600080fd5b5061041e61065d366004612d7c565b601c6020526000908152604090205460ff1681565b34801561067e57600080fd5b5061041e61068d366004612d7c565b6001600160a01b031660009081526018602052604090205460ff1690565b3480156106b757600080fd5b506007546104d0906001600160a01b031681565b3480156106d757600080fd5b50610549610e3c565b3480156106ec57600080fd5b50610549610f64565b34801561070157600080fd5b5061048e60115481565b34801561071757600080fd5b50600b5461041e9062010000900460ff1681565b34801561073757600080fd5b5061048e610746366004612d7c565b6001600160a01b031660009081526020819052604090205490565b34801561076d57600080fd5b50610549610fa3565b34801561078257600080fd5b5061041e610fd9565b34801561079757600080fd5b506105496107a6366004612e01565b611016565b3480156107b757600080fd5b506105496107c6366004612d7c565b61106b565b3480156107d757600080fd5b506006546104d0906001600160a01b031681565b3480156107f757600080fd5b50610549610806366004612d7c565b6110b6565b34801561081757600080fd5b50610549610826366004612d7c565b611140565b34801561083757600080fd5b50610549610846366004612e3a565b6111c7565b34801561085757600080fd5b50610549611268565b34801561086c57600080fd5b506005546001600160a01b03166104d0565b34801561088a57600080fd5b50610549610899366004612e66565b6112af565b3480156108aa57600080fd5b506103e86112f5565b3480156108bf57600080fd5b506105496108ce366004612e01565b611304565b3480156108df57600080fd5b5061048e60105481565b3480156108f557600080fd5b5061041e610904366004612d50565b6113df565b34801561091557600080fd5b5061041e610924366004612d50565b611478565b34801561093557600080fd5b50610549610944366004612e01565b611485565b34801561095557600080fd5b50610549610964366004612d7c565b6114e7565b34801561097557600080fd5b5061041e610984366004612d7c565b601a6020526000908152604090205460ff1681565b3480156109a557600080fd5b50600b5461041e90610100900460ff1681565b3480156109c457600080fd5b506105496109d3366004612e83565b61156e565b3480156109e457600080fd5b506105496109f3366004612e01565b6116d6565b348015610a0457600080fd5b50610549610a13366004612e3a565b61175f565b348015610a2457600080fd5b50610549610a33366004612d99565b611802565b348015610a4457600080fd5b5061048e60085481565b348015610a5a57600080fd5b5061041e610a69366004612d99565b6118d3565b348015610a7a57600080fd5b5061048e60145481565b348015610a9057600080fd5b5061048e600d5481565b348015610aa657600080fd5b5061048e610ab5366004612e83565b6001600160a01b03918216600090815260016020908152604080832093909416825291909152205490565b348015610aec57600080fd5b50610549610afb366004612d7c565b611a25565b348015610b0c57600080fd5b5061048e60095481565b348015610b2257600080fd5b5061048e600f5481565b348015610b3857600080fd5b50610549610b47366004612d7c565b611b99565b348015610b5857600080fd5b5061048e60135481565b348015610b6e57600080fd5b5061048e600a5481565b348015610b8457600080fd5b5061048e60175481565b348015610b9a57600080fd5b5061041e610ba9366004612d7c565b6001600160a01b03166000908152600c602052604090205460ff1690565b606060038054610bd690612eb1565b80601f0160208091040260200160405190810160405280929190818152602001828054610c0290612eb1565b8015610c4f5780601f10610c2457610100808354040283529160200191610c4f565b820191906000526020600020905b815481529060010190602001808311610c3257829003601f168201915b5050505050905090565b6000610c66338484611c34565b5060015b92915050565b6005546001600160a01b03163314610ca35760405162461bcd60e51b8152600401610c9a90612eeb565b60405180910390fd5b670de0b6b3a76400006103e8610cb860025490565b610cc3906005612f36565b610ccd9190612f4d565b610cd79190612f4d565b811015610d3e5760405162461bcd60e51b815260206004820152602f60248201527f43616e6e6f7420736574206d61785472616e73616374696f6e416d6f756e742060448201526e6c6f776572207468616e20302e352560881b6064820152608401610c9a565b610d5081670de0b6b3a7640000612f36565b60085550565b6000610d63848484611d58565b6001600160a01b038416600090815260016020908152604080832033845290915290205482811015610de85760405162461bcd60e51b815260206004820152602860248201527f45524332303a207472616e7366657220616d6f756e74206578636565647320616044820152676c6c6f77616e636560c01b6064820152608401610c9a565b610df58533858403611c34565b506001949350505050565b3360008181526001602090815260408083206001600160a01b03871684529091528120549091610c66918590610e37908690612f6f565b611c34565b6005546001600160a01b03163314610e665760405162461bcd60e51b8152600401610c9a90612eeb565b6040516370a0823160e01b815230600482018190526000916370a0823190602401602060405180830381865afa158015610ea4573d6000803e3d6000fd5b505050506040513d601f19601f82011682018060405250810190610ec89190612f82565b60405163a9059cbb60e01b815233600482015260248101829052909150309063a9059cbb906044016020604051808303816000875af1158015610f0f573d6000803e3d6000fd5b505050506040513d601f19601f82011682018060405250810190610f339190612f9b565b5060405133904780156108fc02916000818181858888f19350505050158015610f60573d6000803e3d6000fd5b5050565b6005546001600160a01b03163314610f8e5760405162461bcd60e51b8152600401610c9a90612eeb565b600b805463ff00000019166301000000179055565b6005546001600160a01b03163314610fcd5760405162461bcd60e51b8152600401610c9a90612eeb565b610fd760006125a6565b565b6005546000906001600160a01b031633146110065760405162461bcd60e51b8152600401610c9a90612eeb565b50600b805460ff19169055600190565b6005546001600160a01b031633146110405760405162461bcd60e51b8152600401610c9a90612eeb565b6001600160a01b03919091166000908152601960205260409020805460ff1916911515919091179055565b6005546001600160a01b031633146110955760405162461bcd60e51b8152600401610c9a90612eeb565b6001600160a01b03166000908152600c60205260409020805460ff19169055565b6005546001600160a01b031633146110e05760405162461bcd60e51b8152600401610c9a90612eeb565b6000816001600160a01b03164760405160006040518083038185875af1925050503d806000811461112d576040519150601f19603f3d011682016040523d82523d6000602084013e611132565b606091505b5050905080610f6057600080fd5b6005546001600160a01b0316331461116a5760405162461bcd60e51b8152600401610c9a90612eeb565b6007546040516001600160a01b03918216918316907f8aa0f85050aca99be43beb823e0457e77966b3baf697a289b03681978f96166890600090a3600780546001600160a01b0319166001600160a01b0392909216919091179055565b6005546001600160a01b031633146111f15760405162461bcd60e51b8152600401610c9a90612eeb565b600e839055600f82905560108190558061120b8385612f6f565b6112159190612f6f565b600d819055600510156112635760405162461bcd60e51b8152602060048201526016602482015275213abc903332b2b99036bab9ba103132901e1e901a9760511b6044820152606401610c9a565b505050565b6005546001600160a01b031633146112925760405162461bcd60e51b8152600401610c9a90612eeb565b600b805462ffff00191662010100179055601b805460ff19169055565b6005546001600160a01b031633146112d95760405162461bcd60e51b8152600401610c9a90612eeb565b600b8054911515620100000262ff000019909216919091179055565b606060048054610bd690612eb1565b6005546001600160a01b0316331461132e5760405162461bcd60e51b8152600401610c9a90612eeb565b7f00000000000000000000000000000000000000000000000000000000000000006001600160a01b0316826001600160a01b0316036113d55760405162461bcd60e51b815260206004820152603960248201527f54686520706169722063616e6e6f742062652072656d6f7665642066726f6d2060448201527f6175746f6d617465644d61726b65744d616b65725061697273000000000000006064820152608401610c9a565b610f6082826125f8565b3360009081526001602090815260408083206001600160a01b0386168452909152812054828110156114615760405162461bcd60e51b815260206004820152602560248201527f45524332303a2064656372656173656420616c6c6f77616e63652062656c6f77604482015264207a65726f60d81b6064820152608401610c9a565b61146e3385858403611c34565b5060019392505050565b6000610c66338484611d58565b6005546001600160a01b031633146114af5760405162461bcd60e51b8152600401610c9a90612eeb565b6001600160a01b0382166000908152601c60205260409020805460ff19168215151790556114dd82826116d6565b610f608282611016565b6005546001600160a01b031633146115115760405162461bcd60e51b8152600401610c9a90612eeb565b6006546040516001600160a01b03918216918316907fc9f2d63eee8632b33d7a7db5252eb29036e81ee4fbe29260febe0c49ffb8a7bb90600090a3600680546001600160a01b0319166001600160a01b0392909216919091179055565b6005546001600160a01b031633146115985760405162461bcd60e51b8152600401610c9a90612eeb565b6001600160a01b0382166115ee5760405162461bcd60e51b815260206004820152601a60248201527f5f746f6b656e20616464726573732063616e6e6f7420626520300000000000006044820152606401610c9a565b6040516370a0823160e01b81523060048201526000906001600160a01b038416906370a0823190602401602060405180830381865afa158015611635573d6000803e3d6000fd5b505050506040513d601f19601f820116820180604052508101906116599190612f82565b60405163a9059cbb60e01b81526001600160a01b038481166004830152602482018390529192509084169063a9059cbb906044016020604051808303816000875af11580156116ac573d6000803e3d6000fd5b505050506040513d601f19601f820116820180604052508101906116d09190612f9b565b50505050565b6005546001600160a01b031633146117005760405162461bcd60e51b8152600401610c9a90612eeb565b6001600160a01b038216600081815260186020908152604091829020805460ff191685151590811790915591519182527f9d8f7706ea1113d1a167b526eca956215946dd36cc7df39eb16180222d8b5df7910160405180910390a25050565b6005546001600160a01b031633146117895760405162461bcd60e51b8152600401610c9a90612eeb565b601283905560138290556014819055806117a38385612f6f565b6117ad9190612f6f565b6011819055600510156112635760405162461bcd60e51b815260206004820152601760248201527f53656c6c2066656573206d757374206265203c3d20352e0000000000000000006044820152606401610c9a565b6005546001600160a01b0316331461182c5760405162461bcd60e51b8152600401610c9a90612eeb565b670de0b6b3a76400006103e861184160025490565b61184c90600a612f36565b6118569190612f4d565b6118609190612f4d565b8110156118bb5760405162461bcd60e51b8152602060048201526024808201527f43616e6e6f7420736574206d617857616c6c6574206c6f776572207468616e20604482015263312e302560e01b6064820152608401610c9a565b6118cd81670de0b6b3a7640000612f36565b600a5550565b6005546000906001600160a01b031633146119005760405162461bcd60e51b8152600401610c9a90612eeb565b620186a061190d60025490565b611918906001612f36565b6119229190612f4d565b82101561198f5760405162461bcd60e51b815260206004820152603560248201527f5377617020616d6f756e742063616e6e6f74206265206c6f776572207468616e60448201527410181718181892903a37ba30b61039bab838363c9760591b6064820152608401610c9a565b6103e861199b60025490565b6119a6906005612f36565b6119b09190612f4d565b821115611a1c5760405162461bcd60e51b815260206004820152603460248201527f5377617020616d6f756e742063616e6e6f742062652068696768657220746861604482015273371018171a92903a37ba30b61039bab838363c9760611b6064820152608401610c9a565b50600955600190565b6005546001600160a01b03163314611a4f5760405162461bcd60e51b8152600401610c9a90612eeb565b600b546301000000900460ff1615611ab35760405162461bcd60e51b815260206004820152602160248201527f5465616d20686173207265766f6b656420626c61636b6c6973742072696768746044820152607360f81b6064820152608401610c9a565b7f00000000000000000000000000000000000000000000000000000000000000006001600160a01b0316816001600160a01b031614158015611b1257506001600160a01b038116737a250d5630b4cf539739df2c5dacb4c659f2488d14155b611b755760405162461bcd60e51b815260206004820152602e60248201527f43616e6e6f7420626c61636b6c69737420746f6b656e277320763220726f757460448201526d32b91037b9103b19103837b7b61760911b6064820152608401610c9a565b6001600160a01b03166000908152600c60205260409020805460ff19166001179055565b6005546001600160a01b03163314611bc35760405162461bcd60e51b8152600401610c9a90612eeb565b6001600160a01b038116611c285760405162461bcd60e51b815260206004820152602660248201527f4f776e61626c653a206e6577206f776e657220697320746865207a65726f206160448201526564647265737360d01b6064820152608401610c9a565b611c31816125a6565b50565b6001600160a01b038316611c965760405162461bcd60e51b8152602060048201526024808201527f45524332303a20617070726f76652066726f6d20746865207a65726f206164646044820152637265737360e01b6064820152608401610c9a565b6001600160a01b038216611cf75760405162461bcd60e51b815260206004820152602260248201527f45524332303a20617070726f766520746f20746865207a65726f206164647265604482015261737360f01b6064820152608401610c9a565b6001600160a01b0383811660008181526001602090815260408083209487168084529482529182902085905590518481527f8c5be1e5ebec7d5bd14f71427d1e84f3dd0314c0f7b2291e5b200ac8c7c3b925910160405180910390a3505050565b6001600160a01b038316611d7e5760405162461bcd60e51b8152600401610c9a90612fb8565b6001600160a01b038216611da45760405162461bcd60e51b8152600401610c9a90612ffd565b6001600160a01b0383166000908152600c602052604090205460ff1615611e025760405162461bcd60e51b815260206004820152601260248201527114d95b99195c88189b1858dadb1a5cdd195960721b6044820152606401610c9a565b6001600160a01b0382166000908152600c602052604090205460ff1615611e625760405162461bcd60e51b8152602060048201526014602482015273149958d95a5d995c88189b1858dadb1a5cdd195960621b6044820152606401610c9a565b601b5460ff1615611ee7576001600160a01b0383166000908152601c602052604090205460ff16611ee75760405162461bcd60e51b815260206004820152602960248201527f4e6f7420617574686f72697a656420746f207472616e73666572207072652d6d60448201526834b3b930ba34b7b71760b91b6064820152608401610c9a565b80600003611efb576112638383600061264c565b600b5460ff1615612271576005546001600160a01b03848116911614801590611f3257506005546001600160a01b03838116911614155b8015611f4657506001600160a01b03821615155b8015611f5d57506001600160a01b03821661dead14155b8015611f735750600554600160a01b900460ff16155b1561227157600b54610100900460ff1661200b576001600160a01b03831660009081526018602052604090205460ff1680611fc657506001600160a01b03821660009081526018602052604090205460ff165b61200b5760405162461bcd60e51b81526020600482015260166024820152752a3930b234b7339034b9903737ba1030b1ba34bb329760511b6044820152606401610c9a565b6001600160a01b0383166000908152601a602052604090205460ff16801561204c57506001600160a01b03821660009081526019602052604090205460ff16155b15612130576008548111156120c15760405162461bcd60e51b815260206004820152603560248201527f427579207472616e7366657220616d6f756e742065786365656473207468652060448201527436b0bc2a3930b739b0b1ba34b7b720b6b7bab73a1760591b6064820152608401610c9a565b600a546001600160a01b0383166000908152602081905260409020546120e79083612f6f565b111561212b5760405162461bcd60e51b815260206004820152601360248201527213585e081dd85b1b195d08195e18d959591959606a1b6044820152606401610c9a565b612271565b6001600160a01b0382166000908152601a602052604090205460ff16801561217157506001600160a01b03831660009081526019602052604090205460ff16155b156121e75760085481111561212b5760405162461bcd60e51b815260206004820152603660248201527f53656c6c207472616e7366657220616d6f756e742065786365656473207468656044820152751036b0bc2a3930b739b0b1ba34b7b720b6b7bab73a1760511b6064820152608401610c9a565b6001600160a01b03821660009081526019602052604090205460ff1661227157600a546001600160a01b03831660009081526020819052604090205461222d9083612f6f565b11156122715760405162461bcd60e51b815260206004820152601360248201527213585e081dd85b1b195d08195e18d959591959606a1b6044820152606401610c9a565b306000908152602081905260409020546009548110801590819061229d5750600b5462010000900460ff165b80156122b35750600554600160a01b900460ff16155b80156122d857506001600160a01b0385166000908152601a602052604090205460ff16155b80156122fd57506001600160a01b03851660009081526018602052604090205460ff16155b801561232257506001600160a01b03841660009081526018602052604090205460ff16155b15612350576005805460ff60a01b1916600160a01b1790556123426127a0565b6005805460ff60a01b191690555b6005546001600160a01b03861660009081526018602052604090205460ff600160a01b90920482161591168061239e57506001600160a01b03851660009081526018602052604090205460ff165b156123a7575060005b60008115612592576001600160a01b0386166000908152601a602052604090205460ff1680156123d957506000601154115b15612497576123fe60646123f8601154886129fc90919063ffffffff16565b90612a0f565b9050601154601354826124119190612f36565b61241b9190612f4d565b6016600082825461242c9190612f6f565b90915550506011546014546124419083612f36565b61244b9190612f4d565b6017600082825461245c9190612f6f565b90915550506011546012546124719083612f36565b61247b9190612f4d565b6015600082825461248c9190612f6f565b909155506125749050565b6001600160a01b0387166000908152601a602052604090205460ff1680156124c157506000600d54115b15612574576124e060646123f8600d54886129fc90919063ffffffff16565b9050600d54600f54826124f39190612f36565b6124fd9190612f4d565b6016600082825461250e9190612f6f565b9091555050600d546010546125239083612f36565b61252d9190612f4d565b6017600082825461253e9190612f6f565b9091555050600d54600e546125539083612f36565b61255d9190612f4d565b6015600082825461256e9190612f6f565b90915550505b80156125855761258587308361264c565b61258f8186613040565b94505b61259d87878761264c565b50505050505050565b600580546001600160a01b038381166001600160a01b0319831681179093556040519116919082907f8be0079c531659141344cd1fd0a4f28419497f9722a3daafe3b4186f6b6457e090600090a35050565b6001600160a01b0382166000818152601a6020526040808220805460ff191685151590811790915590519092917fffa9187bf1f18bf477bd0ea1bcbb64e93b6a98132473929edfce215cd9b16fab91a35050565b6001600160a01b0383166126725760405162461bcd60e51b8152600401610c9a90612fb8565b6001600160a01b0382166126985760405162461bcd60e51b8152600401610c9a90612ffd565b6001600160a01b038316600090815260208190526040902054818110156127105760405162461bcd60e51b815260206004820152602660248201527f45524332303a207472616e7366657220616d6f756e7420657863656564732062604482015265616c616e636560d01b6064820152608401610c9a565b6001600160a01b03808516600090815260208190526040808220858503905591851681529081208054849290612747908490612f6f565b92505081905550826001600160a01b0316846001600160a01b03167fddf252ad1be2c89b69c2b068fc378daa952ba7f163c4a11628f55a4df523b3ef8460405161279391815260200190565b60405180910390a36116d0565b30600090815260208190526040812054905060006017546015546016546127c79190612f6f565b6127d19190612f6f565b905060008215806127e0575081155b156127ea57505050565b6009546127f8906014612f36565b8311156128105760095461280d906014612f36565b92505b6000600283601654866128239190612f36565b61282d9190612f4d565b6128379190612f4d565b905060006128458583612a1b565b90504761285182612a27565b600061285d4783612a1b565b9050600061288b60026016546128739190612f4d565b61287d9089613040565b6015546123f89085906129fc565b905060006128b960026016546128a19190612f4d565b6128ab908a613040565b6017546123f89086906129fc565b90506000816128c88486613040565b6128d29190613040565b60006016819055601581905560178190556007546040519293506001600160a01b031691849181818185875af1925050503d806000811461292f576040519150601f19603f3d011682016040523d82523d6000602084013e612934565b606091505b509098505086158015906129485750600081115b1561299b576129578782612be7565b601654604080518881526020810184905280820192909252517f17bbfb9a6069321b6ded73bd96327c9e6b7212a5cd51ff219cd61370acafb5619181900360600190a15b6006546040516001600160a01b03909116904790600081818185875af1925050503d80600081146129e8576040519150601f19603f3d011682016040523d82523d6000602084013e6129ed565b606091505b50505050505050505050505050565b6000612a088284612f36565b9392505050565b6000612a088284612f4d565b6000612a088284613040565b6040805160028082526060820183526000926020830190803683370190505090503081600081518110612a5c57612a5c613053565b60200260200101906001600160a01b031690816001600160a01b0316815250507f00000000000000000000000000000000000000000000000000000000000000006001600160a01b031663ad5c46486040518163ffffffff1660e01b8152600401602060405180830381865afa158015612ada573d6000803e3d6000fd5b505050506040513d601f19601f82011682018060405250810190612afe9190613069565b81600181518110612b1157612b11613053565b60200260200101906001600160a01b031690816001600160a01b031681525050612b5c307f000000000000000000000000000000000000000000000000000000000000000084611c34565b60405163791ac94760e01b81526001600160a01b037f0000000000000000000000000000000000000000000000000000000000000000169063791ac94790612bb1908590600090869030904290600401613086565b600060405180830381600087803b158015612bcb57600080fd5b505af1158015612bdf573d6000803e3d6000fd5b505050505050565b612c12307f000000000000000000000000000000000000000000000000000000000000000084611c34565b7f00000000000000000000000000000000000000000000000000000000000000006001600160a01b031663f305d719823085600080612c596005546001600160a01b031690565b60405160e088901b6001600160e01b03191681526001600160a01b03958616600482015260248101949094526044840192909252606483015290911660848201524260a482015260c40160606040518083038185885af1158015612cc1573d6000803e3d6000fd5b50505050506040513d601f19601f82011682018060405250810190612ce691906130f7565b5050505050565b600060208083528351808285015260005b81811015612d1a57858101830151858201604001528201612cfe565b506000604082860101526040601f19601f8301168501019250505092915050565b6001600160a01b0381168114611c3157600080fd5b60008060408385031215612d6357600080fd5b8235612d6e81612d3b565b946020939093013593505050565b600060208284031215612d8e57600080fd5b8135612a0881612d3b565b600060208284031215612dab57600080fd5b5035919050565b600080600060608486031215612dc757600080fd5b8335612dd281612d3b565b92506020840135612de281612d3b565b929592945050506040919091013590565b8015158114611c3157600080fd5b60008060408385031215612e1457600080fd5b8235612e1f81612d3b565b91506020830135612e2f81612df3565b809150509250929050565b600080600060608486031215612e4f57600080fd5b505081359360208301359350604090920135919050565b600060208284031215612e7857600080fd5b8135612a0881612df3565b60008060408385031215612e9657600080fd5b8235612ea181612d3b565b91506020830135612e2f81612d3b565b600181811c90821680612ec557607f821691505b602082108103612ee557634e487b7160e01b600052602260045260246000fd5b50919050565b6020808252818101527f4f776e61626c653a2063616c6c6572206973206e6f7420746865206f776e6572604082015260600190565b634e487b7160e01b600052601160045260246000fd5b8082028115828204841417610c6a57610c6a612f20565b600082612f6a57634e487b7160e01b600052601260045260246000fd5b500490565b80820180821115610c6a57610c6a612f20565b600060208284031215612f9457600080fd5b5051919050565b600060208284031215612fad57600080fd5b8151612a0881612df3565b60208082526025908201527f45524332303a207472616e736665722066726f6d20746865207a65726f206164604082015264647265737360d81b606082015260800190565b60208082526023908201527f45524332303a207472616e7366657220746f20746865207a65726f206164647260408201526265737360e81b606082015260800190565b81810381811115610c6a57610c6a612f20565b634e487b7160e01b600052603260045260246000fd5b60006020828403121561307b57600080fd5b8151612a0881612d3b565b600060a082018783526020878185015260a0604085015281875180845260c086019150828901935060005b818110156130d65784516001600160a01b0316835293830193918301916001016130b1565b50506001600160a01b03969096166060850152505050608001529392505050565b60008060006060848603121561310c57600080fd5b835192506020840151915060408401519050925092509256fea26469706673582212201363b93bd2a0b56ec13d79dfa3bf80eee58837c63ab8acc2e9291288c369ebe164736f6c634300081400334f776e61626c653a2063616c6c6572206973206e6f7420746865206f776e6572",
    "linkReferences": {}
  },
  "methodIdentifiers": {
    "_isExcludedMaxTransactionAmount(address)": "10d5de53",
    "allowance(address,address)": "dd62ed3e",
    "approve(address,uint256)": "095ea7b3",
    "automatedMarketMakerPairs(address)": "b62496f5",
    "balanceOf(address)": "70a08231",
    "blacklist(address)": "f9f92be4",
    "blacklistLiquidityPool(address)": "e19b2823",
    "blacklistRenounced()": "3dc599ff",
    "buyLiquidityFee()": "f11a24d3",
    "buyRevShareFee()": "156c2f35",
    "buyTeamFee()": "9c2e4ac6",
    "buyTotalFees()": "d85ba063",
    "deadAddress()": "27c8f835",
    "decimals()": "313ce567",
    "decreaseAllowance(address,uint256)": "a457c2d7",
    "enableTrading()": "8a8c523c",
    "excludeFromFees(address,bool)": "c0246668",
    "excludeFromMaxTransaction(address,bool)": "7571336a",
    "increaseAllowance(address,uint256)": "39509351",
    "isBlacklisted(address)": "fe575a87",
    "isExcludedFromFees(address)": "4fbee193",
    "limitsInEffect()": "4a62bb65",
    "maxTransactionAmount()": "c8c8ebe4",
    "maxWallet()": "f8b45b05",
    "name()": "06fdde03",
    "owner()": "8da5cb5b",
    "preMigrationPhase()": "0e922ca7",
    "preMigrationTransferrable(address)": "4e29e523",
    "removeLimits()": "751039fc",
    "renounceBlacklist()": "5f189361",
    "renounceOwnership()": "715018a6",
    "revShareWallet()": "782c4e99",
    "sellLiquidityFee()": "f6374342",
    "sellRevShareFee()": "19eab042",
    "sellTeamFee()": "d729715f",
    "sellTotalFees()": "6a486a8e",
    "setAutomatedMarketMakerPair(address,bool)": "9a7a23d6",
    "setPreMigrationTransferable(address,bool)": "aa0e4388",
    "swapEnabled()": "6ddd1713",
    "swapTokensAtAmount()": "e2f45605",
    "symbol()": "95d89b41",
    "teamWallet()": "59927044",
    "tokensForLiquidity()": "1a8145bb",
    "tokensForRevShare()": "24b9f3c1",
    "tokensForTeam()": "fde83a34",
    "totalSupply()": "18160ddd",
    "tradingActive()": "bbc0c742",
    "transfer(address,uint256)": "a9059cbb",
    "transferFrom(address,address,uint256)": "23b872dd",
    "transferOwnership(address)": "f2fde38b",
    "unblacklist(address)": "75e3661e",
    "uniswapV2Pair()": "49bd5a5e",
    "uniswapV2Router()": "1694505e",
    "updateBuyFees(uint256,uint256,uint256)": "8095d564",
    "updateMaxTxnAmount(uint256)": "203e727e",
    "updateMaxWalletAmount(uint256)": "c18bc195",
    "updateRevShareWallet(address)": "adee28ff",
    "updateSellFees(uint256,uint256,uint256)": "c17b5b8c",
    "updateSwapEnabled(bool)": "924de9b7",
    "updateSwapTokensAtAmount(uint256)": "d257b34f",
    "updateTeamWallet(address)": "7cb332bb",
    "withdrawStuckEth(address)": "7ca8448a",
    "withdrawStuckToken(address,address)": "bc205ad3",
    "withdrawStuckUnibot()": "5ea92ddd"
  },
  "id": 27
}