{
  "abi": [
    {
      "inputs": [
        {
          "internalType": "address",
          "name": "initialOwner",
          "type": "address"
        }
      ],
      "stateMutability": "nonpayable",
      "type": "constructor"
    },
    {
      "anonymous": false,
      "inputs": [
        {
          "indexed": true,
          "internalType": "address",
          "name": "owner",
          "type": "address"
        },
        {
          "indexed": true,
          "internalType": "address",
          "name": "spender",
          "type": "address"
        },
        {
          "indexed": false,
          "internalType": "uint256",
          "name": "amount",
          "type": "uint256"
        }
      ],
      "name": "Approval",
      "type": "event"
    },
    {
      "anonymous": false,
      "inputs": [
        {
          "indexed": true,
          "internalType": "address",
          "name": "user",
          "type": "address"
        },
        {
          "indexed": true,
          "internalType": "address",
          "name": "newOwner",
          "type": "address"
        }
      ],
      "name": "OwnershipTransferred",
      "type": "event"
    },
    {
      "anonymous": false,
      "inputs": [
        {
          "indexed": true,
          "internalType": "address",
          "name": "from",
          "type": "address"
        },
        {
          "indexed": true,
          "internalType": "address",
          "name": "to",
          "type": "address"
        },
        {
          "indexed": false,
          "internalType": "uint256",
          "name": "amount",
          "type": "uint256"
        }
      ],
      "name": "Transfer",
      "type": "event"
    },
    {
      "inputs": [],
      "name": "DOMAIN_SEPARATOR",
      "outputs": [
        {
          "internalType": "bytes32",
          "name": "",
          "type": "bytes32"
        }
      ],
      "stateMutability": "view",
      "type": "function"
    },
    {
      "inputs": [
        {
          "internalType": "address",
          "name": "",
          "type": "address"
        },
        {
          "internalType": "address",
          "name": "",
          "type": "address"
        }
      ],
      "name": "allowance",
      "outputs": [
        {
          "internalType": "uint256",
          "name": "",
          "type": "uint256"
        }
      ],
      "stateMutability": "view",
      "type": "function"
    },
    {
      "inputs": [
        {
          "internalType": "address",
          "name": "spender",
          "type": "address"
        },
        {
          "internalType": "uint256",
          "name": "amount",
          "type": "uint256"
        }
      ],
      "name": "approve",
      "outputs": [
        {
          "internalType": "bool",
          "name": "",
          "type": "bool"
        }
      ],
      "stateMutability": "nonpayable",
      "type": "function"
    },
    {
      "inputs": [
        {
          "internalType": "address",
          "name": "",
          "type": "address"
        }
      ],
      "name": "balanceOf",
      "outputs": [
        {
          "internalType": "uint256",
          "name": "",
          "type": "uint256"
        }
      ],
      "stateMutability": "view",
      "type": "function"
    },
    {
      "inputs": [
        {
          "internalType": "uint256",
          "name": "amount",
          "type": "uint256"
        }
      ],
      "name": "burn",
      "outputs": [],
      "stateMutability": "nonpayable",
      "type": "function"
    },
    {
      "inputs": [],
      "name": "decimals",
      "outputs": [
        {
          "internalType": "uint8",
          "name": "",
          "type": "uint8"
        }
      ],
      "stateMutability": "view",
      "type": "function"
    },
    {
      "inputs": [],
      "name": "enableTransfers",
      "outputs": [],
      "stateMutability": "nonpayable",
      "type": "function"
    },
    {
      "inputs": [
        {
          "internalType": "address",
          "name": "account",
          "type": "address"
        },
        {
          "internalType": "uint256",
          "name": "amount",
          "type": "uint256"
        }
      ],
      "name": "mint",
      "outputs": [],
      "stateMutability": "nonpayable",
      "type": "function"
    },
    {
      "inputs": [],
      "name": "name",
      "outputs": [
        {
          "internalType": "string",
          "name": "",
          "type": "string"
        }
      ],
      "stateMutability": "view",
      "type": "function"
    },
    {
      "inputs": [
        {
          "internalType": "address",
          "name": "",
          "type": "address"
        }
      ],
      "name": "nonces",
      "outputs": [
        {
          "internalType": "uint256",
          "name": "",
          "type": "uint256"
        }
      ],
      "stateMutability": "view",
      "type": "function"
    },
    {
      "inputs": [],
      "name": "owner",
      "outputs": [
        {
          "internalType": "address",
          "name": "",
          "type": "address"
        }
      ],
      "stateMutability": "view",
      "type": "function"
    },
    {
      "inputs": [
        {
          "internalType": "address",
          "name": "owner",
          "type": "address"
        },
        {
          "internalType": "address",
          "name": "spender",
          "type": "address"
        },
        {
          "internalType": "uint256",
          "name": "value",
          "type": "uint256"
        },
        {
          "internalType": "uint256",
          "name": "deadline",
          "type": "uint256"
        },
        {
          "internalType": "uint8",
          "name": "v",
          "type": "uint8"
        },
        {
          "internalType": "bytes32",
          "name": "r",
          "type": "bytes32"
        },
        {
          "internalType": "bytes32",
          "name": "s",
          "type": "bytes32"
        }
      ],
      "name": "permit",
      "outputs": [],
      "stateMutability": "nonpayable",
      "type": "function"
    },
    {
      "inputs": [],
      "name": "royaltyAddress",
      "outputs": [
        {
          "internalType": "address",
          "name": "",
          "type": "address"
        }
      ],
      "stateMutability": "view",
      "type": "function"
    },
    {
      "inputs": [],
      "name": "royaltyFeePercentage",
      "outputs": [
        {
          "internalType": "uint256",
          "name": "",
          "type": "uint256"
        }
      ],
      "stateMutability": "view",
      "type": "function"
    },
    {
      "inputs": [],
      "name": "symbol",
      "outputs": [
        {
          "internalType": "string",
          "name": "",
          "type": "string"
        }
      ],
      "stateMutability": "view",
      "type": "function"
    },
    {
      "inputs": [],
      "name": "totalSupply",
      "outputs": [
        {
          "internalType": "uint256",
          "name": "",
          "type": "uint256"
        }
      ],
      "stateMutability": "view",
      "type": "function"
    },
    {
      "inputs": [
        {
          "internalType": "address",
          "name": "to",
          "type": "address"
        },
        {
          "internalType": "uint256",
          "name": "amount",
          "type": "uint256"
        }
      ],
      "name": "transfer",
      "outputs": [
        {
          "internalType": "bool",
          "name": "",
          "type": "bool"
        }
      ],
      "stateMutability": "nonpayable",
      "type": "function"
    },
    {
      "inputs": [
        {
          "internalType": "address",
          "name": "from",
          "type": "address"
        },
        {
          "internalType": "address",
          "name": "to",
          "type": "address"
        },
        {
          "internalType": "uint256",
          "name": "amount",
          "type": "uint256"
        }
      ],
      "name": "transferFrom",
      "outputs": [
        {
          "internalType": "bool",
          "name": "",
          "type": "bool"
        }
      ],
      "stateMutability": "nonpayable",
      "type": "function"
    },
    {
      "inputs": [
        {
          "internalType": "address",
          "name": "newOwner",
          "type": "address"
        }
      ],
      "name": "transferOwnership",
      "outputs": [],
      "stateMutability": "nonpayable",
      "type": "function"
    },
    {
      "inputs": [],
      "name": "transfersAllowed",
      "outputs": [
        {
          "internalType": "bool",
          "name": "",
          "type": "bool"
        }
      ],
      "stateMutability": "view",
      "type": "function"
    }
  ],
  "bytecode": {
    "object": "0x60e0604052600780546001600160a01b031916739a285d90b567cea64dd82737340e224fd420295917905560026008556009805460ff191690553480156200004657600080fd5b506040516200136e3803806200136e8339810160408190526200006991620001cc565b60408051808201825260058152642a37b5b2b760d91b6020808301919091528251808401845260018152604b60f81b91810191909152600080546001600160a01b0319166001600160a01b0386169081178255935192939192601292869290917f8be0079c531659141344cd1fd0a4f28419497f9722a3daafe3b4186f6b6457e0908290a3506001620000fd8482620002a3565b5060026200010c8382620002a3565b5060ff81166080524660a0526200012262000130565b60c05250620003ed92505050565b60007f8b73c3c69bb8fe3d512ecc4cf759cc79239f7b179b0ffacaa9a75d522b39400f60016040516200016491906200036f565b6040805191829003822060208301939093528101919091527fc89efdaa54c0f20c7adf612882df0950f5a951637e0307cdcb4c672f298b8bc660608201524660808201523060a082015260c00160405160208183030381529060405280519060200120905090565b600060208284031215620001df57600080fd5b81516001600160a01b0381168114620001f757600080fd5b9392505050565b634e487b7160e01b600052604160045260246000fd5b600181811c908216806200022957607f821691505b6020821081036200024a57634e487b7160e01b600052602260045260246000fd5b50919050565b601f8211156200029e57600081815260208120601f850160051c81016020861015620002795750805b601f850160051c820191505b818110156200029a5782815560010162000285565b5050505b505050565b81516001600160401b03811115620002bf57620002bf620001fe565b620002d781620002d0845462000214565b8462000250565b602080601f8311600181146200030f5760008415620002f65750858301515b600019600386901b1c1916600185901b1785556200029a565b600085815260208120601f198616915b8281101562000340578886015182559484019460019091019084016200031f565b50858210156200035f5787850151600019600388901b60f8161c191681555b5050505050600190811b01905550565b60008083546200037f8162000214565b600182811680156200039a5760018114620003b057620003e1565b60ff1984168752821515830287019450620003e1565b8760005260208060002060005b85811015620003d85781548a820152908401908201620003bd565b50505082870194505b50929695505050505050565b60805160a05160c051610f516200041d60003960006105d8015260006105a3015260006101a10152610f516000f3fe608060405234801561001057600080fd5b506004361061012c5760003560e01c80637ecebe00116100ad578063af35c6c711610071578063af35c6c7146102a7578063b0660c3d146102af578063d505accf146102bc578063dd62ed3e146102cf578063f2fde38b146102fa57600080fd5b80637ecebe001461022e5780638da5cb5b1461024e57806395d89b4114610279578063a9059cbb14610281578063ad2f852a1461029457600080fd5b80633644e515116100f45780633644e515146101d55780633a16eca0146101dd57806340c10f19146101e657806342966c68146101fb57806370a082311461020e57600080fd5b806306fdde0314610131578063095ea7b31461014f57806318160ddd1461017257806323b872dd14610189578063313ce5671461019c575b600080fd5b61013961030d565b6040516101469190610bd6565b60405180910390f35b61016261015d366004610c40565b61039b565b6040519015158152602001610146565b61017b60035481565b604051908152602001610146565b610162610197366004610c6a565b610408565b6101c37f000000000000000000000000000000000000000000000000000000000000000081565b60405160ff9091168152602001610146565b61017b61059f565b61017b60085481565b6101f96101f4366004610c40565b6105fa565b005b6101f9610209366004610ca6565b610632565b61017b61021c366004610cbf565b60046020526000908152604090205481565b61017b61023c366004610cbf565b60066020526000908152604090205481565b600054610261906001600160a01b031681565b6040516001600160a01b039091168152602001610146565b61013961063f565b61016261028f366004610c40565b61064c565b600754610261906001600160a01b031681565b6101f961078e565b6009546101629060ff1681565b6101f96102ca366004610ce1565b6107c7565b61017b6102dd366004610d54565b600560209081526000928352604080842090915290825290205481565b6101f9610308366004610cbf565b610a0b565b6001805461031a90610d87565b80601f016020809104026020016040519081016040528092919081815260200182805461034690610d87565b80156103935780601f1061036857610100808354040283529160200191610393565b820191906000526020600020905b81548152906001019060200180831161037657829003601f168201915b505050505081565b3360008181526005602090815260408083206001600160a01b038716808552925280832085905551919290917f8c5be1e5ebec7d5bd14f71427d1e84f3dd0314c0f7b2291e5b200ac8c7c3b925906103f69086815260200190565b60405180910390a35060015b92915050565b60095460009060ff166104565760405162461bcd60e51b8152602060048201526011602482015270085d1c985b9cd9995c9cd05b1b1bddd959607a1b60448201526064015b60405180910390fd5b6001600160a01b038416600090815260056020908152604080832033845290915281205460085490919060649061048d9086610dd7565b6104979190610dee565b905060001982146104d1576104ac8483610e10565b6001600160a01b03871660009081526005602090815260408083203384529091529020555b6001600160a01b038616600090815260046020526040812080548692906104f9908490610e10565b90915550506001600160a01b0385811660009081526004602090815260408083208054868a030190556007805485168452928190208054860190559154915184815291831692891691600080516020610efc833981519152910160405180910390a36001600160a01b03808616908716600080516020610efc8339815191526105828488610e10565b60405190815260200160405180910390a350600195945050505050565b60007f000000000000000000000000000000000000000000000000000000000000000046146105d5576105d0610a80565b905090565b507f000000000000000000000000000000000000000000000000000000000000000090565b6000546001600160a01b031633146106245760405162461bcd60e51b815260040161044d90610e23565b61062e8282610b1a565b5050565b61063c3382610b74565b50565b6002805461031a90610d87565b60095460009060ff166106955760405162461bcd60e51b8152602060048201526011602482015270085d1c985b9cd9995c9cd05b1b1bddd959607a1b604482015260640161044d565b6001600160a01b0383166106a857600080fd5b60006064600854846106ba9190610dd7565b6106c49190610dee565b336000908152600460205260408120805492935085929091906106e8908490610e10565b90915550506001600160a01b038085166000908152600460205260408082208054858803019055600780548416835291819020805485019055905490519116903390600080516020610efc833981519152906107479085815260200190565b60405180910390a36001600160a01b03841633600080516020610efc8339815191526107738487610e10565b60405190815260200160405180910390a35060019392505050565b6000546001600160a01b031633146107b85760405162461bcd60e51b815260040161044d90610e23565b6009805460ff19166001179055565b428410156108175760405162461bcd60e51b815260206004820152601760248201527f5045524d49545f444541444c494e455f45585049524544000000000000000000604482015260640161044d565b6000600161082361059f565b6001600160a01b038a811660008181526006602090815260409182902080546001810190915582517f6e71edae12b1b97f4d1f60370fef10105fa2faae0126114a169c64845d6126c98184015280840194909452938d166060840152608083018c905260a083019390935260c08083018b90528151808403909101815260e08301909152805192019190912061190160f01b6101008301526101028201929092526101228101919091526101420160408051601f198184030181528282528051602091820120600084529083018083525260ff871690820152606081018590526080810184905260a0016020604051602081039080840390855afa15801561092f573d6000803e3d6000fd5b5050604051601f1901519150506001600160a01b038116158015906109655750876001600160a01b0316816001600160a01b0316145b6109a25760405162461bcd60e51b815260206004820152600e60248201526d24a72b20a624a22fa9a4a3a722a960911b604482015260640161044d565b6001600160a01b0390811660009081526005602090815260408083208a8516808552908352928190208990555188815291928a16917f8c5be1e5ebec7d5bd14f71427d1e84f3dd0314c0f7b2291e5b200ac8c7c3b925910160405180910390a350505050505050565b6000546001600160a01b03163314610a355760405162461bcd60e51b815260040161044d90610e23565b600080546001600160a01b0319166001600160a01b0383169081178255604051909133917f8be0079c531659141344cd1fd0a4f28419497f9722a3daafe3b4186f6b6457e09190a350565b60007f8b73c3c69bb8fe3d512ecc4cf759cc79239f7b179b0ffacaa9a75d522b39400f6001604051610ab29190610e49565b6040805191829003822060208301939093528101919091527fc89efdaa54c0f20c7adf612882df0950f5a951637e0307cdcb4c672f298b8bc660608201524660808201523060a082015260c00160405160208183030381529060405280519060200120905090565b8060036000828254610b2c9190610ee8565b90915550506001600160a01b038216600081815260046020908152604080832080548601905551848152600080516020610efc83398151915291015b60405180910390a35050565b6001600160a01b03821660009081526004602052604081208054839290610b9c908490610e10565b90915550506003805482900390556040518181526000906001600160a01b03841690600080516020610efc83398151915290602001610b68565b600060208083528351808285015260005b81811015610c0357858101830151858201604001528201610be7565b506000604082860101526040601f19601f8301168501019250505092915050565b80356001600160a01b0381168114610c3b57600080fd5b919050565b60008060408385031215610c5357600080fd5b610c5c83610c24565b946020939093013593505050565b600080600060608486031215610c7f57600080fd5b610c8884610c24565b9250610c9660208501610c24565b9150604084013590509250925092565b600060208284031215610cb857600080fd5b5035919050565b600060208284031215610cd157600080fd5b610cda82610c24565b9392505050565b600080600080600080600060e0888a031215610cfc57600080fd5b610d0588610c24565b9650610d1360208901610c24565b95506040880135945060608801359350608088013560ff81168114610d3757600080fd5b9699959850939692959460a0840135945060c09093013592915050565b60008060408385031215610d6757600080fd5b610d7083610c24565b9150610d7e60208401610c24565b90509250929050565b600181811c90821680610d9b57607f821691505b602082108103610dbb57634e487b7160e01b600052602260045260246000fd5b50919050565b634e487b7160e01b600052601160045260246000fd5b808202811582820484141761040257610402610dc1565b600082610e0b57634e487b7160e01b600052601260045260246000fd5b500490565b8181038181111561040257610402610dc1565b6020808252600c908201526b15539055551213d49256915160a21b604082015260600190565b600080835481600182811c915080831680610e6557607f831692505b60208084108203610e8457634e487b7160e01b86526022600452602486fd5b818015610e985760018114610ead57610eda565b60ff1986168952841515850289019650610eda565b60008a81526020902060005b86811015610ed25781548b820152908501908301610eb9565b505084890196505b509498975050505050505050565b8082018082111561040257610402610dc156feddf252ad1be2c89b69c2b068fc378daa952ba7f163c4a11628f55a4df523b3efa2646970667358221220f8ba6be53814a2f9352b2b45b0347b43414861a52197e752e90160fab6399f1964736f6c63430008140033",
    "linkReferences": {}
  },
  "methodIdentifiers": {
    "DOMAIN_SEPARATOR()": "3644e515",
    "allowance(address,address)": "dd62ed3e",
    "approve(address,uint256)": "095ea7b3",
    "balanceOf(address)": "70a08231",
    "burn(uint256)": "42966c68",
    "decimals()": "313ce567",
    "enableTransfers()": "af35c6c7",
    "mint(address,uint256)": "40c10f19",
    "name()": "06fdde03",
    "nonces(address)": "7ecebe00",
    "owner()": "8da5cb5b",
    "permit(address,address,uint256,uint256,uint8,bytes32,bytes32)": "d505accf",
    "royaltyAddress()": "ad2f852a",
    "royaltyFeePercentage()": "3a16eca0",
    "symbol()": "95d89b41",
    "totalSupply()": "18160ddd",
    "transfer(address,uint256)": "a9059cbb",
    "transferFrom(address,address,uint256)": "23b872dd",
    "transferOwnership(address)": "f2fde38b",
    "transfersAllowed()": "b0660c3d"
  },
  "id": 34
}